{
	"DataType.sol": {
		"DataType": {
			"abi": [
				{
					"inputs": [],
					"stateMutability": "payable",
					"type": "constructor"
				},
				{
					"inputs": [],
					"name": "a",
					"outputs": [
						{
							"internalType": "address",
							"name": "",
							"type": "address"
						}
					],
					"stateMutability": "view",
					"type": "function"
				},
				{
					"inputs": [],
					"name": "b",
					"outputs": [
						{
							"internalType": "address",
							"name": "",
							"type": "address"
						}
					],
					"stateMutability": "view",
					"type": "function"
				},
				{
					"inputs": [],
					"name": "c",
					"outputs": [
						{
							"internalType": "address",
							"name": "",
							"type": "address"
						}
					],
					"stateMutability": "view",
					"type": "function"
				},
				{
					"inputs": [],
					"name": "maxInt",
					"outputs": [
						{
							"internalType": "int256",
							"name": "",
							"type": "int256"
						}
					],
					"stateMutability": "view",
					"type": "function"
				},
				{
					"inputs": [],
					"name": "maxInt8",
					"outputs": [
						{
							"internalType": "int256",
							"name": "",
							"type": "int256"
						}
					],
					"stateMutability": "view",
					"type": "function"
				},
				{
					"inputs": [],
					"name": "maxUInt",
					"outputs": [
						{
							"internalType": "uint256",
							"name": "",
							"type": "uint256"
						}
					],
					"stateMutability": "view",
					"type": "function"
				},
				{
					"inputs": [],
					"name": "maxUInt8",
					"outputs": [
						{
							"internalType": "uint256",
							"name": "",
							"type": "uint256"
						}
					],
					"stateMutability": "view",
					"type": "function"
				},
				{
					"inputs": [],
					"name": "minInt",
					"outputs": [
						{
							"internalType": "int256",
							"name": "",
							"type": "int256"
						}
					],
					"stateMutability": "view",
					"type": "function"
				},
				{
					"inputs": [],
					"name": "minInt8",
					"outputs": [
						{
							"internalType": "int256",
							"name": "",
							"type": "int256"
						}
					],
					"stateMutability": "view",
					"type": "function"
				},
				{
					"inputs": [],
					"name": "minUInt",
					"outputs": [
						{
							"internalType": "uint256",
							"name": "",
							"type": "uint256"
						}
					],
					"stateMutability": "view",
					"type": "function"
				},
				{
					"inputs": [],
					"name": "minUInt8",
					"outputs": [
						{
							"internalType": "uint256",
							"name": "",
							"type": "uint256"
						}
					],
					"stateMutability": "view",
					"type": "function"
				}
			],
			"devdoc": {
				"kind": "dev",
				"methods": {},
				"version": 1
			},
			"evm": {
				"assembly": "    /* \"DataType.sol\":467:1206  contract DataType {... */\n  mstore(0x40, 0x80)\n    /* \"DataType.sol\":499:503  -100 */\n  0xffffffffffffffffffffffffffffffffffffffffffffffffffffffffffffff9c\n    /* \"DataType.sol\":491:503  int x = -100 */\n  0x00\n  sstore\n    /* \"DataType.sol\":518:520  10 */\n  0x0a\n    /* \"DataType.sol\":509:520  uint y = 10 */\n  0x01\n  sstore\n    /* \"DataType.sol\":536:539  127 */\n  0x7f\n    /* \"DataType.sol\":527:539  int8 z = 127 */\n  0x02\n  exp(0x0100, 0x00)\n  dup2\n  sload\n  dup2\n  0xff\n  mul\n  not\n  and\n  swap1\n  dup4\n  0x00\n  signextend\n  0xff\n  and\n  mul\n  or\n  swap1\n  sstore\n  pop\n    /* \"DataType.sol\":599:613  type(int8).min */\n  0xffffffffffffffffffffffffffffffffffffffffffffffffffffffffffffff80\n    /* \"DataType.sol\":578:613  int public minInt8 = type(int8).min */\n  0x00\n  signextend\n  0x03\n  sstore\n    /* \"DataType.sol\":640:654  type(int8).max */\n  0x7f\n    /* \"DataType.sol\":619:654  int public maxInt8 = type(int8).max */\n  0x00\n  signextend\n  0x04\n  sstore\n    /* \"DataType.sol\":715:730  type(uint8).min */\n  0x00\n    /* \"DataType.sol\":692:730  uint public minUInt8 = type(uint8).min */\n  0xff\n  and\n  0x05\n  sstore\n    /* \"DataType.sol\":759:774  type(uint8).max */\n  0xff\n    /* \"DataType.sol\":736:774  uint public maxUInt8 = type(uint8).max */\n  dup1\n  and\n  0x06\n  sstore\n    /* \"DataType.sol\":843:856  type(int).min */\n  0x8000000000000000000000000000000000000000000000000000000000000000\n    /* \"DataType.sol\":823:856  int public minInt = type(int).min */\n  0x07\n  sstore\n    /* \"DataType.sol\":882:895  type(int).max */\n  0x7fffffffffffffffffffffffffffffffffffffffffffffffffffffffffffffff\n    /* \"DataType.sol\":862:895  int public maxInt = type(int).max */\n  0x08\n  sstore\n    /* \"DataType.sol\":965:979  type(uint).min */\n  0x00\n    /* \"DataType.sol\":943:979  uint public minUInt = type(uint).min */\n  0x09\n  sstore\n    /* \"DataType.sol\":1007:1021  type(uint).max */\n  0xffffffffffffffffffffffffffffffffffffffffffffffffffffffffffffffff\n    /* \"DataType.sol\":985:1021  uint public maxUInt = type(uint).max */\n  0x0a\n  sstore\n    /* \"DataType.sol\":1085:1095  msg.sender */\n  caller\n    /* \"DataType.sol\":1066:1095  address public a = msg.sender */\n  0x0b\n  exp(0x0100, 0x00)\n  dup2\n  sload\n  dup2\n  0xffffffffffffffffffffffffffffffffffffffff\n  mul\n  not\n  and\n  swap1\n  dup4\n  0xffffffffffffffffffffffffffffffffffffffff\n  and\n  mul\n  or\n  swap1\n  sstore\n  pop\n    /* \"DataType.sol\":1121:1163  0x5B38Da6a701c568545dCfcB03FcB875f56beddC4 */\n  0x5b38da6a701c568545dcfcb03fcb875f56beddc4\n    /* \"DataType.sol\":1102:1163  address public b = 0x5B38Da6a701c568545dCfcB03FcB875f56beddC4 */\n  0x0c\n  exp(0x0100, 0x00)\n  dup2\n  sload\n  dup2\n  0xffffffffffffffffffffffffffffffffffffffff\n  mul\n  not\n  and\n  swap1\n  dup4\n  0xffffffffffffffffffffffffffffffffffffffff\n  and\n  mul\n  or\n  swap1\n  sstore\n  pop\n    /* \"DataType.sol\":1197:1201  this */\n  address\n    /* \"DataType.sol\":1170:1202  address public c = address(this) */\n  0x0d\n  exp(0x0100, 0x00)\n  dup2\n  sload\n  dup2\n  0xffffffffffffffffffffffffffffffffffffffff\n  mul\n  not\n  and\n  swap1\n  dup4\n  0xffffffffffffffffffffffffffffffffffffffff\n  and\n  mul\n  or\n  swap1\n  sstore\n  pop\n    /* \"DataType.sol\":467:1206  contract DataType {... */\n  dataSize(sub_0)\n  dup1\n  dataOffset(sub_0)\n  0x00\n  codecopy\n  0x00\n  return\nstop\n\nsub_0: assembly {\n        /* \"DataType.sol\":467:1206  contract DataType {... */\n      mstore(0x40, 0x80)\n      callvalue\n      dup1\n      iszero\n      tag_1\n      jumpi\n      0x00\n      dup1\n      revert\n    tag_1:\n      pop\n      jumpi(tag_2, lt(calldatasize, 0x04))\n      shr(0xe0, calldataload(0x00))\n      dup1\n      0x8e93b09e\n      gt\n      tag_14\n      jumpi\n      dup1\n      0x8e93b09e\n      eq\n      tag_8\n      jumpi\n      dup1\n      0xa631eb62\n      eq\n      tag_9\n      jumpi\n      dup1\n      0xac5af46d\n      eq\n      tag_10\n      jumpi\n      dup1\n      0xc3da42b8\n      eq\n      tag_11\n      jumpi\n      dup1\n      0xeacf3a3d\n      eq\n      tag_12\n      jumpi\n      dup1\n      0xf8840d2d\n      eq\n      tag_13\n      jumpi\n      jump(tag_2)\n    tag_14:\n      dup1\n      0x0dbe671f\n      eq\n      tag_3\n      jumpi\n      dup1\n      0x3814c856\n      eq\n      tag_4\n      jumpi\n      dup1\n      0x4df7e3d0\n      eq\n      tag_5\n      jumpi\n      dup1\n      0x7a4c2571\n      eq\n      tag_6\n      jumpi\n      dup1\n      0x7e4e14cc\n      eq\n      tag_7\n      jumpi\n    tag_2:\n      0x00\n      dup1\n      revert\n        /* \"DataType.sol\":1066:1095  address public a = msg.sender */\n    tag_3:\n      tag_15\n      tag_16\n      jump\t// in\n    tag_15:\n      mload(0x40)\n      tag_17\n      swap2\n      swap1\n      tag_18\n      jump\t// in\n    tag_17:\n      mload(0x40)\n      dup1\n      swap2\n      sub\n      swap1\n      return\n        /* \"DataType.sol\":619:654  int public maxInt8 = type(int8).max */\n    tag_4:\n      tag_19\n      tag_20\n      jump\t// in\n    tag_19:\n      mload(0x40)\n      tag_21\n      swap2\n      swap1\n      tag_22\n      jump\t// in\n    tag_21:\n      mload(0x40)\n      dup1\n      swap2\n      sub\n      swap1\n      return\n        /* \"DataType.sol\":1102:1163  address public b = 0x5B38Da6a701c568545dCfcB03FcB875f56beddC4 */\n    tag_5:\n      tag_23\n      tag_24\n      jump\t// in\n    tag_23:\n      mload(0x40)\n      tag_25\n      swap2\n      swap1\n      tag_18\n      jump\t// in\n    tag_25:\n      mload(0x40)\n      dup1\n      swap2\n      sub\n      swap1\n      return\n        /* \"DataType.sol\":862:895  int public maxInt = type(int).max */\n    tag_6:\n      tag_26\n      tag_27\n      jump\t// in\n    tag_26:\n      mload(0x40)\n      tag_28\n      swap2\n      swap1\n      tag_22\n      jump\t// in\n    tag_28:\n      mload(0x40)\n      dup1\n      swap2\n      sub\n      swap1\n      return\n        /* \"DataType.sol\":823:856  int public minInt = type(int).min */\n    tag_7:\n      tag_29\n      tag_30\n      jump\t// in\n    tag_29:\n      mload(0x40)\n      tag_31\n      swap2\n      swap1\n      tag_22\n      jump\t// in\n    tag_31:\n      mload(0x40)\n      dup1\n      swap2\n      sub\n      swap1\n      return\n        /* \"DataType.sol\":943:979  uint public minUInt = type(uint).min */\n    tag_8:\n      tag_32\n      tag_33\n      jump\t// in\n    tag_32:\n      mload(0x40)\n      tag_34\n      swap2\n      swap1\n      tag_35\n      jump\t// in\n    tag_34:\n      mload(0x40)\n      dup1\n      swap2\n      sub\n      swap1\n      return\n        /* \"DataType.sol\":578:613  int public minInt8 = type(int8).min */\n    tag_9:\n      tag_36\n      tag_37\n      jump\t// in\n    tag_36:\n      mload(0x40)\n      tag_38\n      swap2\n      swap1\n      tag_22\n      jump\t// in\n    tag_38:\n      mload(0x40)\n      dup1\n      swap2\n      sub\n      swap1\n      return\n        /* \"DataType.sol\":692:730  uint public minUInt8 = type(uint8).min */\n    tag_10:\n      tag_39\n      tag_40\n      jump\t// in\n    tag_39:\n      mload(0x40)\n      tag_41\n      swap2\n      swap1\n      tag_35\n      jump\t// in\n    tag_41:\n      mload(0x40)\n      dup1\n      swap2\n      sub\n      swap1\n      return\n        /* \"DataType.sol\":1170:1202  address public c = address(this) */\n    tag_11:\n      tag_42\n      tag_43\n      jump\t// in\n    tag_42:\n      mload(0x40)\n      tag_44\n      swap2\n      swap1\n      tag_18\n      jump\t// in\n    tag_44:\n      mload(0x40)\n      dup1\n      swap2\n      sub\n      swap1\n      return\n        /* \"DataType.sol\":736:774  uint public maxUInt8 = type(uint8).max */\n    tag_12:\n      tag_45\n      tag_46\n      jump\t// in\n    tag_45:\n      mload(0x40)\n      tag_47\n      swap2\n      swap1\n      tag_35\n      jump\t// in\n    tag_47:\n      mload(0x40)\n      dup1\n      swap2\n      sub\n      swap1\n      return\n        /* \"DataType.sol\":985:1021  uint public maxUInt = type(uint).max */\n    tag_13:\n      tag_48\n      tag_49\n      jump\t// in\n    tag_48:\n      mload(0x40)\n      tag_50\n      swap2\n      swap1\n      tag_35\n      jump\t// in\n    tag_50:\n      mload(0x40)\n      dup1\n      swap2\n      sub\n      swap1\n      return\n        /* \"DataType.sol\":1066:1095  address public a = msg.sender */\n    tag_16:\n      0x0b\n      0x00\n      swap1\n      sload\n      swap1\n      0x0100\n      exp\n      swap1\n      div\n      0xffffffffffffffffffffffffffffffffffffffff\n      and\n      dup2\n      jump\t// out\n        /* \"DataType.sol\":619:654  int public maxInt8 = type(int8).max */\n    tag_20:\n      sload(0x04)\n      dup2\n      jump\t// out\n        /* \"DataType.sol\":1102:1163  address public b = 0x5B38Da6a701c568545dCfcB03FcB875f56beddC4 */\n    tag_24:\n      0x0c\n      0x00\n      swap1\n      sload\n      swap1\n      0x0100\n      exp\n      swap1\n      div\n      0xffffffffffffffffffffffffffffffffffffffff\n      and\n      dup2\n      jump\t// out\n        /* \"DataType.sol\":862:895  int public maxInt = type(int).max */\n    tag_27:\n      sload(0x08)\n      dup2\n      jump\t// out\n        /* \"DataType.sol\":823:856  int public minInt = type(int).min */\n    tag_30:\n      sload(0x07)\n      dup2\n      jump\t// out\n        /* \"DataType.sol\":943:979  uint public minUInt = type(uint).min */\n    tag_33:\n      sload(0x09)\n      dup2\n      jump\t// out\n        /* \"DataType.sol\":578:613  int public minInt8 = type(int8).min */\n    tag_37:\n      sload(0x03)\n      dup2\n      jump\t// out\n        /* \"DataType.sol\":692:730  uint public minUInt8 = type(uint8).min */\n    tag_40:\n      sload(0x05)\n      dup2\n      jump\t// out\n        /* \"DataType.sol\":1170:1202  address public c = address(this) */\n    tag_43:\n      0x0d\n      0x00\n      swap1\n      sload\n      swap1\n      0x0100\n      exp\n      swap1\n      div\n      0xffffffffffffffffffffffffffffffffffffffff\n      and\n      dup2\n      jump\t// out\n        /* \"DataType.sol\":736:774  uint public maxUInt8 = type(uint8).max */\n    tag_46:\n      sload(0x06)\n      dup2\n      jump\t// out\n        /* \"DataType.sol\":985:1021  uint public maxUInt = type(uint).max */\n    tag_49:\n      sload(0x0a)\n      dup2\n      jump\t// out\n        /* \"#utility.yul\":7:133   */\n    tag_51:\n        /* \"#utility.yul\":44:51   */\n      0x00\n        /* \"#utility.yul\":84:126   */\n      0xffffffffffffffffffffffffffffffffffffffff\n        /* \"#utility.yul\":77:82   */\n      dup3\n        /* \"#utility.yul\":73:127   */\n      and\n        /* \"#utility.yul\":62:127   */\n      swap1\n      pop\n        /* \"#utility.yul\":7:133   */\n      swap2\n      swap1\n      pop\n      jump\t// out\n        /* \"#utility.yul\":139:235   */\n    tag_52:\n        /* \"#utility.yul\":176:183   */\n      0x00\n        /* \"#utility.yul\":205:229   */\n      tag_61\n        /* \"#utility.yul\":223:228   */\n      dup3\n        /* \"#utility.yul\":205:229   */\n      tag_51\n      jump\t// in\n    tag_61:\n        /* \"#utility.yul\":194:229   */\n      swap1\n      pop\n        /* \"#utility.yul\":139:235   */\n      swap2\n      swap1\n      pop\n      jump\t// out\n        /* \"#utility.yul\":241:359   */\n    tag_53:\n        /* \"#utility.yul\":328:352   */\n      tag_63\n        /* \"#utility.yul\":346:351   */\n      dup2\n        /* \"#utility.yul\":328:352   */\n      tag_52\n      jump\t// in\n    tag_63:\n        /* \"#utility.yul\":323:326   */\n      dup3\n        /* \"#utility.yul\":316:353   */\n      mstore\n        /* \"#utility.yul\":241:359   */\n      pop\n      pop\n      jump\t// out\n        /* \"#utility.yul\":365:587   */\n    tag_18:\n        /* \"#utility.yul\":458:462   */\n      0x00\n        /* \"#utility.yul\":496:498   */\n      0x20\n        /* \"#utility.yul\":485:494   */\n      dup3\n        /* \"#utility.yul\":481:499   */\n      add\n        /* \"#utility.yul\":473:499   */\n      swap1\n      pop\n        /* \"#utility.yul\":509:580   */\n      tag_65\n        /* \"#utility.yul\":577:578   */\n      0x00\n        /* \"#utility.yul\":566:575   */\n      dup4\n        /* \"#utility.yul\":562:579   */\n      add\n        /* \"#utility.yul\":553:559   */\n      dup5\n        /* \"#utility.yul\":509:580   */\n      tag_53\n      jump\t// in\n    tag_65:\n        /* \"#utility.yul\":365:587   */\n      swap3\n      swap2\n      pop\n      pop\n      jump\t// out\n        /* \"#utility.yul\":593:669   */\n    tag_54:\n        /* \"#utility.yul\":629:636   */\n      0x00\n        /* \"#utility.yul\":658:663   */\n      dup2\n        /* \"#utility.yul\":647:663   */\n      swap1\n      pop\n        /* \"#utility.yul\":593:669   */\n      swap2\n      swap1\n      pop\n      jump\t// out\n        /* \"#utility.yul\":675:790   */\n    tag_55:\n        /* \"#utility.yul\":760:783   */\n      tag_68\n        /* \"#utility.yul\":777:782   */\n      dup2\n        /* \"#utility.yul\":760:783   */\n      tag_54\n      jump\t// in\n    tag_68:\n        /* \"#utility.yul\":755:758   */\n      dup3\n        /* \"#utility.yul\":748:784   */\n      mstore\n        /* \"#utility.yul\":675:790   */\n      pop\n      pop\n      jump\t// out\n        /* \"#utility.yul\":796:1014   */\n    tag_22:\n        /* \"#utility.yul\":887:891   */\n      0x00\n        /* \"#utility.yul\":925:927   */\n      0x20\n        /* \"#utility.yul\":914:923   */\n      dup3\n        /* \"#utility.yul\":910:928   */\n      add\n        /* \"#utility.yul\":902:928   */\n      swap1\n      pop\n        /* \"#utility.yul\":938:1007   */\n      tag_70\n        /* \"#utility.yul\":1004:1005   */\n      0x00\n        /* \"#utility.yul\":993:1002   */\n      dup4\n        /* \"#utility.yul\":989:1006   */\n      add\n        /* \"#utility.yul\":980:986   */\n      dup5\n        /* \"#utility.yul\":938:1007   */\n      tag_55\n      jump\t// in\n    tag_70:\n        /* \"#utility.yul\":796:1014   */\n      swap3\n      swap2\n      pop\n      pop\n      jump\t// out\n        /* \"#utility.yul\":1020:1097   */\n    tag_56:\n        /* \"#utility.yul\":1057:1064   */\n      0x00\n        /* \"#utility.yul\":1086:1091   */\n      dup2\n        /* \"#utility.yul\":1075:1091   */\n      swap1\n      pop\n        /* \"#utility.yul\":1020:1097   */\n      swap2\n      swap1\n      pop\n      jump\t// out\n        /* \"#utility.yul\":1103:1221   */\n    tag_57:\n        /* \"#utility.yul\":1190:1214   */\n      tag_73\n        /* \"#utility.yul\":1208:1213   */\n      dup2\n        /* \"#utility.yul\":1190:1214   */\n      tag_56\n      jump\t// in\n    tag_73:\n        /* \"#utility.yul\":1185:1188   */\n      dup3\n        /* \"#utility.yul\":1178:1215   */\n      mstore\n        /* \"#utility.yul\":1103:1221   */\n      pop\n      pop\n      jump\t// out\n        /* \"#utility.yul\":1227:1449   */\n    tag_35:\n        /* \"#utility.yul\":1320:1324   */\n      0x00\n        /* \"#utility.yul\":1358:1360   */\n      0x20\n        /* \"#utility.yul\":1347:1356   */\n      dup3\n        /* \"#utility.yul\":1343:1361   */\n      add\n        /* \"#utility.yul\":1335:1361   */\n      swap1\n      pop\n        /* \"#utility.yul\":1371:1442   */\n      tag_75\n        /* \"#utility.yul\":1439:1440   */\n      0x00\n        /* \"#utility.yul\":1428:1437   */\n      dup4\n        /* \"#utility.yul\":1424:1441   */\n      add\n        /* \"#utility.yul\":1415:1421   */\n      dup5\n        /* \"#utility.yul\":1371:1442   */\n      tag_57\n      jump\t// in\n    tag_75:\n        /* \"#utility.yul\":1227:1449   */\n      swap3\n      swap2\n      pop\n      pop\n      jump\t// out\n\n    auxdata: 0xa26469706673582212208e3f4a022d0560b25e10d532e05dc6ab4c613cda757fddb7d0ae8aedf2adf15f64736f6c634300081a0033\n}\n",
				"bytecode": {
					"linkReferences": {},
					"object": "60806040527fffffffffffffffffffffffffffffffffffffffffffffffffffffffffffffff9c5f55600a600155607f60025f6101000a81548160ff02191690835f0b60ff1602179055507fffffffffffffffffffffffffffffffffffffffffffffffffffffffffffffff805f0b600355607f5f0b6004555f60ff1660055560ff80166006557f80000000000000000000000000000000000000000000000000000000000000006007557f7fffffffffffffffffffffffffffffffffffffffffffffffffffffffffffffff6008555f6009557fffffffffffffffffffffffffffffffffffffffffffffffffffffffffffffffff600a5533600b5f6101000a81548173ffffffffffffffffffffffffffffffffffffffff021916908373ffffffffffffffffffffffffffffffffffffffff160217905550735b38da6a701c568545dcfcb03fcb875f56beddc4600c5f6101000a81548173ffffffffffffffffffffffffffffffffffffffff021916908373ffffffffffffffffffffffffffffffffffffffff16021790555030600d5f6101000a81548173ffffffffffffffffffffffffffffffffffffffff021916908373ffffffffffffffffffffffffffffffffffffffff160217905550610384806101d55f395ff3fe608060405234801561000f575f80fd5b50600436106100a7575f3560e01c80638e93b09e1161006f5780638e93b09e14610141578063a631eb621461015f578063ac5af46d1461017d578063c3da42b81461019b578063eacf3a3d146101b9578063f8840d2d146101d7576100a7565b80630dbe671f146100ab5780633814c856146100c95780634df7e3d0146100e75780637a4c2571146101055780637e4e14cc14610123575b5f80fd5b6100b36101f5565b6040516100c091906102d3565b60405180910390f35b6100d161021a565b6040516100de9190610304565b60405180910390f35b6100ef610220565b6040516100fc91906102d3565b60405180910390f35b61010d610245565b60405161011a9190610304565b60405180910390f35b61012b61024b565b6040516101389190610304565b60405180910390f35b610149610251565b6040516101569190610335565b60405180910390f35b610167610257565b6040516101749190610304565b60405180910390f35b61018561025d565b6040516101929190610335565b60405180910390f35b6101a3610263565b6040516101b091906102d3565b60405180910390f35b6101c1610288565b6040516101ce9190610335565b60405180910390f35b6101df61028e565b6040516101ec9190610335565b60405180910390f35b600b5f9054906101000a900473ffffffffffffffffffffffffffffffffffffffff1681565b60045481565b600c5f9054906101000a900473ffffffffffffffffffffffffffffffffffffffff1681565b60085481565b60075481565b60095481565b60035481565b60055481565b600d5f9054906101000a900473ffffffffffffffffffffffffffffffffffffffff1681565b60065481565b600a5481565b5f73ffffffffffffffffffffffffffffffffffffffff82169050919050565b5f6102bd82610294565b9050919050565b6102cd816102b3565b82525050565b5f6020820190506102e65f8301846102c4565b92915050565b5f819050919050565b6102fe816102ec565b82525050565b5f6020820190506103175f8301846102f5565b92915050565b5f819050919050565b61032f8161031d565b82525050565b5f6020820190506103485f830184610326565b9291505056fea26469706673582212208e3f4a022d0560b25e10d532e05dc6ab4c613cda757fddb7d0ae8aedf2adf15f64736f6c634300081a0033",
					"opcodes": "PUSH1 0x80 PUSH1 0x40 MSTORE PUSH32 0xFFFFFFFFFFFFFFFFFFFFFFFFFFFFFFFFFFFFFFFFFFFFFFFFFFFFFFFFFFFFFF9C PUSH0 SSTORE PUSH1 0xA PUSH1 0x1 SSTORE PUSH1 0x7F PUSH1 0x2 PUSH0 PUSH2 0x100 EXP DUP2 SLOAD DUP2 PUSH1 0xFF MUL NOT AND SWAP1 DUP4 PUSH0 SIGNEXTEND PUSH1 0xFF AND MUL OR SWAP1 SSTORE POP PUSH32 0xFFFFFFFFFFFFFFFFFFFFFFFFFFFFFFFFFFFFFFFFFFFFFFFFFFFFFFFFFFFFFF80 PUSH0 SIGNEXTEND PUSH1 0x3 SSTORE PUSH1 0x7F PUSH0 SIGNEXTEND PUSH1 0x4 SSTORE PUSH0 PUSH1 0xFF AND PUSH1 0x5 SSTORE PUSH1 0xFF DUP1 AND PUSH1 0x6 SSTORE PUSH32 0x8000000000000000000000000000000000000000000000000000000000000000 PUSH1 0x7 SSTORE PUSH32 0x7FFFFFFFFFFFFFFFFFFFFFFFFFFFFFFFFFFFFFFFFFFFFFFFFFFFFFFFFFFFFFFF PUSH1 0x8 SSTORE PUSH0 PUSH1 0x9 SSTORE PUSH32 0xFFFFFFFFFFFFFFFFFFFFFFFFFFFFFFFFFFFFFFFFFFFFFFFFFFFFFFFFFFFFFFFF PUSH1 0xA SSTORE CALLER PUSH1 0xB PUSH0 PUSH2 0x100 EXP DUP2 SLOAD DUP2 PUSH20 0xFFFFFFFFFFFFFFFFFFFFFFFFFFFFFFFFFFFFFFFF MUL NOT AND SWAP1 DUP4 PUSH20 0xFFFFFFFFFFFFFFFFFFFFFFFFFFFFFFFFFFFFFFFF AND MUL OR SWAP1 SSTORE POP PUSH20 0x5B38DA6A701C568545DCFCB03FCB875F56BEDDC4 PUSH1 0xC PUSH0 PUSH2 0x100 EXP DUP2 SLOAD DUP2 PUSH20 0xFFFFFFFFFFFFFFFFFFFFFFFFFFFFFFFFFFFFFFFF MUL NOT AND SWAP1 DUP4 PUSH20 0xFFFFFFFFFFFFFFFFFFFFFFFFFFFFFFFFFFFFFFFF AND MUL OR SWAP1 SSTORE POP ADDRESS PUSH1 0xD PUSH0 PUSH2 0x100 EXP DUP2 SLOAD DUP2 PUSH20 0xFFFFFFFFFFFFFFFFFFFFFFFFFFFFFFFFFFFFFFFF MUL NOT AND SWAP1 DUP4 PUSH20 0xFFFFFFFFFFFFFFFFFFFFFFFFFFFFFFFFFFFFFFFF AND MUL OR SWAP1 SSTORE POP PUSH2 0x384 DUP1 PUSH2 0x1D5 PUSH0 CODECOPY PUSH0 RETURN INVALID PUSH1 0x80 PUSH1 0x40 MSTORE CALLVALUE DUP1 ISZERO PUSH2 0xF JUMPI PUSH0 DUP1 REVERT JUMPDEST POP PUSH1 0x4 CALLDATASIZE LT PUSH2 0xA7 JUMPI PUSH0 CALLDATALOAD PUSH1 0xE0 SHR DUP1 PUSH4 0x8E93B09E GT PUSH2 0x6F JUMPI DUP1 PUSH4 0x8E93B09E EQ PUSH2 0x141 JUMPI DUP1 PUSH4 0xA631EB62 EQ PUSH2 0x15F JUMPI DUP1 PUSH4 0xAC5AF46D EQ PUSH2 0x17D JUMPI DUP1 PUSH4 0xC3DA42B8 EQ PUSH2 0x19B JUMPI DUP1 PUSH4 0xEACF3A3D EQ PUSH2 0x1B9 JUMPI DUP1 PUSH4 0xF8840D2D EQ PUSH2 0x1D7 JUMPI PUSH2 0xA7 JUMP JUMPDEST DUP1 PUSH4 0xDBE671F EQ PUSH2 0xAB JUMPI DUP1 PUSH4 0x3814C856 EQ PUSH2 0xC9 JUMPI DUP1 PUSH4 0x4DF7E3D0 EQ PUSH2 0xE7 JUMPI DUP1 PUSH4 0x7A4C2571 EQ PUSH2 0x105 JUMPI DUP1 PUSH4 0x7E4E14CC EQ PUSH2 0x123 JUMPI JUMPDEST PUSH0 DUP1 REVERT JUMPDEST PUSH2 0xB3 PUSH2 0x1F5 JUMP JUMPDEST PUSH1 0x40 MLOAD PUSH2 0xC0 SWAP2 SWAP1 PUSH2 0x2D3 JUMP JUMPDEST PUSH1 0x40 MLOAD DUP1 SWAP2 SUB SWAP1 RETURN JUMPDEST PUSH2 0xD1 PUSH2 0x21A JUMP JUMPDEST PUSH1 0x40 MLOAD PUSH2 0xDE SWAP2 SWAP1 PUSH2 0x304 JUMP JUMPDEST PUSH1 0x40 MLOAD DUP1 SWAP2 SUB SWAP1 RETURN JUMPDEST PUSH2 0xEF PUSH2 0x220 JUMP JUMPDEST PUSH1 0x40 MLOAD PUSH2 0xFC SWAP2 SWAP1 PUSH2 0x2D3 JUMP JUMPDEST PUSH1 0x40 MLOAD DUP1 SWAP2 SUB SWAP1 RETURN JUMPDEST PUSH2 0x10D PUSH2 0x245 JUMP JUMPDEST PUSH1 0x40 MLOAD PUSH2 0x11A SWAP2 SWAP1 PUSH2 0x304 JUMP JUMPDEST PUSH1 0x40 MLOAD DUP1 SWAP2 SUB SWAP1 RETURN JUMPDEST PUSH2 0x12B PUSH2 0x24B JUMP JUMPDEST PUSH1 0x40 MLOAD PUSH2 0x138 SWAP2 SWAP1 PUSH2 0x304 JUMP JUMPDEST PUSH1 0x40 MLOAD DUP1 SWAP2 SUB SWAP1 RETURN JUMPDEST PUSH2 0x149 PUSH2 0x251 JUMP JUMPDEST PUSH1 0x40 MLOAD PUSH2 0x156 SWAP2 SWAP1 PUSH2 0x335 JUMP JUMPDEST PUSH1 0x40 MLOAD DUP1 SWAP2 SUB SWAP1 RETURN JUMPDEST PUSH2 0x167 PUSH2 0x257 JUMP JUMPDEST PUSH1 0x40 MLOAD PUSH2 0x174 SWAP2 SWAP1 PUSH2 0x304 JUMP JUMPDEST PUSH1 0x40 MLOAD DUP1 SWAP2 SUB SWAP1 RETURN JUMPDEST PUSH2 0x185 PUSH2 0x25D JUMP JUMPDEST PUSH1 0x40 MLOAD PUSH2 0x192 SWAP2 SWAP1 PUSH2 0x335 JUMP JUMPDEST PUSH1 0x40 MLOAD DUP1 SWAP2 SUB SWAP1 RETURN JUMPDEST PUSH2 0x1A3 PUSH2 0x263 JUMP JUMPDEST PUSH1 0x40 MLOAD PUSH2 0x1B0 SWAP2 SWAP1 PUSH2 0x2D3 JUMP JUMPDEST PUSH1 0x40 MLOAD DUP1 SWAP2 SUB SWAP1 RETURN JUMPDEST PUSH2 0x1C1 PUSH2 0x288 JUMP JUMPDEST PUSH1 0x40 MLOAD PUSH2 0x1CE SWAP2 SWAP1 PUSH2 0x335 JUMP JUMPDEST PUSH1 0x40 MLOAD DUP1 SWAP2 SUB SWAP1 RETURN JUMPDEST PUSH2 0x1DF PUSH2 0x28E JUMP JUMPDEST PUSH1 0x40 MLOAD PUSH2 0x1EC SWAP2 SWAP1 PUSH2 0x335 JUMP JUMPDEST PUSH1 0x40 MLOAD DUP1 SWAP2 SUB SWAP1 RETURN JUMPDEST PUSH1 0xB PUSH0 SWAP1 SLOAD SWAP1 PUSH2 0x100 EXP SWAP1 DIV PUSH20 0xFFFFFFFFFFFFFFFFFFFFFFFFFFFFFFFFFFFFFFFF AND DUP2 JUMP JUMPDEST PUSH1 0x4 SLOAD DUP2 JUMP JUMPDEST PUSH1 0xC PUSH0 SWAP1 SLOAD SWAP1 PUSH2 0x100 EXP SWAP1 DIV PUSH20 0xFFFFFFFFFFFFFFFFFFFFFFFFFFFFFFFFFFFFFFFF AND DUP2 JUMP JUMPDEST PUSH1 0x8 SLOAD DUP2 JUMP JUMPDEST PUSH1 0x7 SLOAD DUP2 JUMP JUMPDEST PUSH1 0x9 SLOAD DUP2 JUMP JUMPDEST PUSH1 0x3 SLOAD DUP2 JUMP JUMPDEST PUSH1 0x5 SLOAD DUP2 JUMP JUMPDEST PUSH1 0xD PUSH0 SWAP1 SLOAD SWAP1 PUSH2 0x100 EXP SWAP1 DIV PUSH20 0xFFFFFFFFFFFFFFFFFFFFFFFFFFFFFFFFFFFFFFFF AND DUP2 JUMP JUMPDEST PUSH1 0x6 SLOAD DUP2 JUMP JUMPDEST PUSH1 0xA SLOAD DUP2 JUMP JUMPDEST PUSH0 PUSH20 0xFFFFFFFFFFFFFFFFFFFFFFFFFFFFFFFFFFFFFFFF DUP3 AND SWAP1 POP SWAP2 SWAP1 POP JUMP JUMPDEST PUSH0 PUSH2 0x2BD DUP3 PUSH2 0x294 JUMP JUMPDEST SWAP1 POP SWAP2 SWAP1 POP JUMP JUMPDEST PUSH2 0x2CD DUP2 PUSH2 0x2B3 JUMP JUMPDEST DUP3 MSTORE POP POP JUMP JUMPDEST PUSH0 PUSH1 0x20 DUP3 ADD SWAP1 POP PUSH2 0x2E6 PUSH0 DUP4 ADD DUP5 PUSH2 0x2C4 JUMP JUMPDEST SWAP3 SWAP2 POP POP JUMP JUMPDEST PUSH0 DUP2 SWAP1 POP SWAP2 SWAP1 POP JUMP JUMPDEST PUSH2 0x2FE DUP2 PUSH2 0x2EC JUMP JUMPDEST DUP3 MSTORE POP POP JUMP JUMPDEST PUSH0 PUSH1 0x20 DUP3 ADD SWAP1 POP PUSH2 0x317 PUSH0 DUP4 ADD DUP5 PUSH2 0x2F5 JUMP JUMPDEST SWAP3 SWAP2 POP POP JUMP JUMPDEST PUSH0 DUP2 SWAP1 POP SWAP2 SWAP1 POP JUMP JUMPDEST PUSH2 0x32F DUP2 PUSH2 0x31D JUMP JUMPDEST DUP3 MSTORE POP POP JUMP JUMPDEST PUSH0 PUSH1 0x20 DUP3 ADD SWAP1 POP PUSH2 0x348 PUSH0 DUP4 ADD DUP5 PUSH2 0x326 JUMP JUMPDEST SWAP3 SWAP2 POP POP JUMP INVALID LOG2 PUSH5 0x6970667358 0x22 SLT KECCAK256 DUP15 EXTCODEHASH BLOBBASEFEE MUL 0x2D SDIV PUSH1 0xB2 MCOPY LT 0xD5 ORIGIN 0xE0 TSTORE 0xC6 0xAB 0x4C PUSH2 0x3CDA PUSH22 0x7FDDB7D0AE8AEDF2ADF15F64736F6C634300081A0033 "
				},
				"gasEstimates": {
					"creation": {
						"codeDepositCost": "180000",
						"executionCost": "284152",
						"totalCost": "464152"
					},
					"external": {
						"a()": "2509",
						"b()": "2553",
						"c()": "2574",
						"maxInt()": "2492",
						"maxInt8()": "2448",
						"maxUInt()": "2535",
						"maxUInt8()": "2513",
						"minInt()": "2514",
						"minInt8()": "2447",
						"minUInt()": "2425",
						"minUInt8()": "2469"
					}
				},
				"methodIdentifiers": {
					"a()": "0dbe671f",
					"b()": "4df7e3d0",
					"c()": "c3da42b8",
					"maxInt()": "7a4c2571",
					"maxInt8()": "3814c856",
					"maxUInt()": "f8840d2d",
					"maxUInt8()": "eacf3a3d",
					"minInt()": "7e4e14cc",
					"minInt8()": "a631eb62",
					"minUInt()": "8e93b09e",
					"minUInt8()": "ac5af46d"
				}
			},
			"storageLayout": {
				"storage": [
					{
						"astId": 6,
						"contract": "DataType.sol:DataType",
						"label": "x",
						"offset": 0,
						"slot": "0",
						"type": "t_int256"
					},
					{
						"astId": 9,
						"contract": "DataType.sol:DataType",
						"label": "y",
						"offset": 0,
						"slot": "1",
						"type": "t_uint256"
					},
					{
						"astId": 12,
						"contract": "DataType.sol:DataType",
						"label": "z",
						"offset": 0,
						"slot": "2",
						"type": "t_int8"
					},
					{
						"astId": 19,
						"contract": "DataType.sol:DataType",
						"label": "minInt8",
						"offset": 0,
						"slot": "3",
						"type": "t_int256"
					},
					{
						"astId": 26,
						"contract": "DataType.sol:DataType",
						"label": "maxInt8",
						"offset": 0,
						"slot": "4",
						"type": "t_int256"
					},
					{
						"astId": 33,
						"contract": "DataType.sol:DataType",
						"label": "minUInt8",
						"offset": 0,
						"slot": "5",
						"type": "t_uint256"
					},
					{
						"astId": 40,
						"contract": "DataType.sol:DataType",
						"label": "maxUInt8",
						"offset": 0,
						"slot": "6",
						"type": "t_uint256"
					},
					{
						"astId": 47,
						"contract": "DataType.sol:DataType",
						"label": "minInt",
						"offset": 0,
						"slot": "7",
						"type": "t_int256"
					},
					{
						"astId": 54,
						"contract": "DataType.sol:DataType",
						"label": "maxInt",
						"offset": 0,
						"slot": "8",
						"type": "t_int256"
					},
					{
						"astId": 61,
						"contract": "DataType.sol:DataType",
						"label": "minUInt",
						"offset": 0,
						"slot": "9",
						"type": "t_uint256"
					},
					{
						"astId": 68,
						"contract": "DataType.sol:DataType",
						"label": "maxUInt",
						"offset": 0,
						"slot": "10",
						"type": "t_uint256"
					},
					{
						"astId": 76,
						"contract": "DataType.sol:DataType",
						"label": "a",
						"offset": 0,
						"slot": "11",
						"type": "t_address"
					},
					{
						"astId": 79,
						"contract": "DataType.sol:DataType",
						"label": "b",
						"offset": 0,
						"slot": "12",
						"type": "t_address"
					},
					{
						"astId": 85,
						"contract": "DataType.sol:DataType",
						"label": "c",
						"offset": 0,
						"slot": "13",
						"type": "t_address"
					}
				],
				"types": {
					"t_address": {
						"encoding": "inplace",
						"label": "address",
						"numberOfBytes": "20"
					},
					"t_int256": {
						"encoding": "inplace",
						"label": "int256",
						"numberOfBytes": "32"
					},
					"t_int8": {
						"encoding": "inplace",
						"label": "int8",
						"numberOfBytes": "1"
					},
					"t_uint256": {
						"encoding": "inplace",
						"label": "uint256",
						"numberOfBytes": "32"
					}
				}
			},
			"userdoc": {
				"kind": "user",
				"methods": {},
				"notice": "Solidity数据类型 值类型 布尔- bool 整型- int/uint 地址- address 定长字节数组  定长浮点 fixed / ufixed 枚举 enum 函数 function 引用类型 数组 Array  不定长字节数组 字符串 结构体 struct 映射 mapping",
				"version": 1
			}
		}
	}
}