{
	"StoreType.sol": {
		"Person": {
			"abi": [
				{
					"inputs": [
						{
							"internalType": "uint256",
							"name": "value",
							"type": "uint256"
						}
					],
					"name": "changeGender",
					"outputs": [],
					"stateMutability": "nonpayable",
					"type": "function"
				},
				{
					"inputs": [],
					"name": "getName",
					"outputs": [
						{
							"internalType": "string",
							"name": "",
							"type": "string"
						}
					],
					"stateMutability": "view",
					"type": "function"
				},
				{
					"inputs": [
						{
							"internalType": "string",
							"name": "_name",
							"type": "string"
						},
						{
							"internalType": "string",
							"name": "_gender",
							"type": "string"
						}
					],
					"name": "setState",
					"outputs": [],
					"stateMutability": "nonpayable",
					"type": "function"
				},
				{
					"inputs": [],
					"name": "state",
					"outputs": [
						{
							"internalType": "string",
							"name": "name",
							"type": "string"
						},
						{
							"internalType": "string",
							"name": "gender",
							"type": "string"
						}
					],
					"stateMutability": "view",
					"type": "function"
				}
			],
			"devdoc": {
				"kind": "dev",
				"methods": {},
				"version": 1
			},
			"evm": {
				"assembly": "    /* \"StoreType.sol\":1124:1807  contract Person {... */\n  mstore(0x40, 0x80)\n  callvalue\n  dup1\n  iszero\n  tag_1\n  jumpi\n  0x00\n  dup1\n  revert\ntag_1:\n  pop\n  dataSize(sub_0)\n  dup1\n  dataOffset(sub_0)\n  0x00\n  codecopy\n  0x00\n  return\nstop\n\nsub_0: assembly {\n        /* \"StoreType.sol\":1124:1807  contract Person {... */\n      mstore(0x40, 0x80)\n      callvalue\n      dup1\n      iszero\n      tag_1\n      jumpi\n      0x00\n      dup1\n      revert\n    tag_1:\n      pop\n      jumpi(tag_2, lt(calldatasize, 0x04))\n      shr(0xe0, calldataload(0x00))\n      dup1\n      0x17d7de7c\n      eq\n      tag_3\n      jumpi\n      dup1\n      0x652296f1\n      eq\n      tag_4\n      jumpi\n      dup1\n      0xc19d93fb\n      eq\n      tag_5\n      jumpi\n      dup1\n      0xd9038f3c\n      eq\n      tag_6\n      jumpi\n    tag_2:\n      0x00\n      dup1\n      revert\n        /* \"StoreType.sol\":1389:1479  function getName() external view returns(string memory) {... */\n    tag_3:\n      tag_7\n      tag_8\n      jump\t// in\n    tag_7:\n      mload(0x40)\n      tag_9\n      swap2\n      swap1\n      tag_10\n      jump\t// in\n    tag_9:\n      mload(0x40)\n      dup1\n      swap2\n      sub\n      swap1\n      return\n        /* \"StoreType.sol\":1485:1799  function changeGender(uint value)  external {... */\n    tag_4:\n      tag_11\n      0x04\n      dup1\n      calldatasize\n      sub\n      dup2\n      add\n      swap1\n      tag_12\n      swap2\n      swap1\n      tag_13\n      jump\t// in\n    tag_12:\n      tag_14\n      jump\t// in\n    tag_11:\n      stop\n        /* \"StoreType.sol\":1216:1234  State public state */\n    tag_5:\n      tag_15\n      tag_16\n      jump\t// in\n    tag_15:\n      mload(0x40)\n      tag_17\n      swap3\n      swap2\n      swap1\n      tag_18\n      jump\t// in\n    tag_17:\n      mload(0x40)\n      dup1\n      swap2\n      sub\n      swap1\n      return\n        /* \"StoreType.sol\":1241:1383  function setState(string calldata _name, string calldata _gender) external {... */\n    tag_6:\n      tag_19\n      0x04\n      dup1\n      calldatasize\n      sub\n      dup2\n      add\n      swap1\n      tag_20\n      swap2\n      swap1\n      tag_21\n      jump\t// in\n    tag_20:\n      tag_22\n      jump\t// in\n    tag_19:\n      stop\n        /* \"StoreType.sol\":1389:1479  function getName() external view returns(string memory) {... */\n    tag_8:\n        /* \"StoreType.sol\":1430:1443  string memory */\n      0x60\n        /* \"StoreType.sol\":1462:1467  state */\n      0x00\n        /* \"StoreType.sol\":1462:1472  state.name */\n      dup1\n      add\n        /* \"StoreType.sol\":1455:1472  return state.name */\n      dup1\n      sload\n      tag_24\n      swap1\n      tag_25\n      jump\t// in\n    tag_24:\n      dup1\n      0x1f\n      add\n      0x20\n      dup1\n      swap2\n      div\n      mul\n      0x20\n      add\n      mload(0x40)\n      swap1\n      dup2\n      add\n      0x40\n      mstore\n      dup1\n      swap3\n      swap2\n      swap1\n      dup2\n      dup2\n      mstore\n      0x20\n      add\n      dup3\n      dup1\n      sload\n      tag_26\n      swap1\n      tag_25\n      jump\t// in\n    tag_26:\n      dup1\n      iszero\n      tag_27\n      jumpi\n      dup1\n      0x1f\n      lt\n      tag_28\n      jumpi\n      0x0100\n      dup1\n      dup4\n      sload\n      div\n      mul\n      dup4\n      mstore\n      swap2\n      0x20\n      add\n      swap2\n      jump(tag_27)\n    tag_28:\n      dup3\n      add\n      swap2\n      swap1\n      0x00\n      mstore\n      keccak256(0x00, 0x20)\n      swap1\n    tag_29:\n      dup2\n      sload\n      dup2\n      mstore\n      swap1\n      0x01\n      add\n      swap1\n      0x20\n      add\n      dup1\n      dup4\n      gt\n      tag_29\n      jumpi\n      dup3\n      swap1\n      sub\n      0x1f\n      and\n      dup3\n      add\n      swap2\n    tag_27:\n      pop\n      pop\n      pop\n      pop\n      pop\n      swap1\n      pop\n        /* \"StoreType.sol\":1389:1479  function getName() external view returns(string memory) {... */\n      swap1\n      jump\t// out\n        /* \"StoreType.sol\":1485:1799  function changeGender(uint value)  external {... */\n    tag_14:\n        /* \"StoreType.sol\":1557:1558  0 */\n      0x00\n        /* \"StoreType.sol\":1548:1553  value */\n      dup2\n        /* \"StoreType.sol\":1548:1558  value == 0 */\n      eq\n        /* \"StoreType.sol\":1548:1572  value == 0 || value == 1 */\n      dup1\n      tag_31\n      jumpi\n      pop\n        /* \"StoreType.sol\":1571:1572  1 */\n      0x01\n        /* \"StoreType.sol\":1562:1567  value */\n      dup2\n        /* \"StoreType.sol\":1562:1572  value == 1 */\n      eq\n        /* \"StoreType.sol\":1548:1572  value == 0 || value == 1 */\n    tag_31:\n        /* \"StoreType.sol\":1540:1596  require(value == 0 || value == 1, unicode\"输入错误\") */\n      tag_32\n      jumpi\n      mload(0x40)\n      0x08c379a000000000000000000000000000000000000000000000000000000000\n      dup2\n      mstore\n      0x04\n      add\n      tag_33\n      swap1\n      tag_34\n      jump\t// in\n    tag_33:\n      mload(0x40)\n      dup1\n      swap2\n      sub\n      swap1\n      revert\n    tag_32:\n        /* \"StoreType.sol\":1606:1629  string memory newGender */\n      0x60\n        /* \"StoreType.sol\":1661:1662  0 */\n      0x00\n        /* \"StoreType.sol\":1652:1657  value */\n      dup3\n        /* \"StoreType.sol\":1652:1662  value == 0 */\n      sub\n        /* \"StoreType.sol\":1648:1758  if (value == 0) {... */\n      tag_35\n      jumpi\n        /* \"StoreType.sol\":1678:1698  newGender = \"female\" */\n      mload(0x40)\n      dup1\n      0x40\n      add\n      0x40\n      mstore\n      dup1\n      0x06\n      dup2\n      mstore\n      0x20\n      add\n      0x66656d616c650000000000000000000000000000000000000000000000000000\n      dup2\n      mstore\n      pop\n      swap1\n      pop\n        /* \"StoreType.sol\":1648:1758  if (value == 0) {... */\n      jump(tag_36)\n    tag_35:\n        /* \"StoreType.sol\":1729:1747  newGender = \"male\" */\n      mload(0x40)\n      dup1\n      0x40\n      add\n      0x40\n      mstore\n      dup1\n      0x04\n      dup2\n      mstore\n      0x20\n      add\n      0x6d616c6500000000000000000000000000000000000000000000000000000000\n      dup2\n      mstore\n      pop\n      swap1\n      pop\n        /* \"StoreType.sol\":1648:1758  if (value == 0) {... */\n    tag_36:\n        /* \"StoreType.sol\":1783:1792  newGender */\n      dup1\n        /* \"StoreType.sol\":1768:1773  state */\n      0x00\n        /* \"StoreType.sol\":1768:1780  state.gender */\n      0x01\n      add\n        /* \"StoreType.sol\":1768:1792  state.gender = newGender */\n      swap1\n      dup2\n      tag_37\n      swap2\n      swap1\n      tag_38\n      jump\t// in\n    tag_37:\n      pop\n        /* \"StoreType.sol\":1529:1799  {... */\n      pop\n        /* \"StoreType.sol\":1485:1799  function changeGender(uint value)  external {... */\n      pop\n      jump\t// out\n        /* \"StoreType.sol\":1216:1234  State public state */\n    tag_16:\n      0x00\n      dup1\n      0x00\n      add\n      dup1\n      sload\n      tag_39\n      swap1\n      tag_25\n      jump\t// in\n    tag_39:\n      dup1\n      0x1f\n      add\n      0x20\n      dup1\n      swap2\n      div\n      mul\n      0x20\n      add\n      mload(0x40)\n      swap1\n      dup2\n      add\n      0x40\n      mstore\n      dup1\n      swap3\n      swap2\n      swap1\n      dup2\n      dup2\n      mstore\n      0x20\n      add\n      dup3\n      dup1\n      sload\n      tag_40\n      swap1\n      tag_25\n      jump\t// in\n    tag_40:\n      dup1\n      iszero\n      tag_41\n      jumpi\n      dup1\n      0x1f\n      lt\n      tag_42\n      jumpi\n      0x0100\n      dup1\n      dup4\n      sload\n      div\n      mul\n      dup4\n      mstore\n      swap2\n      0x20\n      add\n      swap2\n      jump(tag_41)\n    tag_42:\n      dup3\n      add\n      swap2\n      swap1\n      0x00\n      mstore\n      keccak256(0x00, 0x20)\n      swap1\n    tag_43:\n      dup2\n      sload\n      dup2\n      mstore\n      swap1\n      0x01\n      add\n      swap1\n      0x20\n      add\n      dup1\n      dup4\n      gt\n      tag_43\n      jumpi\n      dup3\n      swap1\n      sub\n      0x1f\n      and\n      dup3\n      add\n      swap2\n    tag_41:\n      pop\n      pop\n      pop\n      pop\n      pop\n      swap1\n      dup1\n      0x01\n      add\n      dup1\n      sload\n      tag_44\n      swap1\n      tag_25\n      jump\t// in\n    tag_44:\n      dup1\n      0x1f\n      add\n      0x20\n      dup1\n      swap2\n      div\n      mul\n      0x20\n      add\n      mload(0x40)\n      swap1\n      dup2\n      add\n      0x40\n      mstore\n      dup1\n      swap3\n      swap2\n      swap1\n      dup2\n      dup2\n      mstore\n      0x20\n      add\n      dup3\n      dup1\n      sload\n      tag_45\n      swap1\n      tag_25\n      jump\t// in\n    tag_45:\n      dup1\n      iszero\n      tag_46\n      jumpi\n      dup1\n      0x1f\n      lt\n      tag_47\n      jumpi\n      0x0100\n      dup1\n      dup4\n      sload\n      div\n      mul\n      dup4\n      mstore\n      swap2\n      0x20\n      add\n      swap2\n      jump(tag_46)\n    tag_47:\n      dup3\n      add\n      swap2\n      swap1\n      0x00\n      mstore\n      keccak256(0x00, 0x20)\n      swap1\n    tag_48:\n      dup2\n      sload\n      dup2\n      mstore\n      swap1\n      0x01\n      add\n      swap1\n      0x20\n      add\n      dup1\n      dup4\n      gt\n      tag_48\n      jumpi\n      dup3\n      swap1\n      sub\n      0x1f\n      and\n      dup3\n      add\n      swap2\n    tag_46:\n      pop\n      pop\n      pop\n      pop\n      pop\n      swap1\n      pop\n      dup3\n      jump\t// out\n        /* \"StoreType.sol\":1241:1383  function setState(string calldata _name, string calldata _gender) external {... */\n    tag_22:\n        /* \"StoreType.sol\":1339:1344  _name */\n      dup4\n      dup4\n        /* \"StoreType.sol\":1326:1331  state */\n      0x00\n        /* \"StoreType.sol\":1326:1336  state.name */\n      dup1\n      add\n        /* \"StoreType.sol\":1326:1344  state.name = _name */\n      swap2\n      dup3\n      tag_50\n      swap3\n      swap2\n      swap1\n      tag_51\n      jump\t// in\n    tag_50:\n      pop\n        /* \"StoreType.sol\":1369:1376  _gender */\n      dup2\n      dup2\n        /* \"StoreType.sol\":1354:1359  state */\n      0x00\n        /* \"StoreType.sol\":1354:1366  state.gender */\n      0x01\n      add\n        /* \"StoreType.sol\":1354:1376  state.gender = _gender */\n      swap2\n      dup3\n      tag_52\n      swap3\n      swap2\n      swap1\n      tag_51\n      jump\t// in\n    tag_52:\n      pop\n        /* \"StoreType.sol\":1241:1383  function setState(string calldata _name, string calldata _gender) external {... */\n      pop\n      pop\n      pop\n      pop\n      jump\t// out\n        /* \"#utility.yul\":7:106   */\n    tag_53:\n        /* \"#utility.yul\":59:65   */\n      0x00\n        /* \"#utility.yul\":93:98   */\n      dup2\n        /* \"#utility.yul\":87:99   */\n      mload\n        /* \"#utility.yul\":77:99   */\n      swap1\n      pop\n        /* \"#utility.yul\":7:106   */\n      swap2\n      swap1\n      pop\n      jump\t// out\n        /* \"#utility.yul\":112:281   */\n    tag_54:\n        /* \"#utility.yul\":196:207   */\n      0x00\n        /* \"#utility.yul\":230:236   */\n      dup3\n        /* \"#utility.yul\":225:228   */\n      dup3\n        /* \"#utility.yul\":218:237   */\n      mstore\n        /* \"#utility.yul\":270:274   */\n      0x20\n        /* \"#utility.yul\":265:268   */\n      dup3\n        /* \"#utility.yul\":261:275   */\n      add\n        /* \"#utility.yul\":246:275   */\n      swap1\n      pop\n        /* \"#utility.yul\":112:281   */\n      swap3\n      swap2\n      pop\n      pop\n      jump\t// out\n        /* \"#utility.yul\":287:426   */\n    tag_55:\n        /* \"#utility.yul\":376:382   */\n      dup3\n        /* \"#utility.yul\":371:374   */\n      dup2\n        /* \"#utility.yul\":366:369   */\n      dup4\n        /* \"#utility.yul\":360:383   */\n      mcopy\n        /* \"#utility.yul\":417:418   */\n      0x00\n        /* \"#utility.yul\":408:414   */\n      dup4\n        /* \"#utility.yul\":403:406   */\n      dup4\n        /* \"#utility.yul\":399:415   */\n      add\n        /* \"#utility.yul\":392:419   */\n      mstore\n        /* \"#utility.yul\":287:426   */\n      pop\n      pop\n      pop\n      jump\t// out\n        /* \"#utility.yul\":432:534   */\n    tag_56:\n        /* \"#utility.yul\":473:479   */\n      0x00\n        /* \"#utility.yul\":524:526   */\n      0x1f\n        /* \"#utility.yul\":520:527   */\n      not\n        /* \"#utility.yul\":515:517   */\n      0x1f\n        /* \"#utility.yul\":508:513   */\n      dup4\n        /* \"#utility.yul\":504:518   */\n      add\n        /* \"#utility.yul\":500:528   */\n      and\n        /* \"#utility.yul\":490:528   */\n      swap1\n      pop\n        /* \"#utility.yul\":432:534   */\n      swap2\n      swap1\n      pop\n      jump\t// out\n        /* \"#utility.yul\":540:917   */\n    tag_57:\n        /* \"#utility.yul\":628:631   */\n      0x00\n        /* \"#utility.yul\":656:695   */\n      tag_94\n        /* \"#utility.yul\":689:694   */\n      dup3\n        /* \"#utility.yul\":656:695   */\n      tag_53\n      jump\t// in\n    tag_94:\n        /* \"#utility.yul\":711:782   */\n      tag_95\n        /* \"#utility.yul\":775:781   */\n      dup2\n        /* \"#utility.yul\":770:773   */\n      dup6\n        /* \"#utility.yul\":711:782   */\n      tag_54\n      jump\t// in\n    tag_95:\n        /* \"#utility.yul\":704:782   */\n      swap4\n      pop\n        /* \"#utility.yul\":791:856   */\n      tag_96\n        /* \"#utility.yul\":849:855   */\n      dup2\n        /* \"#utility.yul\":844:847   */\n      dup6\n        /* \"#utility.yul\":837:841   */\n      0x20\n        /* \"#utility.yul\":830:835   */\n      dup7\n        /* \"#utility.yul\":826:842   */\n      add\n        /* \"#utility.yul\":791:856   */\n      tag_55\n      jump\t// in\n    tag_96:\n        /* \"#utility.yul\":881:910   */\n      tag_97\n        /* \"#utility.yul\":903:909   */\n      dup2\n        /* \"#utility.yul\":881:910   */\n      tag_56\n      jump\t// in\n    tag_97:\n        /* \"#utility.yul\":876:879   */\n      dup5\n        /* \"#utility.yul\":872:911   */\n      add\n        /* \"#utility.yul\":865:911   */\n      swap2\n      pop\n        /* \"#utility.yul\":632:917   */\n      pop\n        /* \"#utility.yul\":540:917   */\n      swap3\n      swap2\n      pop\n      pop\n      jump\t// out\n        /* \"#utility.yul\":923:1236   */\n    tag_10:\n        /* \"#utility.yul\":1036:1040   */\n      0x00\n        /* \"#utility.yul\":1074:1076   */\n      0x20\n        /* \"#utility.yul\":1063:1072   */\n      dup3\n        /* \"#utility.yul\":1059:1077   */\n      add\n        /* \"#utility.yul\":1051:1077   */\n      swap1\n      pop\n        /* \"#utility.yul\":1123:1132   */\n      dup2\n        /* \"#utility.yul\":1117:1121   */\n      dup2\n        /* \"#utility.yul\":1113:1133   */\n      sub\n        /* \"#utility.yul\":1109:1110   */\n      0x00\n        /* \"#utility.yul\":1098:1107   */\n      dup4\n        /* \"#utility.yul\":1094:1111   */\n      add\n        /* \"#utility.yul\":1087:1134   */\n      mstore\n        /* \"#utility.yul\":1151:1229   */\n      tag_99\n        /* \"#utility.yul\":1224:1228   */\n      dup2\n        /* \"#utility.yul\":1215:1221   */\n      dup5\n        /* \"#utility.yul\":1151:1229   */\n      tag_57\n      jump\t// in\n    tag_99:\n        /* \"#utility.yul\":1143:1229   */\n      swap1\n      pop\n        /* \"#utility.yul\":923:1236   */\n      swap3\n      swap2\n      pop\n      pop\n      jump\t// out\n        /* \"#utility.yul\":1323:1440   */\n    tag_59:\n        /* \"#utility.yul\":1432:1433   */\n      0x00\n        /* \"#utility.yul\":1429:1430   */\n      dup1\n        /* \"#utility.yul\":1422:1434   */\n      revert\n        /* \"#utility.yul\":1446:1563   */\n    tag_60:\n        /* \"#utility.yul\":1555:1556   */\n      0x00\n        /* \"#utility.yul\":1552:1553   */\n      dup1\n        /* \"#utility.yul\":1545:1557   */\n      revert\n        /* \"#utility.yul\":1569:1646   */\n    tag_61:\n        /* \"#utility.yul\":1606:1613   */\n      0x00\n        /* \"#utility.yul\":1635:1640   */\n      dup2\n        /* \"#utility.yul\":1624:1640   */\n      swap1\n      pop\n        /* \"#utility.yul\":1569:1646   */\n      swap2\n      swap1\n      pop\n      jump\t// out\n        /* \"#utility.yul\":1652:1774   */\n    tag_62:\n        /* \"#utility.yul\":1725:1749   */\n      tag_105\n        /* \"#utility.yul\":1743:1748   */\n      dup2\n        /* \"#utility.yul\":1725:1749   */\n      tag_61\n      jump\t// in\n    tag_105:\n        /* \"#utility.yul\":1718:1723   */\n      dup2\n        /* \"#utility.yul\":1715:1750   */\n      eq\n        /* \"#utility.yul\":1705:1768   */\n      tag_106\n      jumpi\n        /* \"#utility.yul\":1764:1765   */\n      0x00\n        /* \"#utility.yul\":1761:1762   */\n      dup1\n        /* \"#utility.yul\":1754:1766   */\n      revert\n        /* \"#utility.yul\":1705:1768   */\n    tag_106:\n        /* \"#utility.yul\":1652:1774   */\n      pop\n      jump\t// out\n        /* \"#utility.yul\":1780:1919   */\n    tag_63:\n        /* \"#utility.yul\":1826:1831   */\n      0x00\n        /* \"#utility.yul\":1864:1870   */\n      dup2\n        /* \"#utility.yul\":1851:1871   */\n      calldataload\n        /* \"#utility.yul\":1842:1871   */\n      swap1\n      pop\n        /* \"#utility.yul\":1880:1913   */\n      tag_108\n        /* \"#utility.yul\":1907:1912   */\n      dup2\n        /* \"#utility.yul\":1880:1913   */\n      tag_62\n      jump\t// in\n    tag_108:\n        /* \"#utility.yul\":1780:1919   */\n      swap3\n      swap2\n      pop\n      pop\n      jump\t// out\n        /* \"#utility.yul\":1925:2254   */\n    tag_13:\n        /* \"#utility.yul\":1984:1990   */\n      0x00\n        /* \"#utility.yul\":2033:2035   */\n      0x20\n        /* \"#utility.yul\":2021:2030   */\n      dup3\n        /* \"#utility.yul\":2012:2019   */\n      dup5\n        /* \"#utility.yul\":2008:2031   */\n      sub\n        /* \"#utility.yul\":2004:2036   */\n      slt\n        /* \"#utility.yul\":2001:2120   */\n      iszero\n      tag_110\n      jumpi\n        /* \"#utility.yul\":2039:2118   */\n      tag_111\n      tag_59\n      jump\t// in\n    tag_111:\n        /* \"#utility.yul\":2001:2120   */\n    tag_110:\n        /* \"#utility.yul\":2159:2160   */\n      0x00\n        /* \"#utility.yul\":2184:2237   */\n      tag_112\n        /* \"#utility.yul\":2229:2236   */\n      dup5\n        /* \"#utility.yul\":2220:2226   */\n      dup3\n        /* \"#utility.yul\":2209:2218   */\n      dup6\n        /* \"#utility.yul\":2205:2227   */\n      add\n        /* \"#utility.yul\":2184:2237   */\n      tag_63\n      jump\t// in\n    tag_112:\n        /* \"#utility.yul\":2174:2237   */\n      swap2\n      pop\n        /* \"#utility.yul\":2130:2247   */\n      pop\n        /* \"#utility.yul\":1925:2254   */\n      swap3\n      swap2\n      pop\n      pop\n      jump\t// out\n        /* \"#utility.yul\":2260:2774   */\n    tag_18:\n        /* \"#utility.yul\":2421:2425   */\n      0x00\n        /* \"#utility.yul\":2459:2461   */\n      0x40\n        /* \"#utility.yul\":2448:2457   */\n      dup3\n        /* \"#utility.yul\":2444:2462   */\n      add\n        /* \"#utility.yul\":2436:2462   */\n      swap1\n      pop\n        /* \"#utility.yul\":2508:2517   */\n      dup2\n        /* \"#utility.yul\":2502:2506   */\n      dup2\n        /* \"#utility.yul\":2498:2518   */\n      sub\n        /* \"#utility.yul\":2494:2495   */\n      0x00\n        /* \"#utility.yul\":2483:2492   */\n      dup4\n        /* \"#utility.yul\":2479:2496   */\n      add\n        /* \"#utility.yul\":2472:2519   */\n      mstore\n        /* \"#utility.yul\":2536:2614   */\n      tag_114\n        /* \"#utility.yul\":2609:2613   */\n      dup2\n        /* \"#utility.yul\":2600:2606   */\n      dup6\n        /* \"#utility.yul\":2536:2614   */\n      tag_57\n      jump\t// in\n    tag_114:\n        /* \"#utility.yul\":2528:2614   */\n      swap1\n      pop\n        /* \"#utility.yul\":2661:2670   */\n      dup2\n        /* \"#utility.yul\":2655:2659   */\n      dup2\n        /* \"#utility.yul\":2651:2671   */\n      sub\n        /* \"#utility.yul\":2646:2648   */\n      0x20\n        /* \"#utility.yul\":2635:2644   */\n      dup4\n        /* \"#utility.yul\":2631:2649   */\n      add\n        /* \"#utility.yul\":2624:2672   */\n      mstore\n        /* \"#utility.yul\":2689:2767   */\n      tag_115\n        /* \"#utility.yul\":2762:2766   */\n      dup2\n        /* \"#utility.yul\":2753:2759   */\n      dup5\n        /* \"#utility.yul\":2689:2767   */\n      tag_57\n      jump\t// in\n    tag_115:\n        /* \"#utility.yul\":2681:2767   */\n      swap1\n      pop\n        /* \"#utility.yul\":2260:2774   */\n      swap4\n      swap3\n      pop\n      pop\n      pop\n      jump\t// out\n        /* \"#utility.yul\":2780:2897   */\n    tag_64:\n        /* \"#utility.yul\":2889:2890   */\n      0x00\n        /* \"#utility.yul\":2886:2887   */\n      dup1\n        /* \"#utility.yul\":2879:2891   */\n      revert\n        /* \"#utility.yul\":2903:3020   */\n    tag_65:\n        /* \"#utility.yul\":3012:3013   */\n      0x00\n        /* \"#utility.yul\":3009:3010   */\n      dup1\n        /* \"#utility.yul\":3002:3014   */\n      revert\n        /* \"#utility.yul\":3026:3143   */\n    tag_66:\n        /* \"#utility.yul\":3135:3136   */\n      0x00\n        /* \"#utility.yul\":3132:3133   */\n      dup1\n        /* \"#utility.yul\":3125:3137   */\n      revert\n        /* \"#utility.yul\":3163:3716   */\n    tag_67:\n        /* \"#utility.yul\":3221:3229   */\n      0x00\n        /* \"#utility.yul\":3231:3237   */\n      dup1\n        /* \"#utility.yul\":3281:3284   */\n      dup4\n        /* \"#utility.yul\":3274:3278   */\n      0x1f\n        /* \"#utility.yul\":3266:3272   */\n      dup5\n        /* \"#utility.yul\":3262:3279   */\n      add\n        /* \"#utility.yul\":3258:3285   */\n      slt\n        /* \"#utility.yul\":3248:3370   */\n      tag_120\n      jumpi\n        /* \"#utility.yul\":3289:3368   */\n      tag_121\n      tag_64\n      jump\t// in\n    tag_121:\n        /* \"#utility.yul\":3248:3370   */\n    tag_120:\n        /* \"#utility.yul\":3402:3408   */\n      dup3\n        /* \"#utility.yul\":3389:3409   */\n      calldataload\n        /* \"#utility.yul\":3379:3409   */\n      swap1\n      pop\n        /* \"#utility.yul\":3432:3450   */\n      0xffffffffffffffff\n        /* \"#utility.yul\":3424:3430   */\n      dup2\n        /* \"#utility.yul\":3421:3451   */\n      gt\n        /* \"#utility.yul\":3418:3535   */\n      iszero\n      tag_122\n      jumpi\n        /* \"#utility.yul\":3454:3533   */\n      tag_123\n      tag_65\n      jump\t// in\n    tag_123:\n        /* \"#utility.yul\":3418:3535   */\n    tag_122:\n        /* \"#utility.yul\":3568:3572   */\n      0x20\n        /* \"#utility.yul\":3560:3566   */\n      dup4\n        /* \"#utility.yul\":3556:3573   */\n      add\n        /* \"#utility.yul\":3544:3573   */\n      swap2\n      pop\n        /* \"#utility.yul\":3622:3625   */\n      dup4\n        /* \"#utility.yul\":3614:3618   */\n      0x01\n        /* \"#utility.yul\":3606:3612   */\n      dup3\n        /* \"#utility.yul\":3602:3619   */\n      mul\n        /* \"#utility.yul\":3592:3600   */\n      dup4\n        /* \"#utility.yul\":3588:3620   */\n      add\n        /* \"#utility.yul\":3585:3626   */\n      gt\n        /* \"#utility.yul\":3582:3710   */\n      iszero\n      tag_124\n      jumpi\n        /* \"#utility.yul\":3629:3708   */\n      tag_125\n      tag_66\n      jump\t// in\n    tag_125:\n        /* \"#utility.yul\":3582:3710   */\n    tag_124:\n        /* \"#utility.yul\":3163:3716   */\n      swap3\n      pop\n      swap3\n      swap1\n      pop\n      jump\t// out\n        /* \"#utility.yul\":3722:4596   */\n    tag_21:\n        /* \"#utility.yul\":3814:3820   */\n      0x00\n        /* \"#utility.yul\":3822:3828   */\n      dup1\n        /* \"#utility.yul\":3830:3836   */\n      0x00\n        /* \"#utility.yul\":3838:3844   */\n      dup1\n        /* \"#utility.yul\":3887:3889   */\n      0x40\n        /* \"#utility.yul\":3875:3884   */\n      dup6\n        /* \"#utility.yul\":3866:3873   */\n      dup8\n        /* \"#utility.yul\":3862:3885   */\n      sub\n        /* \"#utility.yul\":3858:3890   */\n      slt\n        /* \"#utility.yul\":3855:3974   */\n      iszero\n      tag_127\n      jumpi\n        /* \"#utility.yul\":3893:3972   */\n      tag_128\n      tag_59\n      jump\t// in\n    tag_128:\n        /* \"#utility.yul\":3855:3974   */\n    tag_127:\n        /* \"#utility.yul\":4041:4042   */\n      0x00\n        /* \"#utility.yul\":4030:4039   */\n      dup6\n        /* \"#utility.yul\":4026:4043   */\n      add\n        /* \"#utility.yul\":4013:4044   */\n      calldataload\n        /* \"#utility.yul\":4071:4089   */\n      0xffffffffffffffff\n        /* \"#utility.yul\":4063:4069   */\n      dup2\n        /* \"#utility.yul\":4060:4090   */\n      gt\n        /* \"#utility.yul\":4057:4174   */\n      iszero\n      tag_129\n      jumpi\n        /* \"#utility.yul\":4093:4172   */\n      tag_130\n      tag_60\n      jump\t// in\n    tag_130:\n        /* \"#utility.yul\":4057:4174   */\n    tag_129:\n        /* \"#utility.yul\":4206:4271   */\n      tag_131\n        /* \"#utility.yul\":4263:4270   */\n      dup8\n        /* \"#utility.yul\":4254:4260   */\n      dup3\n        /* \"#utility.yul\":4243:4252   */\n      dup9\n        /* \"#utility.yul\":4239:4261   */\n      add\n        /* \"#utility.yul\":4206:4271   */\n      tag_67\n      jump\t// in\n    tag_131:\n        /* \"#utility.yul\":4188:4271   */\n      swap5\n      pop\n      swap5\n      pop\n        /* \"#utility.yul\":3984:4281   */\n      pop\n        /* \"#utility.yul\":4348:4350   */\n      0x20\n        /* \"#utility.yul\":4337:4346   */\n      dup6\n        /* \"#utility.yul\":4333:4351   */\n      add\n        /* \"#utility.yul\":4320:4352   */\n      calldataload\n        /* \"#utility.yul\":4379:4397   */\n      0xffffffffffffffff\n        /* \"#utility.yul\":4371:4377   */\n      dup2\n        /* \"#utility.yul\":4368:4398   */\n      gt\n        /* \"#utility.yul\":4365:4482   */\n      iszero\n      tag_132\n      jumpi\n        /* \"#utility.yul\":4401:4480   */\n      tag_133\n      tag_60\n      jump\t// in\n    tag_133:\n        /* \"#utility.yul\":4365:4482   */\n    tag_132:\n        /* \"#utility.yul\":4514:4579   */\n      tag_134\n        /* \"#utility.yul\":4571:4578   */\n      dup8\n        /* \"#utility.yul\":4562:4568   */\n      dup3\n        /* \"#utility.yul\":4551:4560   */\n      dup9\n        /* \"#utility.yul\":4547:4569   */\n      add\n        /* \"#utility.yul\":4514:4579   */\n      tag_67\n      jump\t// in\n    tag_134:\n        /* \"#utility.yul\":4496:4579   */\n      swap3\n      pop\n      swap3\n      pop\n        /* \"#utility.yul\":4291:4589   */\n      pop\n        /* \"#utility.yul\":3722:4596   */\n      swap3\n      swap6\n      swap2\n      swap5\n      pop\n      swap3\n      pop\n      jump\t// out\n        /* \"#utility.yul\":4602:4782   */\n    tag_68:\n        /* \"#utility.yul\":4650:4727   */\n      0x4e487b7100000000000000000000000000000000000000000000000000000000\n        /* \"#utility.yul\":4647:4648   */\n      0x00\n        /* \"#utility.yul\":4640:4728   */\n      mstore\n        /* \"#utility.yul\":4747:4751   */\n      0x22\n        /* \"#utility.yul\":4744:4745   */\n      0x04\n        /* \"#utility.yul\":4737:4752   */\n      mstore\n        /* \"#utility.yul\":4771:4775   */\n      0x24\n        /* \"#utility.yul\":4768:4769   */\n      0x00\n        /* \"#utility.yul\":4761:4776   */\n      revert\n        /* \"#utility.yul\":4788:5108   */\n    tag_25:\n        /* \"#utility.yul\":4832:4838   */\n      0x00\n        /* \"#utility.yul\":4869:4870   */\n      0x02\n        /* \"#utility.yul\":4863:4867   */\n      dup3\n        /* \"#utility.yul\":4859:4871   */\n      div\n        /* \"#utility.yul\":4849:4871   */\n      swap1\n      pop\n        /* \"#utility.yul\":4916:4917   */\n      0x01\n        /* \"#utility.yul\":4910:4914   */\n      dup3\n        /* \"#utility.yul\":4906:4918   */\n      and\n        /* \"#utility.yul\":4937:4955   */\n      dup1\n        /* \"#utility.yul\":4927:5008   */\n      tag_137\n      jumpi\n        /* \"#utility.yul\":4993:4997   */\n      0x7f\n        /* \"#utility.yul\":4985:4991   */\n      dup3\n        /* \"#utility.yul\":4981:4998   */\n      and\n        /* \"#utility.yul\":4971:4998   */\n      swap2\n      pop\n        /* \"#utility.yul\":4927:5008   */\n    tag_137:\n        /* \"#utility.yul\":5055:5057   */\n      0x20\n        /* \"#utility.yul\":5047:5053   */\n      dup3\n        /* \"#utility.yul\":5044:5058   */\n      lt\n        /* \"#utility.yul\":5024:5042   */\n      dup2\n        /* \"#utility.yul\":5021:5059   */\n      sub\n        /* \"#utility.yul\":5018:5102   */\n      tag_138\n      jumpi\n        /* \"#utility.yul\":5074:5092   */\n      tag_139\n      tag_68\n      jump\t// in\n    tag_139:\n        /* \"#utility.yul\":5018:5102   */\n    tag_138:\n        /* \"#utility.yul\":4839:5108   */\n      pop\n        /* \"#utility.yul\":4788:5108   */\n      swap2\n      swap1\n      pop\n      jump\t// out\n        /* \"#utility.yul\":5114:5328   */\n    tag_69:\n        /* \"#utility.yul\":5254:5320   */\n      0xe8be93e585a5e99499e8afaf0000000000000000000000000000000000000000\n        /* \"#utility.yul\":5250:5251   */\n      0x00\n        /* \"#utility.yul\":5242:5248   */\n      dup3\n        /* \"#utility.yul\":5238:5252   */\n      add\n        /* \"#utility.yul\":5231:5321   */\n      mstore\n        /* \"#utility.yul\":5114:5328   */\n      pop\n      jump\t// out\n        /* \"#utility.yul\":5334:5700   */\n    tag_70:\n        /* \"#utility.yul\":5476:5479   */\n      0x00\n        /* \"#utility.yul\":5497:5564   */\n      tag_142\n        /* \"#utility.yul\":5561:5563   */\n      0x0c\n        /* \"#utility.yul\":5556:5559   */\n      dup4\n        /* \"#utility.yul\":5497:5564   */\n      tag_54\n      jump\t// in\n    tag_142:\n        /* \"#utility.yul\":5490:5564   */\n      swap2\n      pop\n        /* \"#utility.yul\":5573:5666   */\n      tag_143\n        /* \"#utility.yul\":5662:5665   */\n      dup3\n        /* \"#utility.yul\":5573:5666   */\n      tag_69\n      jump\t// in\n    tag_143:\n        /* \"#utility.yul\":5691:5693   */\n      0x20\n        /* \"#utility.yul\":5686:5689   */\n      dup3\n        /* \"#utility.yul\":5682:5694   */\n      add\n        /* \"#utility.yul\":5675:5694   */\n      swap1\n      pop\n        /* \"#utility.yul\":5334:5700   */\n      swap2\n      swap1\n      pop\n      jump\t// out\n        /* \"#utility.yul\":5706:6125   */\n    tag_34:\n        /* \"#utility.yul\":5872:5876   */\n      0x00\n        /* \"#utility.yul\":5910:5912   */\n      0x20\n        /* \"#utility.yul\":5899:5908   */\n      dup3\n        /* \"#utility.yul\":5895:5913   */\n      add\n        /* \"#utility.yul\":5887:5913   */\n      swap1\n      pop\n        /* \"#utility.yul\":5959:5968   */\n      dup2\n        /* \"#utility.yul\":5953:5957   */\n      dup2\n        /* \"#utility.yul\":5949:5969   */\n      sub\n        /* \"#utility.yul\":5945:5946   */\n      0x00\n        /* \"#utility.yul\":5934:5943   */\n      dup4\n        /* \"#utility.yul\":5930:5947   */\n      add\n        /* \"#utility.yul\":5923:5970   */\n      mstore\n        /* \"#utility.yul\":5987:6118   */\n      tag_145\n        /* \"#utility.yul\":6113:6117   */\n      dup2\n        /* \"#utility.yul\":5987:6118   */\n      tag_70\n      jump\t// in\n    tag_145:\n        /* \"#utility.yul\":5979:6118   */\n      swap1\n      pop\n        /* \"#utility.yul\":5706:6125   */\n      swap2\n      swap1\n      pop\n      jump\t// out\n        /* \"#utility.yul\":6131:6311   */\n    tag_71:\n        /* \"#utility.yul\":6179:6256   */\n      0x4e487b7100000000000000000000000000000000000000000000000000000000\n        /* \"#utility.yul\":6176:6177   */\n      0x00\n        /* \"#utility.yul\":6169:6257   */\n      mstore\n        /* \"#utility.yul\":6276:6280   */\n      0x41\n        /* \"#utility.yul\":6273:6274   */\n      0x04\n        /* \"#utility.yul\":6266:6281   */\n      mstore\n        /* \"#utility.yul\":6300:6304   */\n      0x24\n        /* \"#utility.yul\":6297:6298   */\n      0x00\n        /* \"#utility.yul\":6290:6305   */\n      revert\n        /* \"#utility.yul\":6317:6458   */\n    tag_72:\n        /* \"#utility.yul\":6366:6370   */\n      0x00\n        /* \"#utility.yul\":6389:6392   */\n      dup2\n        /* \"#utility.yul\":6381:6392   */\n      swap1\n      pop\n        /* \"#utility.yul\":6412:6415   */\n      dup2\n        /* \"#utility.yul\":6409:6410   */\n      0x00\n        /* \"#utility.yul\":6402:6416   */\n      mstore\n        /* \"#utility.yul\":6446:6450   */\n      0x20\n        /* \"#utility.yul\":6443:6444   */\n      0x00\n        /* \"#utility.yul\":6433:6451   */\n      keccak256\n        /* \"#utility.yul\":6425:6451   */\n      swap1\n      pop\n        /* \"#utility.yul\":6317:6458   */\n      swap2\n      swap1\n      pop\n      jump\t// out\n        /* \"#utility.yul\":6464:6557   */\n    tag_73:\n        /* \"#utility.yul\":6501:6507   */\n      0x00\n        /* \"#utility.yul\":6548:6550   */\n      0x20\n        /* \"#utility.yul\":6543:6545   */\n      0x1f\n        /* \"#utility.yul\":6536:6541   */\n      dup4\n        /* \"#utility.yul\":6532:6546   */\n      add\n        /* \"#utility.yul\":6528:6551   */\n      div\n        /* \"#utility.yul\":6518:6551   */\n      swap1\n      pop\n        /* \"#utility.yul\":6464:6557   */\n      swap2\n      swap1\n      pop\n      jump\t// out\n        /* \"#utility.yul\":6563:6670   */\n    tag_74:\n        /* \"#utility.yul\":6607:6615   */\n      0x00\n        /* \"#utility.yul\":6657:6662   */\n      dup3\n        /* \"#utility.yul\":6651:6655   */\n      dup3\n        /* \"#utility.yul\":6647:6663   */\n      shl\n        /* \"#utility.yul\":6626:6663   */\n      swap1\n      pop\n        /* \"#utility.yul\":6563:6670   */\n      swap3\n      swap2\n      pop\n      pop\n      jump\t// out\n        /* \"#utility.yul\":6676:7069   */\n    tag_75:\n        /* \"#utility.yul\":6745:6751   */\n      0x00\n        /* \"#utility.yul\":6795:6796   */\n      0x08\n        /* \"#utility.yul\":6783:6793   */\n      dup4\n        /* \"#utility.yul\":6779:6797   */\n      mul\n        /* \"#utility.yul\":6818:6915   */\n      tag_151\n        /* \"#utility.yul\":6848:6914   */\n      0xffffffffffffffffffffffffffffffffffffffffffffffffffffffffffffffff\n        /* \"#utility.yul\":6837:6846   */\n      dup3\n        /* \"#utility.yul\":6818:6915   */\n      tag_74\n      jump\t// in\n    tag_151:\n        /* \"#utility.yul\":6936:6975   */\n      tag_152\n        /* \"#utility.yul\":6966:6974   */\n      dup7\n        /* \"#utility.yul\":6955:6964   */\n      dup4\n        /* \"#utility.yul\":6936:6975   */\n      tag_74\n      jump\t// in\n    tag_152:\n        /* \"#utility.yul\":6924:6975   */\n      swap6\n      pop\n        /* \"#utility.yul\":7008:7012   */\n      dup1\n        /* \"#utility.yul\":7004:7013   */\n      not\n        /* \"#utility.yul\":6997:7002   */\n      dup5\n        /* \"#utility.yul\":6993:7014   */\n      and\n        /* \"#utility.yul\":6984:7014   */\n      swap4\n      pop\n        /* \"#utility.yul\":7057:7061   */\n      dup1\n        /* \"#utility.yul\":7047:7055   */\n      dup7\n        /* \"#utility.yul\":7043:7062   */\n      and\n        /* \"#utility.yul\":7036:7041   */\n      dup5\n        /* \"#utility.yul\":7033:7063   */\n      or\n        /* \"#utility.yul\":7023:7063   */\n      swap3\n      pop\n        /* \"#utility.yul\":6752:7069   */\n      pop\n      pop\n        /* \"#utility.yul\":6676:7069   */\n      swap4\n      swap3\n      pop\n      pop\n      pop\n      jump\t// out\n        /* \"#utility.yul\":7075:7135   */\n    tag_76:\n        /* \"#utility.yul\":7103:7106   */\n      0x00\n        /* \"#utility.yul\":7124:7129   */\n      dup2\n        /* \"#utility.yul\":7117:7129   */\n      swap1\n      pop\n        /* \"#utility.yul\":7075:7135   */\n      swap2\n      swap1\n      pop\n      jump\t// out\n        /* \"#utility.yul\":7141:7283   */\n    tag_77:\n        /* \"#utility.yul\":7191:7200   */\n      0x00\n        /* \"#utility.yul\":7224:7277   */\n      tag_155\n        /* \"#utility.yul\":7242:7276   */\n      tag_156\n        /* \"#utility.yul\":7251:7275   */\n      tag_157\n        /* \"#utility.yul\":7269:7274   */\n      dup5\n        /* \"#utility.yul\":7251:7275   */\n      tag_61\n      jump\t// in\n    tag_157:\n        /* \"#utility.yul\":7242:7276   */\n      tag_76\n      jump\t// in\n    tag_156:\n        /* \"#utility.yul\":7224:7277   */\n      tag_61\n      jump\t// in\n    tag_155:\n        /* \"#utility.yul\":7211:7277   */\n      swap1\n      pop\n        /* \"#utility.yul\":7141:7283   */\n      swap2\n      swap1\n      pop\n      jump\t// out\n        /* \"#utility.yul\":7289:7364   */\n    tag_78:\n        /* \"#utility.yul\":7332:7335   */\n      0x00\n        /* \"#utility.yul\":7353:7358   */\n      dup2\n        /* \"#utility.yul\":7346:7358   */\n      swap1\n      pop\n        /* \"#utility.yul\":7289:7364   */\n      swap2\n      swap1\n      pop\n      jump\t// out\n        /* \"#utility.yul\":7370:7639   */\n    tag_79:\n        /* \"#utility.yul\":7480:7519   */\n      tag_160\n        /* \"#utility.yul\":7511:7518   */\n      dup4\n        /* \"#utility.yul\":7480:7519   */\n      tag_77\n      jump\t// in\n    tag_160:\n        /* \"#utility.yul\":7541:7632   */\n      tag_161\n        /* \"#utility.yul\":7590:7631   */\n      tag_162\n        /* \"#utility.yul\":7614:7630   */\n      dup3\n        /* \"#utility.yul\":7590:7631   */\n      tag_78\n      jump\t// in\n    tag_162:\n        /* \"#utility.yul\":7582:7588   */\n      dup5\n        /* \"#utility.yul\":7575:7579   */\n      dup5\n        /* \"#utility.yul\":7569:7580   */\n      sload\n        /* \"#utility.yul\":7541:7632   */\n      tag_75\n      jump\t// in\n    tag_161:\n        /* \"#utility.yul\":7535:7539   */\n      dup3\n        /* \"#utility.yul\":7528:7633   */\n      sstore\n        /* \"#utility.yul\":7446:7639   */\n      pop\n        /* \"#utility.yul\":7370:7639   */\n      pop\n      pop\n      pop\n      jump\t// out\n        /* \"#utility.yul\":7645:7718   */\n    tag_80:\n        /* \"#utility.yul\":7690:7693   */\n      0x00\n        /* \"#utility.yul\":7645:7718   */\n      swap1\n      jump\t// out\n        /* \"#utility.yul\":7724:7913   */\n    tag_81:\n        /* \"#utility.yul\":7801:7833   */\n      tag_165\n      tag_80\n      jump\t// in\n    tag_165:\n        /* \"#utility.yul\":7842:7907   */\n      tag_166\n        /* \"#utility.yul\":7900:7906   */\n      dup2\n        /* \"#utility.yul\":7892:7898   */\n      dup5\n        /* \"#utility.yul\":7886:7890   */\n      dup5\n        /* \"#utility.yul\":7842:7907   */\n      tag_79\n      jump\t// in\n    tag_166:\n        /* \"#utility.yul\":7777:7913   */\n      pop\n        /* \"#utility.yul\":7724:7913   */\n      pop\n      pop\n      jump\t// out\n        /* \"#utility.yul\":7919:8105   */\n    tag_82:\n        /* \"#utility.yul\":7979:8099   */\n    tag_168:\n        /* \"#utility.yul\":7996:7999   */\n      dup2\n        /* \"#utility.yul\":7989:7994   */\n      dup2\n        /* \"#utility.yul\":7986:8000   */\n      lt\n        /* \"#utility.yul\":7979:8099   */\n      iszero\n      tag_170\n      jumpi\n        /* \"#utility.yul\":8050:8089   */\n      tag_171\n        /* \"#utility.yul\":8087:8088   */\n      0x00\n        /* \"#utility.yul\":8080:8085   */\n      dup3\n        /* \"#utility.yul\":8050:8089   */\n      tag_81\n      jump\t// in\n    tag_171:\n        /* \"#utility.yul\":8023:8024   */\n      0x01\n        /* \"#utility.yul\":8016:8021   */\n      dup2\n        /* \"#utility.yul\":8012:8025   */\n      add\n        /* \"#utility.yul\":8003:8025   */\n      swap1\n      pop\n        /* \"#utility.yul\":7979:8099   */\n      jump(tag_168)\n    tag_170:\n        /* \"#utility.yul\":7919:8105   */\n      pop\n      pop\n      jump\t// out\n        /* \"#utility.yul\":8111:8654   */\n    tag_83:\n        /* \"#utility.yul\":8212:8214   */\n      0x1f\n        /* \"#utility.yul\":8207:8210   */\n      dup3\n        /* \"#utility.yul\":8204:8215   */\n      gt\n        /* \"#utility.yul\":8201:8647   */\n      iszero\n      tag_173\n      jumpi\n        /* \"#utility.yul\":8246:8284   */\n      tag_174\n        /* \"#utility.yul\":8278:8283   */\n      dup2\n        /* \"#utility.yul\":8246:8284   */\n      tag_72\n      jump\t// in\n    tag_174:\n        /* \"#utility.yul\":8330:8359   */\n      tag_175\n        /* \"#utility.yul\":8348:8358   */\n      dup5\n        /* \"#utility.yul\":8330:8359   */\n      tag_73\n      jump\t// in\n    tag_175:\n        /* \"#utility.yul\":8320:8328   */\n      dup2\n        /* \"#utility.yul\":8316:8360   */\n      add\n        /* \"#utility.yul\":8513:8515   */\n      0x20\n        /* \"#utility.yul\":8501:8511   */\n      dup6\n        /* \"#utility.yul\":8498:8516   */\n      lt\n        /* \"#utility.yul\":8495:8544   */\n      iszero\n      tag_176\n      jumpi\n        /* \"#utility.yul\":8534:8542   */\n      dup2\n        /* \"#utility.yul\":8519:8542   */\n      swap1\n      pop\n        /* \"#utility.yul\":8495:8544   */\n    tag_176:\n        /* \"#utility.yul\":8557:8637   */\n      tag_177\n        /* \"#utility.yul\":8613:8635   */\n      tag_178\n        /* \"#utility.yul\":8631:8634   */\n      dup6\n        /* \"#utility.yul\":8613:8635   */\n      tag_73\n      jump\t// in\n    tag_178:\n        /* \"#utility.yul\":8603:8611   */\n      dup4\n        /* \"#utility.yul\":8599:8636   */\n      add\n        /* \"#utility.yul\":8586:8597   */\n      dup3\n        /* \"#utility.yul\":8557:8637   */\n      tag_82\n      jump\t// in\n    tag_177:\n        /* \"#utility.yul\":8216:8647   */\n      pop\n      pop\n        /* \"#utility.yul\":8201:8647   */\n    tag_173:\n        /* \"#utility.yul\":8111:8654   */\n      pop\n      pop\n      pop\n      jump\t// out\n        /* \"#utility.yul\":8660:8777   */\n    tag_84:\n        /* \"#utility.yul\":8714:8722   */\n      0x00\n        /* \"#utility.yul\":8764:8769   */\n      dup3\n        /* \"#utility.yul\":8758:8762   */\n      dup3\n        /* \"#utility.yul\":8754:8770   */\n      shr\n        /* \"#utility.yul\":8733:8770   */\n      swap1\n      pop\n        /* \"#utility.yul\":8660:8777   */\n      swap3\n      swap2\n      pop\n      pop\n      jump\t// out\n        /* \"#utility.yul\":8783:8952   */\n    tag_85:\n        /* \"#utility.yul\":8827:8833   */\n      0x00\n        /* \"#utility.yul\":8860:8911   */\n      tag_181\n        /* \"#utility.yul\":8908:8909   */\n      0x00\n        /* \"#utility.yul\":8904:8910   */\n      not\n        /* \"#utility.yul\":8896:8901   */\n      dup5\n        /* \"#utility.yul\":8893:8894   */\n      0x08\n        /* \"#utility.yul\":8889:8902   */\n      mul\n        /* \"#utility.yul\":8860:8911   */\n      tag_84\n      jump\t// in\n    tag_181:\n        /* \"#utility.yul\":8856:8912   */\n      not\n        /* \"#utility.yul\":8941:8945   */\n      dup1\n        /* \"#utility.yul\":8935:8939   */\n      dup4\n        /* \"#utility.yul\":8931:8946   */\n      and\n        /* \"#utility.yul\":8921:8946   */\n      swap2\n      pop\n        /* \"#utility.yul\":8834:8952   */\n      pop\n        /* \"#utility.yul\":8783:8952   */\n      swap3\n      swap2\n      pop\n      pop\n      jump\t// out\n        /* \"#utility.yul\":8957:9252   */\n    tag_86:\n        /* \"#utility.yul\":9033:9037   */\n      0x00\n        /* \"#utility.yul\":9179:9208   */\n      tag_183\n        /* \"#utility.yul\":9204:9207   */\n      dup4\n        /* \"#utility.yul\":9198:9202   */\n      dup4\n        /* \"#utility.yul\":9179:9208   */\n      tag_85\n      jump\t// in\n    tag_183:\n        /* \"#utility.yul\":9171:9208   */\n      swap2\n      pop\n        /* \"#utility.yul\":9241:9244   */\n      dup3\n        /* \"#utility.yul\":9238:9239   */\n      0x02\n        /* \"#utility.yul\":9234:9245   */\n      mul\n        /* \"#utility.yul\":9228:9232   */\n      dup3\n        /* \"#utility.yul\":9225:9246   */\n      or\n        /* \"#utility.yul\":9217:9246   */\n      swap1\n      pop\n        /* \"#utility.yul\":8957:9252   */\n      swap3\n      swap2\n      pop\n      pop\n      jump\t// out\n        /* \"#utility.yul\":9257:10652   */\n    tag_38:\n        /* \"#utility.yul\":9374:9411   */\n      tag_185\n        /* \"#utility.yul\":9407:9410   */\n      dup3\n        /* \"#utility.yul\":9374:9411   */\n      tag_53\n      jump\t// in\n    tag_185:\n        /* \"#utility.yul\":9476:9494   */\n      0xffffffffffffffff\n        /* \"#utility.yul\":9468:9474   */\n      dup2\n        /* \"#utility.yul\":9465:9495   */\n      gt\n        /* \"#utility.yul\":9462:9518   */\n      iszero\n      tag_186\n      jumpi\n        /* \"#utility.yul\":9498:9516   */\n      tag_187\n      tag_71\n      jump\t// in\n    tag_187:\n        /* \"#utility.yul\":9462:9518   */\n    tag_186:\n        /* \"#utility.yul\":9542:9580   */\n      tag_188\n        /* \"#utility.yul\":9574:9578   */\n      dup3\n        /* \"#utility.yul\":9568:9579   */\n      sload\n        /* \"#utility.yul\":9542:9580   */\n      tag_25\n      jump\t// in\n    tag_188:\n        /* \"#utility.yul\":9627:9694   */\n      tag_189\n        /* \"#utility.yul\":9687:9693   */\n      dup3\n        /* \"#utility.yul\":9679:9685   */\n      dup3\n        /* \"#utility.yul\":9673:9677   */\n      dup6\n        /* \"#utility.yul\":9627:9694   */\n      tag_83\n      jump\t// in\n    tag_189:\n        /* \"#utility.yul\":9721:9722   */\n      0x00\n        /* \"#utility.yul\":9745:9749   */\n      0x20\n        /* \"#utility.yul\":9732:9749   */\n      swap1\n      pop\n        /* \"#utility.yul\":9777:9779   */\n      0x1f\n        /* \"#utility.yul\":9769:9775   */\n      dup4\n        /* \"#utility.yul\":9766:9780   */\n      gt\n        /* \"#utility.yul\":9794:9795   */\n      0x01\n        /* \"#utility.yul\":9789:10407   */\n      dup2\n      eq\n      tag_191\n      jumpi\n        /* \"#utility.yul\":10451:10452   */\n      0x00\n        /* \"#utility.yul\":10468:10474   */\n      dup5\n        /* \"#utility.yul\":10465:10542   */\n      iszero\n      tag_192\n      jumpi\n        /* \"#utility.yul\":10517:10526   */\n      dup3\n        /* \"#utility.yul\":10512:10515   */\n      dup8\n        /* \"#utility.yul\":10508:10527   */\n      add\n        /* \"#utility.yul\":10502:10528   */\n      mload\n        /* \"#utility.yul\":10493:10528   */\n      swap1\n      pop\n        /* \"#utility.yul\":10465:10542   */\n    tag_192:\n        /* \"#utility.yul\":10568:10635   */\n      tag_193\n        /* \"#utility.yul\":10628:10634   */\n      dup6\n        /* \"#utility.yul\":10621:10626   */\n      dup3\n        /* \"#utility.yul\":10568:10635   */\n      tag_86\n      jump\t// in\n    tag_193:\n        /* \"#utility.yul\":10562:10566   */\n      dup7\n        /* \"#utility.yul\":10555:10636   */\n      sstore\n        /* \"#utility.yul\":10424:10646   */\n      pop\n        /* \"#utility.yul\":9759:10646   */\n      jump(tag_190)\n        /* \"#utility.yul\":9789:10407   */\n    tag_191:\n        /* \"#utility.yul\":9841:9845   */\n      0x1f\n        /* \"#utility.yul\":9837:9846   */\n      not\n        /* \"#utility.yul\":9829:9835   */\n      dup5\n        /* \"#utility.yul\":9825:9847   */\n      and\n        /* \"#utility.yul\":9875:9912   */\n      tag_194\n        /* \"#utility.yul\":9907:9911   */\n      dup7\n        /* \"#utility.yul\":9875:9912   */\n      tag_72\n      jump\t// in\n    tag_194:\n        /* \"#utility.yul\":9934:9935   */\n      0x00\n        /* \"#utility.yul\":9948:10156   */\n    tag_195:\n        /* \"#utility.yul\":9962:9969   */\n      dup3\n        /* \"#utility.yul\":9959:9960   */\n      dup2\n        /* \"#utility.yul\":9956:9970   */\n      lt\n        /* \"#utility.yul\":9948:10156   */\n      iszero\n      tag_197\n      jumpi\n        /* \"#utility.yul\":10041:10050   */\n      dup5\n        /* \"#utility.yul\":10036:10039   */\n      dup10\n        /* \"#utility.yul\":10032:10051   */\n      add\n        /* \"#utility.yul\":10026:10052   */\n      mload\n        /* \"#utility.yul\":10018:10024   */\n      dup3\n        /* \"#utility.yul\":10011:10053   */\n      sstore\n        /* \"#utility.yul\":10092:10093   */\n      0x01\n        /* \"#utility.yul\":10084:10090   */\n      dup3\n        /* \"#utility.yul\":10080:10094   */\n      add\n        /* \"#utility.yul\":10070:10094   */\n      swap2\n      pop\n        /* \"#utility.yul\":10139:10141   */\n      0x20\n        /* \"#utility.yul\":10128:10137   */\n      dup6\n        /* \"#utility.yul\":10124:10142   */\n      add\n        /* \"#utility.yul\":10111:10142   */\n      swap5\n      pop\n        /* \"#utility.yul\":9985:9989   */\n      0x20\n        /* \"#utility.yul\":9982:9983   */\n      dup2\n        /* \"#utility.yul\":9978:9990   */\n      add\n        /* \"#utility.yul\":9973:9990   */\n      swap1\n      pop\n        /* \"#utility.yul\":9948:10156   */\n      jump(tag_195)\n    tag_197:\n        /* \"#utility.yul\":10184:10190   */\n      dup7\n        /* \"#utility.yul\":10175:10182   */\n      dup4\n        /* \"#utility.yul\":10172:10191   */\n      lt\n        /* \"#utility.yul\":10169:10348   */\n      iszero\n      tag_198\n      jumpi\n        /* \"#utility.yul\":10242:10251   */\n      dup5\n        /* \"#utility.yul\":10237:10240   */\n      dup10\n        /* \"#utility.yul\":10233:10252   */\n      add\n        /* \"#utility.yul\":10227:10253   */\n      mload\n        /* \"#utility.yul\":10285:10333   */\n      tag_199\n        /* \"#utility.yul\":10327:10331   */\n      0x1f\n        /* \"#utility.yul\":10319:10325   */\n      dup10\n        /* \"#utility.yul\":10315:10332   */\n      and\n        /* \"#utility.yul\":10304:10313   */\n      dup3\n        /* \"#utility.yul\":10285:10333   */\n      tag_85\n      jump\t// in\n    tag_199:\n        /* \"#utility.yul\":10277:10283   */\n      dup4\n        /* \"#utility.yul\":10270:10334   */\n      sstore\n        /* \"#utility.yul\":10192:10348   */\n      pop\n        /* \"#utility.yul\":10169:10348   */\n    tag_198:\n        /* \"#utility.yul\":10394:10395   */\n      0x01\n        /* \"#utility.yul\":10390:10391   */\n      0x02\n        /* \"#utility.yul\":10382:10388   */\n      dup9\n        /* \"#utility.yul\":10378:10392   */\n      mul\n        /* \"#utility.yul\":10374:10396   */\n      add\n        /* \"#utility.yul\":10368:10372   */\n      dup9\n        /* \"#utility.yul\":10361:10397   */\n      sstore\n        /* \"#utility.yul\":9796:10407   */\n      pop\n      pop\n      pop\n        /* \"#utility.yul\":9759:10646   */\n    tag_190:\n      pop\n        /* \"#utility.yul\":9349:10652   */\n      pop\n      pop\n      pop\n        /* \"#utility.yul\":9257:10652   */\n      pop\n      pop\n      jump\t// out\n        /* \"#utility.yul\":10658:10755   */\n    tag_87:\n        /* \"#utility.yul\":10717:10723   */\n      0x00\n        /* \"#utility.yul\":10745:10748   */\n      dup3\n        /* \"#utility.yul\":10735:10748   */\n      swap1\n      pop\n        /* \"#utility.yul\":10658:10755   */\n      swap3\n      swap2\n      pop\n      pop\n      jump\t// out\n        /* \"#utility.yul\":10761:12164   */\n    tag_51:\n        /* \"#utility.yul\":10885:10929   */\n      tag_202\n        /* \"#utility.yul\":10925:10928   */\n      dup4\n        /* \"#utility.yul\":10920:10923   */\n      dup4\n        /* \"#utility.yul\":10885:10929   */\n      tag_87\n      jump\t// in\n    tag_202:\n        /* \"#utility.yul\":10994:11012   */\n      0xffffffffffffffff\n        /* \"#utility.yul\":10986:10992   */\n      dup2\n        /* \"#utility.yul\":10983:11013   */\n      gt\n        /* \"#utility.yul\":10980:11036   */\n      iszero\n      tag_203\n      jumpi\n        /* \"#utility.yul\":11016:11034   */\n      tag_204\n      tag_71\n      jump\t// in\n    tag_204:\n        /* \"#utility.yul\":10980:11036   */\n    tag_203:\n        /* \"#utility.yul\":11060:11098   */\n      tag_205\n        /* \"#utility.yul\":11092:11096   */\n      dup3\n        /* \"#utility.yul\":11086:11097   */\n      sload\n        /* \"#utility.yul\":11060:11098   */\n      tag_25\n      jump\t// in\n    tag_205:\n        /* \"#utility.yul\":11145:11212   */\n      tag_206\n        /* \"#utility.yul\":11205:11211   */\n      dup3\n        /* \"#utility.yul\":11197:11203   */\n      dup3\n        /* \"#utility.yul\":11191:11195   */\n      dup6\n        /* \"#utility.yul\":11145:11212   */\n      tag_83\n      jump\t// in\n    tag_206:\n        /* \"#utility.yul\":11239:11240   */\n      0x00\n        /* \"#utility.yul\":11268:11270   */\n      0x1f\n        /* \"#utility.yul\":11260:11266   */\n      dup4\n        /* \"#utility.yul\":11257:11271   */\n      gt\n        /* \"#utility.yul\":11285:11286   */\n      0x01\n        /* \"#utility.yul\":11280:11912   */\n      dup2\n      eq\n      tag_208\n      jumpi\n        /* \"#utility.yul\":11956:11957   */\n      0x00\n        /* \"#utility.yul\":11973:11979   */\n      dup5\n        /* \"#utility.yul\":11970:12054   */\n      iszero\n      tag_209\n      jumpi\n        /* \"#utility.yul\":12029:12038   */\n      dup3\n        /* \"#utility.yul\":12024:12027   */\n      dup8\n        /* \"#utility.yul\":12020:12039   */\n      add\n        /* \"#utility.yul\":12007:12040   */\n      calldataload\n        /* \"#utility.yul\":11998:12040   */\n      swap1\n      pop\n        /* \"#utility.yul\":11970:12054   */\n    tag_209:\n        /* \"#utility.yul\":12080:12147   */\n      tag_210\n        /* \"#utility.yul\":12140:12146   */\n      dup6\n        /* \"#utility.yul\":12133:12138   */\n      dup3\n        /* \"#utility.yul\":12080:12147   */\n      tag_86\n      jump\t// in\n    tag_210:\n        /* \"#utility.yul\":12074:12078   */\n      dup7\n        /* \"#utility.yul\":12067:12148   */\n      sstore\n        /* \"#utility.yul\":11929:12158   */\n      pop\n        /* \"#utility.yul\":11250:12158   */\n      jump(tag_207)\n        /* \"#utility.yul\":11280:11912   */\n    tag_208:\n        /* \"#utility.yul\":11332:11336   */\n      0x1f\n        /* \"#utility.yul\":11328:11337   */\n      not\n        /* \"#utility.yul\":11320:11326   */\n      dup5\n        /* \"#utility.yul\":11316:11338   */\n      and\n        /* \"#utility.yul\":11366:11403   */\n      tag_211\n        /* \"#utility.yul\":11398:11402   */\n      dup7\n        /* \"#utility.yul\":11366:11403   */\n      tag_72\n      jump\t// in\n    tag_211:\n        /* \"#utility.yul\":11425:11426   */\n      0x00\n        /* \"#utility.yul\":11439:11654   */\n    tag_212:\n        /* \"#utility.yul\":11453:11460   */\n      dup3\n        /* \"#utility.yul\":11450:11451   */\n      dup2\n        /* \"#utility.yul\":11447:11461   */\n      lt\n        /* \"#utility.yul\":11439:11654   */\n      iszero\n      tag_214\n      jumpi\n        /* \"#utility.yul\":11539:11548   */\n      dup5\n        /* \"#utility.yul\":11534:11537   */\n      dup10\n        /* \"#utility.yul\":11530:11549   */\n      add\n        /* \"#utility.yul\":11517:11550   */\n      calldataload\n        /* \"#utility.yul\":11509:11515   */\n      dup3\n        /* \"#utility.yul\":11502:11551   */\n      sstore\n        /* \"#utility.yul\":11590:11591   */\n      0x01\n        /* \"#utility.yul\":11582:11588   */\n      dup3\n        /* \"#utility.yul\":11578:11592   */\n      add\n        /* \"#utility.yul\":11568:11592   */\n      swap2\n      pop\n        /* \"#utility.yul\":11637:11639   */\n      0x20\n        /* \"#utility.yul\":11626:11635   */\n      dup6\n        /* \"#utility.yul\":11622:11640   */\n      add\n        /* \"#utility.yul\":11609:11640   */\n      swap5\n      pop\n        /* \"#utility.yul\":11476:11480   */\n      0x20\n        /* \"#utility.yul\":11473:11474   */\n      dup2\n        /* \"#utility.yul\":11469:11481   */\n      add\n        /* \"#utility.yul\":11464:11481   */\n      swap1\n      pop\n        /* \"#utility.yul\":11439:11654   */\n      jump(tag_212)\n    tag_214:\n        /* \"#utility.yul\":11682:11688   */\n      dup7\n        /* \"#utility.yul\":11673:11680   */\n      dup4\n        /* \"#utility.yul\":11670:11689   */\n      lt\n        /* \"#utility.yul\":11667:11853   */\n      iszero\n      tag_215\n      jumpi\n        /* \"#utility.yul\":11747:11756   */\n      dup5\n        /* \"#utility.yul\":11742:11745   */\n      dup10\n        /* \"#utility.yul\":11738:11757   */\n      add\n        /* \"#utility.yul\":11725:11758   */\n      calldataload\n        /* \"#utility.yul\":11790:11838   */\n      tag_216\n        /* \"#utility.yul\":11832:11836   */\n      0x1f\n        /* \"#utility.yul\":11824:11830   */\n      dup10\n        /* \"#utility.yul\":11820:11837   */\n      and\n        /* \"#utility.yul\":11809:11818   */\n      dup3\n        /* \"#utility.yul\":11790:11838   */\n      tag_85\n      jump\t// in\n    tag_216:\n        /* \"#utility.yul\":11782:11788   */\n      dup4\n        /* \"#utility.yul\":11775:11839   */\n      sstore\n        /* \"#utility.yul\":11690:11853   */\n      pop\n        /* \"#utility.yul\":11667:11853   */\n    tag_215:\n        /* \"#utility.yul\":11899:11900   */\n      0x01\n        /* \"#utility.yul\":11895:11896   */\n      0x02\n        /* \"#utility.yul\":11887:11893   */\n      dup9\n        /* \"#utility.yul\":11883:11897   */\n      mul\n        /* \"#utility.yul\":11879:11901   */\n      add\n        /* \"#utility.yul\":11873:11877   */\n      dup9\n        /* \"#utility.yul\":11866:11902   */\n      sstore\n        /* \"#utility.yul\":11287:11912   */\n      pop\n      pop\n      pop\n        /* \"#utility.yul\":11250:12158   */\n    tag_207:\n      pop\n        /* \"#utility.yul\":10860:12164   */\n      pop\n      pop\n      pop\n        /* \"#utility.yul\":10761:12164   */\n      pop\n      pop\n      pop\n      jump\t// out\n\n    auxdata: 0xa26469706673582212202bcf13f93391392b0949cedf8245c48377e9af1700251ce6a0d5334dd13c3b5564736f6c634300081a0033\n}\n",
				"bytecode": {
					"linkReferences": {},
					"object": "6080604052348015600e575f80fd5b506109f48061001c5f395ff3fe608060405234801561000f575f80fd5b506004361061004a575f3560e01c806317d7de7c1461004e578063652296f11461006c578063c19d93fb14610088578063d9038f3c146100a7575b5f80fd5b6100566100c3565b60405161006391906103ef565b60405180910390f35b6100866004803603810190610081919061044a565b610154565b005b610090610236565b60405161009e929190610475565b60405180910390f35b6100c160048036038101906100bc919061050b565b610352565b005b60605f800180546100d3906105b6565b80601f01602080910402602001604051908101604052809291908181526020018280546100ff906105b6565b801561014a5780601f106101215761010080835404028352916020019161014a565b820191905f5260205f20905b81548152906001019060200180831161012d57829003601f168201915b5050505050905090565b5f8114806101625750600181145b6101a1576040517f08c379a000000000000000000000000000000000000000000000000000000000815260040161019890610630565b60405180910390fd5b60605f82036101e7576040518060400160405280600681526020017f66656d616c6500000000000000000000000000000000000000000000000000008152509050610220565b6040518060400160405280600481526020017f6d616c650000000000000000000000000000000000000000000000000000000081525090505b805f60010190816102319190610818565b505050565b5f805f018054610245906105b6565b80601f0160208091040260200160405190810160405280929190818152602001828054610271906105b6565b80156102bc5780601f10610293576101008083540402835291602001916102bc565b820191905f5260205f20905b81548152906001019060200180831161029f57829003601f168201915b5050505050908060010180546102d1906105b6565b80601f01602080910402602001604051908101604052809291908181526020018280546102fd906105b6565b80156103485780601f1061031f57610100808354040283529160200191610348565b820191905f5260205f20905b81548152906001019060200180831161032b57829003601f168201915b5050505050905082565b83835f800191826103649291906108f1565b5081815f60010191826103789291906108f1565b5050505050565b5f81519050919050565b5f82825260208201905092915050565b8281835e5f83830152505050565b5f601f19601f8301169050919050565b5f6103c18261037f565b6103cb8185610389565b93506103db818560208601610399565b6103e4816103a7565b840191505092915050565b5f6020820190508181035f83015261040781846103b7565b905092915050565b5f80fd5b5f80fd5b5f819050919050565b61042981610417565b8114610433575f80fd5b50565b5f8135905061044481610420565b92915050565b5f6020828403121561045f5761045e61040f565b5b5f61046c84828501610436565b91505092915050565b5f6040820190508181035f83015261048d81856103b7565b905081810360208301526104a181846103b7565b90509392505050565b5f80fd5b5f80fd5b5f80fd5b5f8083601f8401126104cb576104ca6104aa565b5b8235905067ffffffffffffffff8111156104e8576104e76104ae565b5b602083019150836001820283011115610504576105036104b2565b5b9250929050565b5f805f80604085870312156105235761052261040f565b5b5f85013567ffffffffffffffff8111156105405761053f610413565b5b61054c878288016104b6565b9450945050602085013567ffffffffffffffff81111561056f5761056e610413565b5b61057b878288016104b6565b925092505092959194509250565b7f4e487b71000000000000000000000000000000000000000000000000000000005f52602260045260245ffd5b5f60028204905060018216806105cd57607f821691505b6020821081036105e0576105df610589565b5b50919050565b7fe8be93e585a5e99499e8afaf00000000000000000000000000000000000000005f82015250565b5f61061a600c83610389565b9150610625826105e6565b602082019050919050565b5f6020820190508181035f8301526106478161060e565b9050919050565b7f4e487b71000000000000000000000000000000000000000000000000000000005f52604160045260245ffd5b5f819050815f5260205f209050919050565b5f6020601f8301049050919050565b5f82821b905092915050565b5f600883026106d77fffffffffffffffffffffffffffffffffffffffffffffffffffffffffffffffff8261069c565b6106e1868361069c565b95508019841693508086168417925050509392505050565b5f819050919050565b5f61071c61071761071284610417565b6106f9565b610417565b9050919050565b5f819050919050565b61073583610702565b61074961074182610723565b8484546106a8565b825550505050565b5f90565b61075d610751565b61076881848461072c565b505050565b5b8181101561078b576107805f82610755565b60018101905061076e565b5050565b601f8211156107d0576107a18161067b565b6107aa8461068d565b810160208510156107b9578190505b6107cd6107c58561068d565b83018261076d565b50505b505050565b5f82821c905092915050565b5f6107f05f19846008026107d5565b1980831691505092915050565b5f61080883836107e1565b9150826002028217905092915050565b6108218261037f565b67ffffffffffffffff81111561083a5761083961064e565b5b61084482546105b6565b61084f82828561078f565b5f60209050601f831160018114610880575f841561086e578287015190505b61087885826107fd565b8655506108df565b601f19841661088e8661067b565b5f5b828110156108b557848901518255600182019150602085019450602081019050610890565b868310156108d257848901516108ce601f8916826107e1565b8355505b6001600288020188555050505b505050505050565b5f82905092915050565b6108fb83836108e7565b67ffffffffffffffff8111156109145761091361064e565b5b61091e82546105b6565b61092982828561078f565b5f601f831160018114610956575f8415610944578287013590505b61094e85826107fd565b8655506109b5565b601f1984166109648661067b565b5f5b8281101561098b57848901358255600182019150602085019450602081019050610966565b868310156109a857848901356109a4601f8916826107e1565b8355505b6001600288020188555050505b5050505050505056fea26469706673582212202bcf13f93391392b0949cedf8245c48377e9af1700251ce6a0d5334dd13c3b5564736f6c634300081a0033",
					"opcodes": "PUSH1 0x80 PUSH1 0x40 MSTORE CALLVALUE DUP1 ISZERO PUSH1 0xE JUMPI PUSH0 DUP1 REVERT JUMPDEST POP PUSH2 0x9F4 DUP1 PUSH2 0x1C PUSH0 CODECOPY PUSH0 RETURN INVALID PUSH1 0x80 PUSH1 0x40 MSTORE CALLVALUE DUP1 ISZERO PUSH2 0xF JUMPI PUSH0 DUP1 REVERT JUMPDEST POP PUSH1 0x4 CALLDATASIZE LT PUSH2 0x4A JUMPI PUSH0 CALLDATALOAD PUSH1 0xE0 SHR DUP1 PUSH4 0x17D7DE7C EQ PUSH2 0x4E JUMPI DUP1 PUSH4 0x652296F1 EQ PUSH2 0x6C JUMPI DUP1 PUSH4 0xC19D93FB EQ PUSH2 0x88 JUMPI DUP1 PUSH4 0xD9038F3C EQ PUSH2 0xA7 JUMPI JUMPDEST PUSH0 DUP1 REVERT JUMPDEST PUSH2 0x56 PUSH2 0xC3 JUMP JUMPDEST PUSH1 0x40 MLOAD PUSH2 0x63 SWAP2 SWAP1 PUSH2 0x3EF JUMP JUMPDEST PUSH1 0x40 MLOAD DUP1 SWAP2 SUB SWAP1 RETURN JUMPDEST PUSH2 0x86 PUSH1 0x4 DUP1 CALLDATASIZE SUB DUP2 ADD SWAP1 PUSH2 0x81 SWAP2 SWAP1 PUSH2 0x44A JUMP JUMPDEST PUSH2 0x154 JUMP JUMPDEST STOP JUMPDEST PUSH2 0x90 PUSH2 0x236 JUMP JUMPDEST PUSH1 0x40 MLOAD PUSH2 0x9E SWAP3 SWAP2 SWAP1 PUSH2 0x475 JUMP JUMPDEST PUSH1 0x40 MLOAD DUP1 SWAP2 SUB SWAP1 RETURN JUMPDEST PUSH2 0xC1 PUSH1 0x4 DUP1 CALLDATASIZE SUB DUP2 ADD SWAP1 PUSH2 0xBC SWAP2 SWAP1 PUSH2 0x50B JUMP JUMPDEST PUSH2 0x352 JUMP JUMPDEST STOP JUMPDEST PUSH1 0x60 PUSH0 DUP1 ADD DUP1 SLOAD PUSH2 0xD3 SWAP1 PUSH2 0x5B6 JUMP JUMPDEST DUP1 PUSH1 0x1F ADD PUSH1 0x20 DUP1 SWAP2 DIV MUL PUSH1 0x20 ADD PUSH1 0x40 MLOAD SWAP1 DUP2 ADD PUSH1 0x40 MSTORE DUP1 SWAP3 SWAP2 SWAP1 DUP2 DUP2 MSTORE PUSH1 0x20 ADD DUP3 DUP1 SLOAD PUSH2 0xFF SWAP1 PUSH2 0x5B6 JUMP JUMPDEST DUP1 ISZERO PUSH2 0x14A JUMPI DUP1 PUSH1 0x1F LT PUSH2 0x121 JUMPI PUSH2 0x100 DUP1 DUP4 SLOAD DIV MUL DUP4 MSTORE SWAP2 PUSH1 0x20 ADD SWAP2 PUSH2 0x14A JUMP JUMPDEST DUP3 ADD SWAP2 SWAP1 PUSH0 MSTORE PUSH1 0x20 PUSH0 KECCAK256 SWAP1 JUMPDEST DUP2 SLOAD DUP2 MSTORE SWAP1 PUSH1 0x1 ADD SWAP1 PUSH1 0x20 ADD DUP1 DUP4 GT PUSH2 0x12D JUMPI DUP3 SWAP1 SUB PUSH1 0x1F AND DUP3 ADD SWAP2 JUMPDEST POP POP POP POP POP SWAP1 POP SWAP1 JUMP JUMPDEST PUSH0 DUP2 EQ DUP1 PUSH2 0x162 JUMPI POP PUSH1 0x1 DUP2 EQ JUMPDEST PUSH2 0x1A1 JUMPI PUSH1 0x40 MLOAD PUSH32 0x8C379A000000000000000000000000000000000000000000000000000000000 DUP2 MSTORE PUSH1 0x4 ADD PUSH2 0x198 SWAP1 PUSH2 0x630 JUMP JUMPDEST PUSH1 0x40 MLOAD DUP1 SWAP2 SUB SWAP1 REVERT JUMPDEST PUSH1 0x60 PUSH0 DUP3 SUB PUSH2 0x1E7 JUMPI PUSH1 0x40 MLOAD DUP1 PUSH1 0x40 ADD PUSH1 0x40 MSTORE DUP1 PUSH1 0x6 DUP2 MSTORE PUSH1 0x20 ADD PUSH32 0x66656D616C650000000000000000000000000000000000000000000000000000 DUP2 MSTORE POP SWAP1 POP PUSH2 0x220 JUMP JUMPDEST PUSH1 0x40 MLOAD DUP1 PUSH1 0x40 ADD PUSH1 0x40 MSTORE DUP1 PUSH1 0x4 DUP2 MSTORE PUSH1 0x20 ADD PUSH32 0x6D616C6500000000000000000000000000000000000000000000000000000000 DUP2 MSTORE POP SWAP1 POP JUMPDEST DUP1 PUSH0 PUSH1 0x1 ADD SWAP1 DUP2 PUSH2 0x231 SWAP2 SWAP1 PUSH2 0x818 JUMP JUMPDEST POP POP POP JUMP JUMPDEST PUSH0 DUP1 PUSH0 ADD DUP1 SLOAD PUSH2 0x245 SWAP1 PUSH2 0x5B6 JUMP JUMPDEST DUP1 PUSH1 0x1F ADD PUSH1 0x20 DUP1 SWAP2 DIV MUL PUSH1 0x20 ADD PUSH1 0x40 MLOAD SWAP1 DUP2 ADD PUSH1 0x40 MSTORE DUP1 SWAP3 SWAP2 SWAP1 DUP2 DUP2 MSTORE PUSH1 0x20 ADD DUP3 DUP1 SLOAD PUSH2 0x271 SWAP1 PUSH2 0x5B6 JUMP JUMPDEST DUP1 ISZERO PUSH2 0x2BC JUMPI DUP1 PUSH1 0x1F LT PUSH2 0x293 JUMPI PUSH2 0x100 DUP1 DUP4 SLOAD DIV MUL DUP4 MSTORE SWAP2 PUSH1 0x20 ADD SWAP2 PUSH2 0x2BC JUMP JUMPDEST DUP3 ADD SWAP2 SWAP1 PUSH0 MSTORE PUSH1 0x20 PUSH0 KECCAK256 SWAP1 JUMPDEST DUP2 SLOAD DUP2 MSTORE SWAP1 PUSH1 0x1 ADD SWAP1 PUSH1 0x20 ADD DUP1 DUP4 GT PUSH2 0x29F JUMPI DUP3 SWAP1 SUB PUSH1 0x1F AND DUP3 ADD SWAP2 JUMPDEST POP POP POP POP POP SWAP1 DUP1 PUSH1 0x1 ADD DUP1 SLOAD PUSH2 0x2D1 SWAP1 PUSH2 0x5B6 JUMP JUMPDEST DUP1 PUSH1 0x1F ADD PUSH1 0x20 DUP1 SWAP2 DIV MUL PUSH1 0x20 ADD PUSH1 0x40 MLOAD SWAP1 DUP2 ADD PUSH1 0x40 MSTORE DUP1 SWAP3 SWAP2 SWAP1 DUP2 DUP2 MSTORE PUSH1 0x20 ADD DUP3 DUP1 SLOAD PUSH2 0x2FD SWAP1 PUSH2 0x5B6 JUMP JUMPDEST DUP1 ISZERO PUSH2 0x348 JUMPI DUP1 PUSH1 0x1F LT PUSH2 0x31F JUMPI PUSH2 0x100 DUP1 DUP4 SLOAD DIV MUL DUP4 MSTORE SWAP2 PUSH1 0x20 ADD SWAP2 PUSH2 0x348 JUMP JUMPDEST DUP3 ADD SWAP2 SWAP1 PUSH0 MSTORE PUSH1 0x20 PUSH0 KECCAK256 SWAP1 JUMPDEST DUP2 SLOAD DUP2 MSTORE SWAP1 PUSH1 0x1 ADD SWAP1 PUSH1 0x20 ADD DUP1 DUP4 GT PUSH2 0x32B JUMPI DUP3 SWAP1 SUB PUSH1 0x1F AND DUP3 ADD SWAP2 JUMPDEST POP POP POP POP POP SWAP1 POP DUP3 JUMP JUMPDEST DUP4 DUP4 PUSH0 DUP1 ADD SWAP2 DUP3 PUSH2 0x364 SWAP3 SWAP2 SWAP1 PUSH2 0x8F1 JUMP JUMPDEST POP DUP2 DUP2 PUSH0 PUSH1 0x1 ADD SWAP2 DUP3 PUSH2 0x378 SWAP3 SWAP2 SWAP1 PUSH2 0x8F1 JUMP JUMPDEST POP POP POP POP POP JUMP JUMPDEST PUSH0 DUP2 MLOAD SWAP1 POP SWAP2 SWAP1 POP JUMP JUMPDEST PUSH0 DUP3 DUP3 MSTORE PUSH1 0x20 DUP3 ADD SWAP1 POP SWAP3 SWAP2 POP POP JUMP JUMPDEST DUP3 DUP2 DUP4 MCOPY PUSH0 DUP4 DUP4 ADD MSTORE POP POP POP JUMP JUMPDEST PUSH0 PUSH1 0x1F NOT PUSH1 0x1F DUP4 ADD AND SWAP1 POP SWAP2 SWAP1 POP JUMP JUMPDEST PUSH0 PUSH2 0x3C1 DUP3 PUSH2 0x37F JUMP JUMPDEST PUSH2 0x3CB DUP2 DUP6 PUSH2 0x389 JUMP JUMPDEST SWAP4 POP PUSH2 0x3DB DUP2 DUP6 PUSH1 0x20 DUP7 ADD PUSH2 0x399 JUMP JUMPDEST PUSH2 0x3E4 DUP2 PUSH2 0x3A7 JUMP JUMPDEST DUP5 ADD SWAP2 POP POP SWAP3 SWAP2 POP POP JUMP JUMPDEST PUSH0 PUSH1 0x20 DUP3 ADD SWAP1 POP DUP2 DUP2 SUB PUSH0 DUP4 ADD MSTORE PUSH2 0x407 DUP2 DUP5 PUSH2 0x3B7 JUMP JUMPDEST SWAP1 POP SWAP3 SWAP2 POP POP JUMP JUMPDEST PUSH0 DUP1 REVERT JUMPDEST PUSH0 DUP1 REVERT JUMPDEST PUSH0 DUP2 SWAP1 POP SWAP2 SWAP1 POP JUMP JUMPDEST PUSH2 0x429 DUP2 PUSH2 0x417 JUMP JUMPDEST DUP2 EQ PUSH2 0x433 JUMPI PUSH0 DUP1 REVERT JUMPDEST POP JUMP JUMPDEST PUSH0 DUP2 CALLDATALOAD SWAP1 POP PUSH2 0x444 DUP2 PUSH2 0x420 JUMP JUMPDEST SWAP3 SWAP2 POP POP JUMP JUMPDEST PUSH0 PUSH1 0x20 DUP3 DUP5 SUB SLT ISZERO PUSH2 0x45F JUMPI PUSH2 0x45E PUSH2 0x40F JUMP JUMPDEST JUMPDEST PUSH0 PUSH2 0x46C DUP5 DUP3 DUP6 ADD PUSH2 0x436 JUMP JUMPDEST SWAP2 POP POP SWAP3 SWAP2 POP POP JUMP JUMPDEST PUSH0 PUSH1 0x40 DUP3 ADD SWAP1 POP DUP2 DUP2 SUB PUSH0 DUP4 ADD MSTORE PUSH2 0x48D DUP2 DUP6 PUSH2 0x3B7 JUMP JUMPDEST SWAP1 POP DUP2 DUP2 SUB PUSH1 0x20 DUP4 ADD MSTORE PUSH2 0x4A1 DUP2 DUP5 PUSH2 0x3B7 JUMP JUMPDEST SWAP1 POP SWAP4 SWAP3 POP POP POP JUMP JUMPDEST PUSH0 DUP1 REVERT JUMPDEST PUSH0 DUP1 REVERT JUMPDEST PUSH0 DUP1 REVERT JUMPDEST PUSH0 DUP1 DUP4 PUSH1 0x1F DUP5 ADD SLT PUSH2 0x4CB JUMPI PUSH2 0x4CA PUSH2 0x4AA JUMP JUMPDEST JUMPDEST DUP3 CALLDATALOAD SWAP1 POP PUSH8 0xFFFFFFFFFFFFFFFF DUP2 GT ISZERO PUSH2 0x4E8 JUMPI PUSH2 0x4E7 PUSH2 0x4AE JUMP JUMPDEST JUMPDEST PUSH1 0x20 DUP4 ADD SWAP2 POP DUP4 PUSH1 0x1 DUP3 MUL DUP4 ADD GT ISZERO PUSH2 0x504 JUMPI PUSH2 0x503 PUSH2 0x4B2 JUMP JUMPDEST JUMPDEST SWAP3 POP SWAP3 SWAP1 POP JUMP JUMPDEST PUSH0 DUP1 PUSH0 DUP1 PUSH1 0x40 DUP6 DUP8 SUB SLT ISZERO PUSH2 0x523 JUMPI PUSH2 0x522 PUSH2 0x40F JUMP JUMPDEST JUMPDEST PUSH0 DUP6 ADD CALLDATALOAD PUSH8 0xFFFFFFFFFFFFFFFF DUP2 GT ISZERO PUSH2 0x540 JUMPI PUSH2 0x53F PUSH2 0x413 JUMP JUMPDEST JUMPDEST PUSH2 0x54C DUP8 DUP3 DUP9 ADD PUSH2 0x4B6 JUMP JUMPDEST SWAP5 POP SWAP5 POP POP PUSH1 0x20 DUP6 ADD CALLDATALOAD PUSH8 0xFFFFFFFFFFFFFFFF DUP2 GT ISZERO PUSH2 0x56F JUMPI PUSH2 0x56E PUSH2 0x413 JUMP JUMPDEST JUMPDEST PUSH2 0x57B DUP8 DUP3 DUP9 ADD PUSH2 0x4B6 JUMP JUMPDEST SWAP3 POP SWAP3 POP POP SWAP3 SWAP6 SWAP2 SWAP5 POP SWAP3 POP JUMP JUMPDEST PUSH32 0x4E487B7100000000000000000000000000000000000000000000000000000000 PUSH0 MSTORE PUSH1 0x22 PUSH1 0x4 MSTORE PUSH1 0x24 PUSH0 REVERT JUMPDEST PUSH0 PUSH1 0x2 DUP3 DIV SWAP1 POP PUSH1 0x1 DUP3 AND DUP1 PUSH2 0x5CD JUMPI PUSH1 0x7F DUP3 AND SWAP2 POP JUMPDEST PUSH1 0x20 DUP3 LT DUP2 SUB PUSH2 0x5E0 JUMPI PUSH2 0x5DF PUSH2 0x589 JUMP JUMPDEST JUMPDEST POP SWAP2 SWAP1 POP JUMP JUMPDEST PUSH32 0xE8BE93E585A5E99499E8AFAF0000000000000000000000000000000000000000 PUSH0 DUP3 ADD MSTORE POP JUMP JUMPDEST PUSH0 PUSH2 0x61A PUSH1 0xC DUP4 PUSH2 0x389 JUMP JUMPDEST SWAP2 POP PUSH2 0x625 DUP3 PUSH2 0x5E6 JUMP JUMPDEST PUSH1 0x20 DUP3 ADD SWAP1 POP SWAP2 SWAP1 POP JUMP JUMPDEST PUSH0 PUSH1 0x20 DUP3 ADD SWAP1 POP DUP2 DUP2 SUB PUSH0 DUP4 ADD MSTORE PUSH2 0x647 DUP2 PUSH2 0x60E JUMP JUMPDEST SWAP1 POP SWAP2 SWAP1 POP JUMP JUMPDEST PUSH32 0x4E487B7100000000000000000000000000000000000000000000000000000000 PUSH0 MSTORE PUSH1 0x41 PUSH1 0x4 MSTORE PUSH1 0x24 PUSH0 REVERT JUMPDEST PUSH0 DUP2 SWAP1 POP DUP2 PUSH0 MSTORE PUSH1 0x20 PUSH0 KECCAK256 SWAP1 POP SWAP2 SWAP1 POP JUMP JUMPDEST PUSH0 PUSH1 0x20 PUSH1 0x1F DUP4 ADD DIV SWAP1 POP SWAP2 SWAP1 POP JUMP JUMPDEST PUSH0 DUP3 DUP3 SHL SWAP1 POP SWAP3 SWAP2 POP POP JUMP JUMPDEST PUSH0 PUSH1 0x8 DUP4 MUL PUSH2 0x6D7 PUSH32 0xFFFFFFFFFFFFFFFFFFFFFFFFFFFFFFFFFFFFFFFFFFFFFFFFFFFFFFFFFFFFFFFF DUP3 PUSH2 0x69C JUMP JUMPDEST PUSH2 0x6E1 DUP7 DUP4 PUSH2 0x69C JUMP JUMPDEST SWAP6 POP DUP1 NOT DUP5 AND SWAP4 POP DUP1 DUP7 AND DUP5 OR SWAP3 POP POP POP SWAP4 SWAP3 POP POP POP JUMP JUMPDEST PUSH0 DUP2 SWAP1 POP SWAP2 SWAP1 POP JUMP JUMPDEST PUSH0 PUSH2 0x71C PUSH2 0x717 PUSH2 0x712 DUP5 PUSH2 0x417 JUMP JUMPDEST PUSH2 0x6F9 JUMP JUMPDEST PUSH2 0x417 JUMP JUMPDEST SWAP1 POP SWAP2 SWAP1 POP JUMP JUMPDEST PUSH0 DUP2 SWAP1 POP SWAP2 SWAP1 POP JUMP JUMPDEST PUSH2 0x735 DUP4 PUSH2 0x702 JUMP JUMPDEST PUSH2 0x749 PUSH2 0x741 DUP3 PUSH2 0x723 JUMP JUMPDEST DUP5 DUP5 SLOAD PUSH2 0x6A8 JUMP JUMPDEST DUP3 SSTORE POP POP POP POP JUMP JUMPDEST PUSH0 SWAP1 JUMP JUMPDEST PUSH2 0x75D PUSH2 0x751 JUMP JUMPDEST PUSH2 0x768 DUP2 DUP5 DUP5 PUSH2 0x72C JUMP JUMPDEST POP POP POP JUMP JUMPDEST JUMPDEST DUP2 DUP2 LT ISZERO PUSH2 0x78B JUMPI PUSH2 0x780 PUSH0 DUP3 PUSH2 0x755 JUMP JUMPDEST PUSH1 0x1 DUP2 ADD SWAP1 POP PUSH2 0x76E JUMP JUMPDEST POP POP JUMP JUMPDEST PUSH1 0x1F DUP3 GT ISZERO PUSH2 0x7D0 JUMPI PUSH2 0x7A1 DUP2 PUSH2 0x67B JUMP JUMPDEST PUSH2 0x7AA DUP5 PUSH2 0x68D JUMP JUMPDEST DUP2 ADD PUSH1 0x20 DUP6 LT ISZERO PUSH2 0x7B9 JUMPI DUP2 SWAP1 POP JUMPDEST PUSH2 0x7CD PUSH2 0x7C5 DUP6 PUSH2 0x68D JUMP JUMPDEST DUP4 ADD DUP3 PUSH2 0x76D JUMP JUMPDEST POP POP JUMPDEST POP POP POP JUMP JUMPDEST PUSH0 DUP3 DUP3 SHR SWAP1 POP SWAP3 SWAP2 POP POP JUMP JUMPDEST PUSH0 PUSH2 0x7F0 PUSH0 NOT DUP5 PUSH1 0x8 MUL PUSH2 0x7D5 JUMP JUMPDEST NOT DUP1 DUP4 AND SWAP2 POP POP SWAP3 SWAP2 POP POP JUMP JUMPDEST PUSH0 PUSH2 0x808 DUP4 DUP4 PUSH2 0x7E1 JUMP JUMPDEST SWAP2 POP DUP3 PUSH1 0x2 MUL DUP3 OR SWAP1 POP SWAP3 SWAP2 POP POP JUMP JUMPDEST PUSH2 0x821 DUP3 PUSH2 0x37F JUMP JUMPDEST PUSH8 0xFFFFFFFFFFFFFFFF DUP2 GT ISZERO PUSH2 0x83A JUMPI PUSH2 0x839 PUSH2 0x64E JUMP JUMPDEST JUMPDEST PUSH2 0x844 DUP3 SLOAD PUSH2 0x5B6 JUMP JUMPDEST PUSH2 0x84F DUP3 DUP3 DUP6 PUSH2 0x78F JUMP JUMPDEST PUSH0 PUSH1 0x20 SWAP1 POP PUSH1 0x1F DUP4 GT PUSH1 0x1 DUP2 EQ PUSH2 0x880 JUMPI PUSH0 DUP5 ISZERO PUSH2 0x86E JUMPI DUP3 DUP8 ADD MLOAD SWAP1 POP JUMPDEST PUSH2 0x878 DUP6 DUP3 PUSH2 0x7FD JUMP JUMPDEST DUP7 SSTORE POP PUSH2 0x8DF JUMP JUMPDEST PUSH1 0x1F NOT DUP5 AND PUSH2 0x88E DUP7 PUSH2 0x67B JUMP JUMPDEST PUSH0 JUMPDEST DUP3 DUP2 LT ISZERO PUSH2 0x8B5 JUMPI DUP5 DUP10 ADD MLOAD DUP3 SSTORE PUSH1 0x1 DUP3 ADD SWAP2 POP PUSH1 0x20 DUP6 ADD SWAP5 POP PUSH1 0x20 DUP2 ADD SWAP1 POP PUSH2 0x890 JUMP JUMPDEST DUP7 DUP4 LT ISZERO PUSH2 0x8D2 JUMPI DUP5 DUP10 ADD MLOAD PUSH2 0x8CE PUSH1 0x1F DUP10 AND DUP3 PUSH2 0x7E1 JUMP JUMPDEST DUP4 SSTORE POP JUMPDEST PUSH1 0x1 PUSH1 0x2 DUP9 MUL ADD DUP9 SSTORE POP POP POP JUMPDEST POP POP POP POP POP POP JUMP JUMPDEST PUSH0 DUP3 SWAP1 POP SWAP3 SWAP2 POP POP JUMP JUMPDEST PUSH2 0x8FB DUP4 DUP4 PUSH2 0x8E7 JUMP JUMPDEST PUSH8 0xFFFFFFFFFFFFFFFF DUP2 GT ISZERO PUSH2 0x914 JUMPI PUSH2 0x913 PUSH2 0x64E JUMP JUMPDEST JUMPDEST PUSH2 0x91E DUP3 SLOAD PUSH2 0x5B6 JUMP JUMPDEST PUSH2 0x929 DUP3 DUP3 DUP6 PUSH2 0x78F JUMP JUMPDEST PUSH0 PUSH1 0x1F DUP4 GT PUSH1 0x1 DUP2 EQ PUSH2 0x956 JUMPI PUSH0 DUP5 ISZERO PUSH2 0x944 JUMPI DUP3 DUP8 ADD CALLDATALOAD SWAP1 POP JUMPDEST PUSH2 0x94E DUP6 DUP3 PUSH2 0x7FD JUMP JUMPDEST DUP7 SSTORE POP PUSH2 0x9B5 JUMP JUMPDEST PUSH1 0x1F NOT DUP5 AND PUSH2 0x964 DUP7 PUSH2 0x67B JUMP JUMPDEST PUSH0 JUMPDEST DUP3 DUP2 LT ISZERO PUSH2 0x98B JUMPI DUP5 DUP10 ADD CALLDATALOAD DUP3 SSTORE PUSH1 0x1 DUP3 ADD SWAP2 POP PUSH1 0x20 DUP6 ADD SWAP5 POP PUSH1 0x20 DUP2 ADD SWAP1 POP PUSH2 0x966 JUMP JUMPDEST DUP7 DUP4 LT ISZERO PUSH2 0x9A8 JUMPI DUP5 DUP10 ADD CALLDATALOAD PUSH2 0x9A4 PUSH1 0x1F DUP10 AND DUP3 PUSH2 0x7E1 JUMP JUMPDEST DUP4 SSTORE POP JUMPDEST PUSH1 0x1 PUSH1 0x2 DUP9 MUL ADD DUP9 SSTORE POP POP POP JUMPDEST POP POP POP POP POP POP POP JUMP INVALID LOG2 PUSH5 0x6970667358 0x22 SLT KECCAK256 0x2B 0xCF SGT 0xF9 CALLER SWAP2 CODECOPY 0x2B MULMOD BLOBHASH 0xCE 0xDF DUP3 GASLIMIT 0xC4 DUP4 PUSH24 0xE9AF1700251CE6A0D5334DD13C3B5564736F6C634300081A STOP CALLER "
				},
				"gasEstimates": {
					"creation": {
						"codeDepositCost": "509600",
						"executionCost": "541",
						"totalCost": "510141"
					},
					"external": {
						"changeGender(uint256)": "infinite",
						"getName()": "infinite",
						"setState(string,string)": "infinite",
						"state()": "infinite"
					}
				},
				"methodIdentifiers": {
					"changeGender(uint256)": "652296f1",
					"getName()": "17d7de7c",
					"setState(string,string)": "d9038f3c",
					"state()": "c19d93fb"
				}
			},
			"storageLayout": {
				"storage": [
					{
						"astId": 12,
						"contract": "StoreType.sol:Person",
						"label": "state",
						"offset": 0,
						"slot": "0",
						"type": "t_struct(State)9_storage"
					}
				],
				"types": {
					"t_string_storage": {
						"encoding": "bytes",
						"label": "string",
						"numberOfBytes": "32"
					},
					"t_struct(State)9_storage": {
						"encoding": "inplace",
						"label": "struct Person.State",
						"members": [
							{
								"astId": 6,
								"contract": "StoreType.sol:Person",
								"label": "name",
								"offset": 0,
								"slot": "0",
								"type": "t_string_storage"
							},
							{
								"astId": 8,
								"contract": "StoreType.sol:Person",
								"label": "gender",
								"offset": 0,
								"slot": "1",
								"type": "t_string_storage"
							}
						],
						"numberOfBytes": "64"
					}
				}
			},
			"userdoc": {
				"kind": "user",
				"methods": {},
				"version": 1
			}
		}
	}
}