{
	"StoreType.sol": {
		"Counter": {
			"abi": [
				{
					"inputs": [],
					"name": "start",
					"outputs": [
						{
							"internalType": "uint256",
							"name": "sum",
							"type": "uint256"
						}
					],
					"stateMutability": "pure",
					"type": "function"
				}
			],
			"devdoc": {
				"kind": "dev",
				"methods": {},
				"version": 1
			},
			"evm": {
				"assembly": "    /* \"StoreType.sol\":1819:2418  contract Counter {... */\n  mstore(0x40, 0x80)\n  callvalue\n  dup1\n  iszero\n  tag_1\n  jumpi\n  0x00\n  dup1\n  revert\ntag_1:\n  pop\n  dataSize(sub_0)\n  dup1\n  dataOffset(sub_0)\n  0x00\n  codecopy\n  0x00\n  return\nstop\n\nsub_0: assembly {\n        /* \"StoreType.sol\":1819:2418  contract Counter {... */\n      mstore(0x40, 0x80)\n      callvalue\n      dup1\n      iszero\n      tag_1\n      jumpi\n      0x00\n      dup1\n      revert\n    tag_1:\n      pop\n      jumpi(tag_2, lt(calldatasize, 0x04))\n      shr(0xe0, calldataload(0x00))\n      dup1\n      0xbe9a6555\n      eq\n      tag_3\n      jumpi\n    tag_2:\n      0x00\n      dup1\n      revert\n        /* \"StoreType.sol\":1842:2415  function start() external pure returns(uint sum) {... */\n    tag_3:\n      tag_4\n      tag_5\n      jump\t// in\n    tag_4:\n      mload(0x40)\n      tag_6\n      swap2\n      swap1\n      tag_7\n      jump\t// in\n    tag_6:\n      mload(0x40)\n      dup1\n      swap2\n      sub\n      swap1\n      return\n    tag_5:\n        /* \"StoreType.sol\":1881:1889  uint sum */\n      0x00\n        /* \"StoreType.sol\":1901:1908  uint a1 */\n      dup1\n        /* \"StoreType.sol\":1911:1912  1 */\n      0x01\n        /* \"StoreType.sol\":1901:1912  uint a1 = 1 */\n      swap1\n      pop\n        /* \"StoreType.sol\":1922:1929  uint a2 */\n      0x00\n        /* \"StoreType.sol\":1932:1933  1 */\n      0x01\n        /* \"StoreType.sol\":1922:1933  uint a2 = 1 */\n      swap1\n      pop\n        /* \"StoreType.sol\":1943:1950  uint a3 */\n      0x00\n        /* \"StoreType.sol\":1953:1954  1 */\n      0x01\n        /* \"StoreType.sol\":1943:1954  uint a3 = 1 */\n      swap1\n      pop\n        /* \"StoreType.sol\":1964:1971  uint a4 */\n      0x00\n        /* \"StoreType.sol\":1974:1975  1 */\n      0x01\n        /* \"StoreType.sol\":1964:1975  uint a4 = 1 */\n      swap1\n      pop\n        /* \"StoreType.sol\":1985:1992  uint a5 */\n      0x00\n        /* \"StoreType.sol\":1995:1996  1 */\n      0x01\n        /* \"StoreType.sol\":1985:1996  uint a5 = 1 */\n      swap1\n      pop\n        /* \"StoreType.sol\":2006:2013  uint a6 */\n      0x00\n        /* \"StoreType.sol\":2016:2017  1 */\n      0x01\n        /* \"StoreType.sol\":2006:2017  uint a6 = 1 */\n      swap1\n      pop\n        /* \"StoreType.sol\":2027:2034  uint a7 */\n      0x00\n        /* \"StoreType.sol\":2037:2038  1 */\n      0x01\n        /* \"StoreType.sol\":2027:2038  uint a7 = 1 */\n      swap1\n      pop\n        /* \"StoreType.sol\":2048:2055  uint a8 */\n      0x00\n        /* \"StoreType.sol\":2058:2059  1 */\n      0x01\n        /* \"StoreType.sol\":2048:2059  uint a8 = 1 */\n      swap1\n      pop\n        /* \"StoreType.sol\":2386:2388  a8 */\n      dup1\n        /* \"StoreType.sol\":2383:2385  a7 */\n      dup3\n        /* \"StoreType.sol\":2380:2382  a6 */\n      dup5\n        /* \"StoreType.sol\":2377:2379  a5 */\n      dup7\n        /* \"StoreType.sol\":2374:2376  a4 */\n      dup9\n        /* \"StoreType.sol\":2371:2373  a3 */\n      dup11\n        /* \"StoreType.sol\":2368:2370  a2 */\n      dup13\n        /* \"StoreType.sol\":2365:2367  a1 */\n      dup15\n        /* \"StoreType.sol\":2365:2370  a1+a2 */\n      tag_9\n      swap2\n      swap1\n      tag_10\n      jump\t// in\n    tag_9:\n        /* \"StoreType.sol\":2365:2373  a1+a2+a3 */\n      tag_11\n      swap2\n      swap1\n      tag_10\n      jump\t// in\n    tag_11:\n        /* \"StoreType.sol\":2365:2376  a1+a2+a3+a4 */\n      tag_12\n      swap2\n      swap1\n      tag_10\n      jump\t// in\n    tag_12:\n        /* \"StoreType.sol\":2365:2379  a1+a2+a3+a4+a5 */\n      tag_13\n      swap2\n      swap1\n      tag_10\n      jump\t// in\n    tag_13:\n        /* \"StoreType.sol\":2365:2382  a1+a2+a3+a4+a5+a6 */\n      tag_14\n      swap2\n      swap1\n      tag_10\n      jump\t// in\n    tag_14:\n        /* \"StoreType.sol\":2365:2385  a1+a2+a3+a4+a5+a6+a7 */\n      tag_15\n      swap2\n      swap1\n      tag_10\n      jump\t// in\n    tag_15:\n        /* \"StoreType.sol\":2365:2388  a1+a2+a3+a4+a5+a6+a7+a8 */\n      tag_16\n      swap2\n      swap1\n      tag_10\n      jump\t// in\n    tag_16:\n        /* \"StoreType.sol\":2359:2388  sum = a1+a2+a3+a4+a5+a6+a7+a8 */\n      swap9\n      pop\n        /* \"StoreType.sol\":2398:2408  return sum */\n      pop\n      pop\n      pop\n      pop\n      pop\n      pop\n      pop\n      pop\n        /* \"StoreType.sol\":1842:2415  function start() external pure returns(uint sum) {... */\n      swap1\n      jump\t// out\n        /* \"#utility.yul\":7:84   */\n    tag_17:\n        /* \"#utility.yul\":44:51   */\n      0x00\n        /* \"#utility.yul\":73:78   */\n      dup2\n        /* \"#utility.yul\":62:78   */\n      swap1\n      pop\n        /* \"#utility.yul\":7:84   */\n      swap2\n      swap1\n      pop\n      jump\t// out\n        /* \"#utility.yul\":90:208   */\n    tag_18:\n        /* \"#utility.yul\":177:201   */\n      tag_23\n        /* \"#utility.yul\":195:200   */\n      dup2\n        /* \"#utility.yul\":177:201   */\n      tag_17\n      jump\t// in\n    tag_23:\n        /* \"#utility.yul\":172:175   */\n      dup3\n        /* \"#utility.yul\":165:202   */\n      mstore\n        /* \"#utility.yul\":90:208   */\n      pop\n      pop\n      jump\t// out\n        /* \"#utility.yul\":214:436   */\n    tag_7:\n        /* \"#utility.yul\":307:311   */\n      0x00\n        /* \"#utility.yul\":345:347   */\n      0x20\n        /* \"#utility.yul\":334:343   */\n      dup3\n        /* \"#utility.yul\":330:348   */\n      add\n        /* \"#utility.yul\":322:348   */\n      swap1\n      pop\n        /* \"#utility.yul\":358:429   */\n      tag_25\n        /* \"#utility.yul\":426:427   */\n      0x00\n        /* \"#utility.yul\":415:424   */\n      dup4\n        /* \"#utility.yul\":411:428   */\n      add\n        /* \"#utility.yul\":402:408   */\n      dup5\n        /* \"#utility.yul\":358:429   */\n      tag_18\n      jump\t// in\n    tag_25:\n        /* \"#utility.yul\":214:436   */\n      swap3\n      swap2\n      pop\n      pop\n      jump\t// out\n        /* \"#utility.yul\":442:622   */\n    tag_19:\n        /* \"#utility.yul\":490:567   */\n      0x4e487b7100000000000000000000000000000000000000000000000000000000\n        /* \"#utility.yul\":487:488   */\n      0x00\n        /* \"#utility.yul\":480:568   */\n      mstore\n        /* \"#utility.yul\":587:591   */\n      0x11\n        /* \"#utility.yul\":584:585   */\n      0x04\n        /* \"#utility.yul\":577:592   */\n      mstore\n        /* \"#utility.yul\":611:615   */\n      0x24\n        /* \"#utility.yul\":608:609   */\n      0x00\n        /* \"#utility.yul\":601:616   */\n      revert\n        /* \"#utility.yul\":628:819   */\n    tag_10:\n        /* \"#utility.yul\":668:671   */\n      0x00\n        /* \"#utility.yul\":687:707   */\n      tag_28\n        /* \"#utility.yul\":705:706   */\n      dup3\n        /* \"#utility.yul\":687:707   */\n      tag_17\n      jump\t// in\n    tag_28:\n        /* \"#utility.yul\":682:707   */\n      swap2\n      pop\n        /* \"#utility.yul\":721:741   */\n      tag_29\n        /* \"#utility.yul\":739:740   */\n      dup4\n        /* \"#utility.yul\":721:741   */\n      tag_17\n      jump\t// in\n    tag_29:\n        /* \"#utility.yul\":716:741   */\n      swap3\n      pop\n        /* \"#utility.yul\":764:765   */\n      dup3\n        /* \"#utility.yul\":761:762   */\n      dup3\n        /* \"#utility.yul\":757:766   */\n      add\n        /* \"#utility.yul\":750:766   */\n      swap1\n      pop\n        /* \"#utility.yul\":785:788   */\n      dup1\n        /* \"#utility.yul\":782:783   */\n      dup3\n        /* \"#utility.yul\":779:789   */\n      gt\n        /* \"#utility.yul\":776:812   */\n      iszero\n      tag_30\n      jumpi\n        /* \"#utility.yul\":792:810   */\n      tag_31\n      tag_19\n      jump\t// in\n    tag_31:\n        /* \"#utility.yul\":776:812   */\n    tag_30:\n        /* \"#utility.yul\":628:819   */\n      swap3\n      swap2\n      pop\n      pop\n      jump\t// out\n\n    auxdata: 0xa2646970667358221220f0d3c28fc9af8c9fe6136c1e5abd522166bed4c0fa51263757f92140d19646c264736f6c634300081a0033\n}\n",
				"bytecode": {
					"linkReferences": {},
					"object": "6080604052348015600e575f80fd5b506101968061001c5f395ff3fe608060405234801561000f575f80fd5b5060043610610029575f3560e01c8063be9a65551461002d575b5f80fd5b61003561004b565b60405161004291906100e7565b60405180910390f35b5f80600190505f600190505f600190505f600190505f600190505f600190505f600190505f6001905080828486888a8c8e610086919061012d565b610090919061012d565b61009a919061012d565b6100a4919061012d565b6100ae919061012d565b6100b8919061012d565b6100c2919061012d565b9850505050505050505090565b5f819050919050565b6100e1816100cf565b82525050565b5f6020820190506100fa5f8301846100d8565b92915050565b7f4e487b71000000000000000000000000000000000000000000000000000000005f52601160045260245ffd5b5f610137826100cf565b9150610142836100cf565b925082820190508082111561015a57610159610100565b5b9291505056fea2646970667358221220f0d3c28fc9af8c9fe6136c1e5abd522166bed4c0fa51263757f92140d19646c264736f6c634300081a0033",
					"opcodes": "PUSH1 0x80 PUSH1 0x40 MSTORE CALLVALUE DUP1 ISZERO PUSH1 0xE JUMPI PUSH0 DUP1 REVERT JUMPDEST POP PUSH2 0x196 DUP1 PUSH2 0x1C PUSH0 CODECOPY PUSH0 RETURN INVALID PUSH1 0x80 PUSH1 0x40 MSTORE CALLVALUE DUP1 ISZERO PUSH2 0xF JUMPI PUSH0 DUP1 REVERT JUMPDEST POP PUSH1 0x4 CALLDATASIZE LT PUSH2 0x29 JUMPI PUSH0 CALLDATALOAD PUSH1 0xE0 SHR DUP1 PUSH4 0xBE9A6555 EQ PUSH2 0x2D JUMPI JUMPDEST PUSH0 DUP1 REVERT JUMPDEST PUSH2 0x35 PUSH2 0x4B JUMP JUMPDEST PUSH1 0x40 MLOAD PUSH2 0x42 SWAP2 SWAP1 PUSH2 0xE7 JUMP JUMPDEST PUSH1 0x40 MLOAD DUP1 SWAP2 SUB SWAP1 RETURN JUMPDEST PUSH0 DUP1 PUSH1 0x1 SWAP1 POP PUSH0 PUSH1 0x1 SWAP1 POP PUSH0 PUSH1 0x1 SWAP1 POP PUSH0 PUSH1 0x1 SWAP1 POP PUSH0 PUSH1 0x1 SWAP1 POP PUSH0 PUSH1 0x1 SWAP1 POP PUSH0 PUSH1 0x1 SWAP1 POP PUSH0 PUSH1 0x1 SWAP1 POP DUP1 DUP3 DUP5 DUP7 DUP9 DUP11 DUP13 DUP15 PUSH2 0x86 SWAP2 SWAP1 PUSH2 0x12D JUMP JUMPDEST PUSH2 0x90 SWAP2 SWAP1 PUSH2 0x12D JUMP JUMPDEST PUSH2 0x9A SWAP2 SWAP1 PUSH2 0x12D JUMP JUMPDEST PUSH2 0xA4 SWAP2 SWAP1 PUSH2 0x12D JUMP JUMPDEST PUSH2 0xAE SWAP2 SWAP1 PUSH2 0x12D JUMP JUMPDEST PUSH2 0xB8 SWAP2 SWAP1 PUSH2 0x12D JUMP JUMPDEST PUSH2 0xC2 SWAP2 SWAP1 PUSH2 0x12D JUMP JUMPDEST SWAP9 POP POP POP POP POP POP POP POP POP SWAP1 JUMP JUMPDEST PUSH0 DUP2 SWAP1 POP SWAP2 SWAP1 POP JUMP JUMPDEST PUSH2 0xE1 DUP2 PUSH2 0xCF JUMP JUMPDEST DUP3 MSTORE POP POP JUMP JUMPDEST PUSH0 PUSH1 0x20 DUP3 ADD SWAP1 POP PUSH2 0xFA PUSH0 DUP4 ADD DUP5 PUSH2 0xD8 JUMP JUMPDEST SWAP3 SWAP2 POP POP JUMP JUMPDEST PUSH32 0x4E487B7100000000000000000000000000000000000000000000000000000000 PUSH0 MSTORE PUSH1 0x11 PUSH1 0x4 MSTORE PUSH1 0x24 PUSH0 REVERT JUMPDEST PUSH0 PUSH2 0x137 DUP3 PUSH2 0xCF JUMP JUMPDEST SWAP2 POP PUSH2 0x142 DUP4 PUSH2 0xCF JUMP JUMPDEST SWAP3 POP DUP3 DUP3 ADD SWAP1 POP DUP1 DUP3 GT ISZERO PUSH2 0x15A JUMPI PUSH2 0x159 PUSH2 0x100 JUMP JUMPDEST JUMPDEST SWAP3 SWAP2 POP POP JUMP INVALID LOG2 PUSH5 0x6970667358 0x22 SLT KECCAK256 CREATE 0xD3 0xC2 DUP16 0xC9 0xAF DUP13 SWAP16 0xE6 SGT PUSH13 0x1E5ABD522166BED4C0FA512637 JUMPI 0xF9 0x21 BLOCKHASH 0xD1 SWAP7 CHAINID 0xC2 PUSH5 0x736F6C6343 STOP ADDMOD BYTE STOP CALLER "
				},
				"gasEstimates": {
					"creation": {
						"codeDepositCost": "81200",
						"executionCost": "127",
						"totalCost": "81327"
					},
					"external": {
						"start()": "infinite"
					}
				},
				"methodIdentifiers": {
					"start()": "be9a6555"
				}
			},
			"storageLayout": {
				"storage": [],
				"types": null
			},
			"userdoc": {
				"kind": "user",
				"methods": {},
				"version": 1
			}
		}
	}
}