{
	"StructType.sol": {
		"StructType": {
			"abi": [
				{
					"inputs": [
						{
							"internalType": "string",
							"name": "name",
							"type": "string"
						},
						{
							"internalType": "string",
							"name": "gender",
							"type": "string"
						},
						{
							"internalType": "uint256",
							"name": "age",
							"type": "uint256"
						}
					],
					"name": "initial",
					"outputs": [],
					"stateMutability": "nonpayable",
					"type": "function"
				},
				{
					"inputs": [],
					"name": "person",
					"outputs": [
						{
							"internalType": "string",
							"name": "name",
							"type": "string"
						},
						{
							"internalType": "string",
							"name": "gender",
							"type": "string"
						},
						{
							"internalType": "uint256",
							"name": "age",
							"type": "uint256"
						}
					],
					"stateMutability": "view",
					"type": "function"
				}
			],
			"devdoc": {
				"kind": "dev",
				"methods": {},
				"version": 1
			},
			"evm": {
				"assembly": "    /* \"StructType.sol\":123:447  contract StructType {... */\n  mstore(0x40, 0x80)\n  callvalue\n  dup1\n  iszero\n  tag_1\n  jumpi\n  0x00\n  dup1\n  revert\ntag_1:\n  pop\n  dataSize(sub_0)\n  dup1\n  dataOffset(sub_0)\n  0x00\n  codecopy\n  0x00\n  return\nstop\n\nsub_0: assembly {\n        /* \"StructType.sol\":123:447  contract StructType {... */\n      mstore(0x40, 0x80)\n      callvalue\n      dup1\n      iszero\n      tag_1\n      jumpi\n      0x00\n      dup1\n      revert\n    tag_1:\n      pop\n      jumpi(tag_2, lt(calldatasize, 0x04))\n      shr(0xe0, calldataload(0x00))\n      dup1\n      0x77ec2b55\n      eq\n      tag_3\n      jumpi\n      dup1\n      0xef46b77c\n      eq\n      tag_4\n      jumpi\n    tag_2:\n      0x00\n      dup1\n      revert\n        /* \"StructType.sol\":238:258  Person public person */\n    tag_3:\n      tag_5\n      tag_6\n      jump\t// in\n    tag_5:\n      mload(0x40)\n      tag_7\n      swap4\n      swap3\n      swap2\n      swap1\n      tag_8\n      jump\t// in\n    tag_7:\n      mload(0x40)\n      dup1\n      swap2\n      sub\n      swap1\n      return\n        /* \"StructType.sol\":265:439  function initial(string calldata name, string calldata gender, uint age)  public {... */\n    tag_4:\n      tag_9\n      0x04\n      dup1\n      calldatasize\n      sub\n      dup2\n      add\n      swap1\n      tag_10\n      swap2\n      swap1\n      tag_11\n      jump\t// in\n    tag_10:\n      tag_12\n      jump\t// in\n    tag_9:\n      stop\n        /* \"StructType.sol\":238:258  Person public person */\n    tag_6:\n      0x00\n      dup1\n      0x00\n      add\n      dup1\n      sload\n      tag_13\n      swap1\n      tag_14\n      jump\t// in\n    tag_13:\n      dup1\n      0x1f\n      add\n      0x20\n      dup1\n      swap2\n      div\n      mul\n      0x20\n      add\n      mload(0x40)\n      swap1\n      dup2\n      add\n      0x40\n      mstore\n      dup1\n      swap3\n      swap2\n      swap1\n      dup2\n      dup2\n      mstore\n      0x20\n      add\n      dup3\n      dup1\n      sload\n      tag_15\n      swap1\n      tag_14\n      jump\t// in\n    tag_15:\n      dup1\n      iszero\n      tag_16\n      jumpi\n      dup1\n      0x1f\n      lt\n      tag_17\n      jumpi\n      0x0100\n      dup1\n      dup4\n      sload\n      div\n      mul\n      dup4\n      mstore\n      swap2\n      0x20\n      add\n      swap2\n      jump(tag_16)\n    tag_17:\n      dup3\n      add\n      swap2\n      swap1\n      0x00\n      mstore\n      keccak256(0x00, 0x20)\n      swap1\n    tag_18:\n      dup2\n      sload\n      dup2\n      mstore\n      swap1\n      0x01\n      add\n      swap1\n      0x20\n      add\n      dup1\n      dup4\n      gt\n      tag_18\n      jumpi\n      dup3\n      swap1\n      sub\n      0x1f\n      and\n      dup3\n      add\n      swap2\n    tag_16:\n      pop\n      pop\n      pop\n      pop\n      pop\n      swap1\n      dup1\n      0x01\n      add\n      dup1\n      sload\n      tag_19\n      swap1\n      tag_14\n      jump\t// in\n    tag_19:\n      dup1\n      0x1f\n      add\n      0x20\n      dup1\n      swap2\n      div\n      mul\n      0x20\n      add\n      mload(0x40)\n      swap1\n      dup2\n      add\n      0x40\n      mstore\n      dup1\n      swap3\n      swap2\n      swap1\n      dup2\n      dup2\n      mstore\n      0x20\n      add\n      dup3\n      dup1\n      sload\n      tag_20\n      swap1\n      tag_14\n      jump\t// in\n    tag_20:\n      dup1\n      iszero\n      tag_21\n      jumpi\n      dup1\n      0x1f\n      lt\n      tag_22\n      jumpi\n      0x0100\n      dup1\n      dup4\n      sload\n      div\n      mul\n      dup4\n      mstore\n      swap2\n      0x20\n      add\n      swap2\n      jump(tag_21)\n    tag_22:\n      dup3\n      add\n      swap2\n      swap1\n      0x00\n      mstore\n      keccak256(0x00, 0x20)\n      swap1\n    tag_23:\n      dup2\n      sload\n      dup2\n      mstore\n      swap1\n      0x01\n      add\n      swap1\n      0x20\n      add\n      dup1\n      dup4\n      gt\n      tag_23\n      jumpi\n      dup3\n      swap1\n      sub\n      0x1f\n      and\n      dup3\n      add\n      swap2\n    tag_21:\n      pop\n      pop\n      pop\n      pop\n      pop\n      swap1\n      dup1\n      0x02\n      add\n      sload\n      swap1\n      pop\n      dup4\n      jump\t// out\n        /* \"StructType.sol\":265:439  function initial(string calldata name, string calldata gender, uint age)  public {... */\n    tag_12:\n        /* \"StructType.sol\":370:374  name */\n      dup5\n      dup5\n        /* \"StructType.sol\":356:362  person */\n      0x00\n        /* \"StructType.sol\":356:367  person.name */\n      dup1\n      add\n        /* \"StructType.sol\":356:374  person.name = name */\n      swap2\n      dup3\n      tag_25\n      swap3\n      swap2\n      swap1\n      tag_26\n      jump\t// in\n    tag_25:\n      pop\n        /* \"StructType.sol\":400:406  gender */\n      dup3\n      dup3\n        /* \"StructType.sol\":384:390  person */\n      0x00\n        /* \"StructType.sol\":384:397  person.gender */\n      0x01\n      add\n        /* \"StructType.sol\":384:406  person.gender = gender */\n      swap2\n      dup3\n      tag_27\n      swap3\n      swap2\n      swap1\n      tag_26\n      jump\t// in\n    tag_27:\n      pop\n        /* \"StructType.sol\":429:432  age */\n      dup1\n        /* \"StructType.sol\":416:422  person */\n      0x00\n        /* \"StructType.sol\":416:426  person.age */\n      0x02\n      add\n        /* \"StructType.sol\":416:432  person.age = age */\n      dup2\n      swap1\n      sstore\n      pop\n        /* \"StructType.sol\":265:439  function initial(string calldata name, string calldata gender, uint age)  public {... */\n      pop\n      pop\n      pop\n      pop\n      pop\n      jump\t// out\n        /* \"#utility.yul\":7:106   */\n    tag_28:\n        /* \"#utility.yul\":59:65   */\n      0x00\n        /* \"#utility.yul\":93:98   */\n      dup2\n        /* \"#utility.yul\":87:99   */\n      mload\n        /* \"#utility.yul\":77:99   */\n      swap1\n      pop\n        /* \"#utility.yul\":7:106   */\n      swap2\n      swap1\n      pop\n      jump\t// out\n        /* \"#utility.yul\":112:281   */\n    tag_29:\n        /* \"#utility.yul\":196:207   */\n      0x00\n        /* \"#utility.yul\":230:236   */\n      dup3\n        /* \"#utility.yul\":225:228   */\n      dup3\n        /* \"#utility.yul\":218:237   */\n      mstore\n        /* \"#utility.yul\":270:274   */\n      0x20\n        /* \"#utility.yul\":265:268   */\n      dup3\n        /* \"#utility.yul\":261:275   */\n      add\n        /* \"#utility.yul\":246:275   */\n      swap1\n      pop\n        /* \"#utility.yul\":112:281   */\n      swap3\n      swap2\n      pop\n      pop\n      jump\t// out\n        /* \"#utility.yul\":287:426   */\n    tag_30:\n        /* \"#utility.yul\":376:382   */\n      dup3\n        /* \"#utility.yul\":371:374   */\n      dup2\n        /* \"#utility.yul\":366:369   */\n      dup4\n        /* \"#utility.yul\":360:383   */\n      mcopy\n        /* \"#utility.yul\":417:418   */\n      0x00\n        /* \"#utility.yul\":408:414   */\n      dup4\n        /* \"#utility.yul\":403:406   */\n      dup4\n        /* \"#utility.yul\":399:415   */\n      add\n        /* \"#utility.yul\":392:419   */\n      mstore\n        /* \"#utility.yul\":287:426   */\n      pop\n      pop\n      pop\n      jump\t// out\n        /* \"#utility.yul\":432:534   */\n    tag_31:\n        /* \"#utility.yul\":473:479   */\n      0x00\n        /* \"#utility.yul\":524:526   */\n      0x1f\n        /* \"#utility.yul\":520:527   */\n      not\n        /* \"#utility.yul\":515:517   */\n      0x1f\n        /* \"#utility.yul\":508:513   */\n      dup4\n        /* \"#utility.yul\":504:518   */\n      add\n        /* \"#utility.yul\":500:528   */\n      and\n        /* \"#utility.yul\":490:528   */\n      swap1\n      pop\n        /* \"#utility.yul\":432:534   */\n      swap2\n      swap1\n      pop\n      jump\t// out\n        /* \"#utility.yul\":540:917   */\n    tag_32:\n        /* \"#utility.yul\":628:631   */\n      0x00\n        /* \"#utility.yul\":656:695   */\n      tag_68\n        /* \"#utility.yul\":689:694   */\n      dup3\n        /* \"#utility.yul\":656:695   */\n      tag_28\n      jump\t// in\n    tag_68:\n        /* \"#utility.yul\":711:782   */\n      tag_69\n        /* \"#utility.yul\":775:781   */\n      dup2\n        /* \"#utility.yul\":770:773   */\n      dup6\n        /* \"#utility.yul\":711:782   */\n      tag_29\n      jump\t// in\n    tag_69:\n        /* \"#utility.yul\":704:782   */\n      swap4\n      pop\n        /* \"#utility.yul\":791:856   */\n      tag_70\n        /* \"#utility.yul\":849:855   */\n      dup2\n        /* \"#utility.yul\":844:847   */\n      dup6\n        /* \"#utility.yul\":837:841   */\n      0x20\n        /* \"#utility.yul\":830:835   */\n      dup7\n        /* \"#utility.yul\":826:842   */\n      add\n        /* \"#utility.yul\":791:856   */\n      tag_30\n      jump\t// in\n    tag_70:\n        /* \"#utility.yul\":881:910   */\n      tag_71\n        /* \"#utility.yul\":903:909   */\n      dup2\n        /* \"#utility.yul\":881:910   */\n      tag_31\n      jump\t// in\n    tag_71:\n        /* \"#utility.yul\":876:879   */\n      dup5\n        /* \"#utility.yul\":872:911   */\n      add\n        /* \"#utility.yul\":865:911   */\n      swap2\n      pop\n        /* \"#utility.yul\":632:917   */\n      pop\n        /* \"#utility.yul\":540:917   */\n      swap3\n      swap2\n      pop\n      pop\n      jump\t// out\n        /* \"#utility.yul\":923:1000   */\n    tag_33:\n        /* \"#utility.yul\":960:967   */\n      0x00\n        /* \"#utility.yul\":989:994   */\n      dup2\n        /* \"#utility.yul\":978:994   */\n      swap1\n      pop\n        /* \"#utility.yul\":923:1000   */\n      swap2\n      swap1\n      pop\n      jump\t// out\n        /* \"#utility.yul\":1006:1124   */\n    tag_34:\n        /* \"#utility.yul\":1093:1117   */\n      tag_74\n        /* \"#utility.yul\":1111:1116   */\n      dup2\n        /* \"#utility.yul\":1093:1117   */\n      tag_33\n      jump\t// in\n    tag_74:\n        /* \"#utility.yul\":1088:1091   */\n      dup3\n        /* \"#utility.yul\":1081:1118   */\n      mstore\n        /* \"#utility.yul\":1006:1124   */\n      pop\n      pop\n      jump\t// out\n        /* \"#utility.yul\":1130:1754   */\n    tag_8:\n        /* \"#utility.yul\":1319:1323   */\n      0x00\n        /* \"#utility.yul\":1357:1359   */\n      0x60\n        /* \"#utility.yul\":1346:1355   */\n      dup3\n        /* \"#utility.yul\":1342:1360   */\n      add\n        /* \"#utility.yul\":1334:1360   */\n      swap1\n      pop\n        /* \"#utility.yul\":1406:1415   */\n      dup2\n        /* \"#utility.yul\":1400:1404   */\n      dup2\n        /* \"#utility.yul\":1396:1416   */\n      sub\n        /* \"#utility.yul\":1392:1393   */\n      0x00\n        /* \"#utility.yul\":1381:1390   */\n      dup4\n        /* \"#utility.yul\":1377:1394   */\n      add\n        /* \"#utility.yul\":1370:1417   */\n      mstore\n        /* \"#utility.yul\":1434:1512   */\n      tag_76\n        /* \"#utility.yul\":1507:1511   */\n      dup2\n        /* \"#utility.yul\":1498:1504   */\n      dup7\n        /* \"#utility.yul\":1434:1512   */\n      tag_32\n      jump\t// in\n    tag_76:\n        /* \"#utility.yul\":1426:1512   */\n      swap1\n      pop\n        /* \"#utility.yul\":1559:1568   */\n      dup2\n        /* \"#utility.yul\":1553:1557   */\n      dup2\n        /* \"#utility.yul\":1549:1569   */\n      sub\n        /* \"#utility.yul\":1544:1546   */\n      0x20\n        /* \"#utility.yul\":1533:1542   */\n      dup4\n        /* \"#utility.yul\":1529:1547   */\n      add\n        /* \"#utility.yul\":1522:1570   */\n      mstore\n        /* \"#utility.yul\":1587:1665   */\n      tag_77\n        /* \"#utility.yul\":1660:1664   */\n      dup2\n        /* \"#utility.yul\":1651:1657   */\n      dup6\n        /* \"#utility.yul\":1587:1665   */\n      tag_32\n      jump\t// in\n    tag_77:\n        /* \"#utility.yul\":1579:1665   */\n      swap1\n      pop\n        /* \"#utility.yul\":1675:1747   */\n      tag_78\n        /* \"#utility.yul\":1743:1745   */\n      0x40\n        /* \"#utility.yul\":1732:1741   */\n      dup4\n        /* \"#utility.yul\":1728:1746   */\n      add\n        /* \"#utility.yul\":1719:1725   */\n      dup5\n        /* \"#utility.yul\":1675:1747   */\n      tag_34\n      jump\t// in\n    tag_78:\n        /* \"#utility.yul\":1130:1754   */\n      swap5\n      swap4\n      pop\n      pop\n      pop\n      pop\n      jump\t// out\n        /* \"#utility.yul\":1841:1958   */\n    tag_36:\n        /* \"#utility.yul\":1950:1951   */\n      0x00\n        /* \"#utility.yul\":1947:1948   */\n      dup1\n        /* \"#utility.yul\":1940:1952   */\n      revert\n        /* \"#utility.yul\":1964:2081   */\n    tag_37:\n        /* \"#utility.yul\":2073:2074   */\n      0x00\n        /* \"#utility.yul\":2070:2071   */\n      dup1\n        /* \"#utility.yul\":2063:2075   */\n      revert\n        /* \"#utility.yul\":2087:2204   */\n    tag_38:\n        /* \"#utility.yul\":2196:2197   */\n      0x00\n        /* \"#utility.yul\":2193:2194   */\n      dup1\n        /* \"#utility.yul\":2186:2198   */\n      revert\n        /* \"#utility.yul\":2210:2327   */\n    tag_39:\n        /* \"#utility.yul\":2319:2320   */\n      0x00\n        /* \"#utility.yul\":2316:2317   */\n      dup1\n        /* \"#utility.yul\":2309:2321   */\n      revert\n        /* \"#utility.yul\":2333:2450   */\n    tag_40:\n        /* \"#utility.yul\":2442:2443   */\n      0x00\n        /* \"#utility.yul\":2439:2440   */\n      dup1\n        /* \"#utility.yul\":2432:2444   */\n      revert\n        /* \"#utility.yul\":2470:3023   */\n    tag_41:\n        /* \"#utility.yul\":2528:2536   */\n      0x00\n        /* \"#utility.yul\":2538:2544   */\n      dup1\n        /* \"#utility.yul\":2588:2591   */\n      dup4\n        /* \"#utility.yul\":2581:2585   */\n      0x1f\n        /* \"#utility.yul\":2573:2579   */\n      dup5\n        /* \"#utility.yul\":2569:2586   */\n      add\n        /* \"#utility.yul\":2565:2592   */\n      slt\n        /* \"#utility.yul\":2555:2677   */\n      tag_86\n      jumpi\n        /* \"#utility.yul\":2596:2675   */\n      tag_87\n      tag_38\n      jump\t// in\n    tag_87:\n        /* \"#utility.yul\":2555:2677   */\n    tag_86:\n        /* \"#utility.yul\":2709:2715   */\n      dup3\n        /* \"#utility.yul\":2696:2716   */\n      calldataload\n        /* \"#utility.yul\":2686:2716   */\n      swap1\n      pop\n        /* \"#utility.yul\":2739:2757   */\n      0xffffffffffffffff\n        /* \"#utility.yul\":2731:2737   */\n      dup2\n        /* \"#utility.yul\":2728:2758   */\n      gt\n        /* \"#utility.yul\":2725:2842   */\n      iszero\n      tag_88\n      jumpi\n        /* \"#utility.yul\":2761:2840   */\n      tag_89\n      tag_39\n      jump\t// in\n    tag_89:\n        /* \"#utility.yul\":2725:2842   */\n    tag_88:\n        /* \"#utility.yul\":2875:2879   */\n      0x20\n        /* \"#utility.yul\":2867:2873   */\n      dup4\n        /* \"#utility.yul\":2863:2880   */\n      add\n        /* \"#utility.yul\":2851:2880   */\n      swap2\n      pop\n        /* \"#utility.yul\":2929:2932   */\n      dup4\n        /* \"#utility.yul\":2921:2925   */\n      0x01\n        /* \"#utility.yul\":2913:2919   */\n      dup3\n        /* \"#utility.yul\":2909:2926   */\n      mul\n        /* \"#utility.yul\":2899:2907   */\n      dup4\n        /* \"#utility.yul\":2895:2927   */\n      add\n        /* \"#utility.yul\":2892:2933   */\n      gt\n        /* \"#utility.yul\":2889:3017   */\n      iszero\n      tag_90\n      jumpi\n        /* \"#utility.yul\":2936:3015   */\n      tag_91\n      tag_40\n      jump\t// in\n    tag_91:\n        /* \"#utility.yul\":2889:3017   */\n    tag_90:\n        /* \"#utility.yul\":2470:3023   */\n      swap3\n      pop\n      swap3\n      swap1\n      pop\n      jump\t// out\n        /* \"#utility.yul\":3029:3151   */\n    tag_42:\n        /* \"#utility.yul\":3102:3126   */\n      tag_93\n        /* \"#utility.yul\":3120:3125   */\n      dup2\n        /* \"#utility.yul\":3102:3126   */\n      tag_33\n      jump\t// in\n    tag_93:\n        /* \"#utility.yul\":3095:3100   */\n      dup2\n        /* \"#utility.yul\":3092:3127   */\n      eq\n        /* \"#utility.yul\":3082:3145   */\n      tag_94\n      jumpi\n        /* \"#utility.yul\":3141:3142   */\n      0x00\n        /* \"#utility.yul\":3138:3139   */\n      dup1\n        /* \"#utility.yul\":3131:3143   */\n      revert\n        /* \"#utility.yul\":3082:3145   */\n    tag_94:\n        /* \"#utility.yul\":3029:3151   */\n      pop\n      jump\t// out\n        /* \"#utility.yul\":3157:3296   */\n    tag_43:\n        /* \"#utility.yul\":3203:3208   */\n      0x00\n        /* \"#utility.yul\":3241:3247   */\n      dup2\n        /* \"#utility.yul\":3228:3248   */\n      calldataload\n        /* \"#utility.yul\":3219:3248   */\n      swap1\n      pop\n        /* \"#utility.yul\":3257:3290   */\n      tag_96\n        /* \"#utility.yul\":3284:3289   */\n      dup2\n        /* \"#utility.yul\":3257:3290   */\n      tag_42\n      jump\t// in\n    tag_96:\n        /* \"#utility.yul\":3157:3296   */\n      swap3\n      swap2\n      pop\n      pop\n      jump\t// out\n        /* \"#utility.yul\":3302:4321   */\n    tag_11:\n        /* \"#utility.yul\":3403:3409   */\n      0x00\n        /* \"#utility.yul\":3411:3417   */\n      dup1\n        /* \"#utility.yul\":3419:3425   */\n      0x00\n        /* \"#utility.yul\":3427:3433   */\n      dup1\n        /* \"#utility.yul\":3435:3441   */\n      0x00\n        /* \"#utility.yul\":3484:3486   */\n      0x60\n        /* \"#utility.yul\":3472:3481   */\n      dup7\n        /* \"#utility.yul\":3463:3470   */\n      dup9\n        /* \"#utility.yul\":3459:3482   */\n      sub\n        /* \"#utility.yul\":3455:3487   */\n      slt\n        /* \"#utility.yul\":3452:3571   */\n      iszero\n      tag_98\n      jumpi\n        /* \"#utility.yul\":3490:3569   */\n      tag_99\n      tag_36\n      jump\t// in\n    tag_99:\n        /* \"#utility.yul\":3452:3571   */\n    tag_98:\n        /* \"#utility.yul\":3638:3639   */\n      0x00\n        /* \"#utility.yul\":3627:3636   */\n      dup7\n        /* \"#utility.yul\":3623:3640   */\n      add\n        /* \"#utility.yul\":3610:3641   */\n      calldataload\n        /* \"#utility.yul\":3668:3686   */\n      0xffffffffffffffff\n        /* \"#utility.yul\":3660:3666   */\n      dup2\n        /* \"#utility.yul\":3657:3687   */\n      gt\n        /* \"#utility.yul\":3654:3771   */\n      iszero\n      tag_100\n      jumpi\n        /* \"#utility.yul\":3690:3769   */\n      tag_101\n      tag_37\n      jump\t// in\n    tag_101:\n        /* \"#utility.yul\":3654:3771   */\n    tag_100:\n        /* \"#utility.yul\":3803:3868   */\n      tag_102\n        /* \"#utility.yul\":3860:3867   */\n      dup9\n        /* \"#utility.yul\":3851:3857   */\n      dup3\n        /* \"#utility.yul\":3840:3849   */\n      dup10\n        /* \"#utility.yul\":3836:3858   */\n      add\n        /* \"#utility.yul\":3803:3868   */\n      tag_41\n      jump\t// in\n    tag_102:\n        /* \"#utility.yul\":3785:3868   */\n      swap6\n      pop\n      swap6\n      pop\n        /* \"#utility.yul\":3581:3878   */\n      pop\n        /* \"#utility.yul\":3945:3947   */\n      0x20\n        /* \"#utility.yul\":3934:3943   */\n      dup7\n        /* \"#utility.yul\":3930:3948   */\n      add\n        /* \"#utility.yul\":3917:3949   */\n      calldataload\n        /* \"#utility.yul\":3976:3994   */\n      0xffffffffffffffff\n        /* \"#utility.yul\":3968:3974   */\n      dup2\n        /* \"#utility.yul\":3965:3995   */\n      gt\n        /* \"#utility.yul\":3962:4079   */\n      iszero\n      tag_103\n      jumpi\n        /* \"#utility.yul\":3998:4077   */\n      tag_104\n      tag_37\n      jump\t// in\n    tag_104:\n        /* \"#utility.yul\":3962:4079   */\n    tag_103:\n        /* \"#utility.yul\":4111:4176   */\n      tag_105\n        /* \"#utility.yul\":4168:4175   */\n      dup9\n        /* \"#utility.yul\":4159:4165   */\n      dup3\n        /* \"#utility.yul\":4148:4157   */\n      dup10\n        /* \"#utility.yul\":4144:4166   */\n      add\n        /* \"#utility.yul\":4111:4176   */\n      tag_41\n      jump\t// in\n    tag_105:\n        /* \"#utility.yul\":4093:4176   */\n      swap4\n      pop\n      swap4\n      pop\n        /* \"#utility.yul\":3888:4186   */\n      pop\n        /* \"#utility.yul\":4225:4227   */\n      0x40\n        /* \"#utility.yul\":4251:4304   */\n      tag_106\n        /* \"#utility.yul\":4296:4303   */\n      dup9\n        /* \"#utility.yul\":4287:4293   */\n      dup3\n        /* \"#utility.yul\":4276:4285   */\n      dup10\n        /* \"#utility.yul\":4272:4294   */\n      add\n        /* \"#utility.yul\":4251:4304   */\n      tag_43\n      jump\t// in\n    tag_106:\n        /* \"#utility.yul\":4241:4304   */\n      swap2\n      pop\n        /* \"#utility.yul\":4196:4314   */\n      pop\n        /* \"#utility.yul\":3302:4321   */\n      swap3\n      swap6\n      pop\n      swap3\n      swap6\n      swap1\n      swap4\n      pop\n      jump\t// out\n        /* \"#utility.yul\":4327:4507   */\n    tag_44:\n        /* \"#utility.yul\":4375:4452   */\n      0x4e487b7100000000000000000000000000000000000000000000000000000000\n        /* \"#utility.yul\":4372:4373   */\n      0x00\n        /* \"#utility.yul\":4365:4453   */\n      mstore\n        /* \"#utility.yul\":4472:4476   */\n      0x22\n        /* \"#utility.yul\":4469:4470   */\n      0x04\n        /* \"#utility.yul\":4462:4477   */\n      mstore\n        /* \"#utility.yul\":4496:4500   */\n      0x24\n        /* \"#utility.yul\":4493:4494   */\n      0x00\n        /* \"#utility.yul\":4486:4501   */\n      revert\n        /* \"#utility.yul\":4513:4833   */\n    tag_14:\n        /* \"#utility.yul\":4557:4563   */\n      0x00\n        /* \"#utility.yul\":4594:4595   */\n      0x02\n        /* \"#utility.yul\":4588:4592   */\n      dup3\n        /* \"#utility.yul\":4584:4596   */\n      div\n        /* \"#utility.yul\":4574:4596   */\n      swap1\n      pop\n        /* \"#utility.yul\":4641:4642   */\n      0x01\n        /* \"#utility.yul\":4635:4639   */\n      dup3\n        /* \"#utility.yul\":4631:4643   */\n      and\n        /* \"#utility.yul\":4662:4680   */\n      dup1\n        /* \"#utility.yul\":4652:4733   */\n      tag_109\n      jumpi\n        /* \"#utility.yul\":4718:4722   */\n      0x7f\n        /* \"#utility.yul\":4710:4716   */\n      dup3\n        /* \"#utility.yul\":4706:4723   */\n      and\n        /* \"#utility.yul\":4696:4723   */\n      swap2\n      pop\n        /* \"#utility.yul\":4652:4733   */\n    tag_109:\n        /* \"#utility.yul\":4780:4782   */\n      0x20\n        /* \"#utility.yul\":4772:4778   */\n      dup3\n        /* \"#utility.yul\":4769:4783   */\n      lt\n        /* \"#utility.yul\":4749:4767   */\n      dup2\n        /* \"#utility.yul\":4746:4784   */\n      sub\n        /* \"#utility.yul\":4743:4827   */\n      tag_110\n      jumpi\n        /* \"#utility.yul\":4799:4817   */\n      tag_111\n      tag_44\n      jump\t// in\n    tag_111:\n        /* \"#utility.yul\":4743:4827   */\n    tag_110:\n        /* \"#utility.yul\":4564:4833   */\n      pop\n        /* \"#utility.yul\":4513:4833   */\n      swap2\n      swap1\n      pop\n      jump\t// out\n        /* \"#utility.yul\":4839:4936   */\n    tag_45:\n        /* \"#utility.yul\":4898:4904   */\n      0x00\n        /* \"#utility.yul\":4926:4929   */\n      dup3\n        /* \"#utility.yul\":4916:4929   */\n      swap1\n      pop\n        /* \"#utility.yul\":4839:4936   */\n      swap3\n      swap2\n      pop\n      pop\n      jump\t// out\n        /* \"#utility.yul\":4942:5122   */\n    tag_46:\n        /* \"#utility.yul\":4990:5067   */\n      0x4e487b7100000000000000000000000000000000000000000000000000000000\n        /* \"#utility.yul\":4987:4988   */\n      0x00\n        /* \"#utility.yul\":4980:5068   */\n      mstore\n        /* \"#utility.yul\":5087:5091   */\n      0x41\n        /* \"#utility.yul\":5084:5085   */\n      0x04\n        /* \"#utility.yul\":5077:5092   */\n      mstore\n        /* \"#utility.yul\":5111:5115   */\n      0x24\n        /* \"#utility.yul\":5108:5109   */\n      0x00\n        /* \"#utility.yul\":5101:5116   */\n      revert\n        /* \"#utility.yul\":5128:5269   */\n    tag_47:\n        /* \"#utility.yul\":5177:5181   */\n      0x00\n        /* \"#utility.yul\":5200:5203   */\n      dup2\n        /* \"#utility.yul\":5192:5203   */\n      swap1\n      pop\n        /* \"#utility.yul\":5223:5226   */\n      dup2\n        /* \"#utility.yul\":5220:5221   */\n      0x00\n        /* \"#utility.yul\":5213:5227   */\n      mstore\n        /* \"#utility.yul\":5257:5261   */\n      0x20\n        /* \"#utility.yul\":5254:5255   */\n      0x00\n        /* \"#utility.yul\":5244:5262   */\n      keccak256\n        /* \"#utility.yul\":5236:5262   */\n      swap1\n      pop\n        /* \"#utility.yul\":5128:5269   */\n      swap2\n      swap1\n      pop\n      jump\t// out\n        /* \"#utility.yul\":5275:5368   */\n    tag_48:\n        /* \"#utility.yul\":5312:5318   */\n      0x00\n        /* \"#utility.yul\":5359:5361   */\n      0x20\n        /* \"#utility.yul\":5354:5356   */\n      0x1f\n        /* \"#utility.yul\":5347:5352   */\n      dup4\n        /* \"#utility.yul\":5343:5357   */\n      add\n        /* \"#utility.yul\":5339:5362   */\n      div\n        /* \"#utility.yul\":5329:5362   */\n      swap1\n      pop\n        /* \"#utility.yul\":5275:5368   */\n      swap2\n      swap1\n      pop\n      jump\t// out\n        /* \"#utility.yul\":5374:5481   */\n    tag_49:\n        /* \"#utility.yul\":5418:5426   */\n      0x00\n        /* \"#utility.yul\":5468:5473   */\n      dup3\n        /* \"#utility.yul\":5462:5466   */\n      dup3\n        /* \"#utility.yul\":5458:5474   */\n      shl\n        /* \"#utility.yul\":5437:5474   */\n      swap1\n      pop\n        /* \"#utility.yul\":5374:5481   */\n      swap3\n      swap2\n      pop\n      pop\n      jump\t// out\n        /* \"#utility.yul\":5487:5880   */\n    tag_50:\n        /* \"#utility.yul\":5556:5562   */\n      0x00\n        /* \"#utility.yul\":5606:5607   */\n      0x08\n        /* \"#utility.yul\":5594:5604   */\n      dup4\n        /* \"#utility.yul\":5590:5608   */\n      mul\n        /* \"#utility.yul\":5629:5726   */\n      tag_118\n        /* \"#utility.yul\":5659:5725   */\n      0xffffffffffffffffffffffffffffffffffffffffffffffffffffffffffffffff\n        /* \"#utility.yul\":5648:5657   */\n      dup3\n        /* \"#utility.yul\":5629:5726   */\n      tag_49\n      jump\t// in\n    tag_118:\n        /* \"#utility.yul\":5747:5786   */\n      tag_119\n        /* \"#utility.yul\":5777:5785   */\n      dup7\n        /* \"#utility.yul\":5766:5775   */\n      dup4\n        /* \"#utility.yul\":5747:5786   */\n      tag_49\n      jump\t// in\n    tag_119:\n        /* \"#utility.yul\":5735:5786   */\n      swap6\n      pop\n        /* \"#utility.yul\":5819:5823   */\n      dup1\n        /* \"#utility.yul\":5815:5824   */\n      not\n        /* \"#utility.yul\":5808:5813   */\n      dup5\n        /* \"#utility.yul\":5804:5825   */\n      and\n        /* \"#utility.yul\":5795:5825   */\n      swap4\n      pop\n        /* \"#utility.yul\":5868:5872   */\n      dup1\n        /* \"#utility.yul\":5858:5866   */\n      dup7\n        /* \"#utility.yul\":5854:5873   */\n      and\n        /* \"#utility.yul\":5847:5852   */\n      dup5\n        /* \"#utility.yul\":5844:5874   */\n      or\n        /* \"#utility.yul\":5834:5874   */\n      swap3\n      pop\n        /* \"#utility.yul\":5563:5880   */\n      pop\n      pop\n        /* \"#utility.yul\":5487:5880   */\n      swap4\n      swap3\n      pop\n      pop\n      pop\n      jump\t// out\n        /* \"#utility.yul\":5886:5946   */\n    tag_51:\n        /* \"#utility.yul\":5914:5917   */\n      0x00\n        /* \"#utility.yul\":5935:5940   */\n      dup2\n        /* \"#utility.yul\":5928:5940   */\n      swap1\n      pop\n        /* \"#utility.yul\":5886:5946   */\n      swap2\n      swap1\n      pop\n      jump\t// out\n        /* \"#utility.yul\":5952:6094   */\n    tag_52:\n        /* \"#utility.yul\":6002:6011   */\n      0x00\n        /* \"#utility.yul\":6035:6088   */\n      tag_122\n        /* \"#utility.yul\":6053:6087   */\n      tag_123\n        /* \"#utility.yul\":6062:6086   */\n      tag_124\n        /* \"#utility.yul\":6080:6085   */\n      dup5\n        /* \"#utility.yul\":6062:6086   */\n      tag_33\n      jump\t// in\n    tag_124:\n        /* \"#utility.yul\":6053:6087   */\n      tag_51\n      jump\t// in\n    tag_123:\n        /* \"#utility.yul\":6035:6088   */\n      tag_33\n      jump\t// in\n    tag_122:\n        /* \"#utility.yul\":6022:6088   */\n      swap1\n      pop\n        /* \"#utility.yul\":5952:6094   */\n      swap2\n      swap1\n      pop\n      jump\t// out\n        /* \"#utility.yul\":6100:6175   */\n    tag_53:\n        /* \"#utility.yul\":6143:6146   */\n      0x00\n        /* \"#utility.yul\":6164:6169   */\n      dup2\n        /* \"#utility.yul\":6157:6169   */\n      swap1\n      pop\n        /* \"#utility.yul\":6100:6175   */\n      swap2\n      swap1\n      pop\n      jump\t// out\n        /* \"#utility.yul\":6181:6450   */\n    tag_54:\n        /* \"#utility.yul\":6291:6330   */\n      tag_127\n        /* \"#utility.yul\":6322:6329   */\n      dup4\n        /* \"#utility.yul\":6291:6330   */\n      tag_52\n      jump\t// in\n    tag_127:\n        /* \"#utility.yul\":6352:6443   */\n      tag_128\n        /* \"#utility.yul\":6401:6442   */\n      tag_129\n        /* \"#utility.yul\":6425:6441   */\n      dup3\n        /* \"#utility.yul\":6401:6442   */\n      tag_53\n      jump\t// in\n    tag_129:\n        /* \"#utility.yul\":6393:6399   */\n      dup5\n        /* \"#utility.yul\":6386:6390   */\n      dup5\n        /* \"#utility.yul\":6380:6391   */\n      sload\n        /* \"#utility.yul\":6352:6443   */\n      tag_50\n      jump\t// in\n    tag_128:\n        /* \"#utility.yul\":6346:6350   */\n      dup3\n        /* \"#utility.yul\":6339:6444   */\n      sstore\n        /* \"#utility.yul\":6257:6450   */\n      pop\n        /* \"#utility.yul\":6181:6450   */\n      pop\n      pop\n      pop\n      jump\t// out\n        /* \"#utility.yul\":6456:6529   */\n    tag_55:\n        /* \"#utility.yul\":6501:6504   */\n      0x00\n        /* \"#utility.yul\":6456:6529   */\n      swap1\n      jump\t// out\n        /* \"#utility.yul\":6535:6724   */\n    tag_56:\n        /* \"#utility.yul\":6612:6644   */\n      tag_132\n      tag_55\n      jump\t// in\n    tag_132:\n        /* \"#utility.yul\":6653:6718   */\n      tag_133\n        /* \"#utility.yul\":6711:6717   */\n      dup2\n        /* \"#utility.yul\":6703:6709   */\n      dup5\n        /* \"#utility.yul\":6697:6701   */\n      dup5\n        /* \"#utility.yul\":6653:6718   */\n      tag_54\n      jump\t// in\n    tag_133:\n        /* \"#utility.yul\":6588:6724   */\n      pop\n        /* \"#utility.yul\":6535:6724   */\n      pop\n      pop\n      jump\t// out\n        /* \"#utility.yul\":6730:6916   */\n    tag_57:\n        /* \"#utility.yul\":6790:6910   */\n    tag_135:\n        /* \"#utility.yul\":6807:6810   */\n      dup2\n        /* \"#utility.yul\":6800:6805   */\n      dup2\n        /* \"#utility.yul\":6797:6811   */\n      lt\n        /* \"#utility.yul\":6790:6910   */\n      iszero\n      tag_137\n      jumpi\n        /* \"#utility.yul\":6861:6900   */\n      tag_138\n        /* \"#utility.yul\":6898:6899   */\n      0x00\n        /* \"#utility.yul\":6891:6896   */\n      dup3\n        /* \"#utility.yul\":6861:6900   */\n      tag_56\n      jump\t// in\n    tag_138:\n        /* \"#utility.yul\":6834:6835   */\n      0x01\n        /* \"#utility.yul\":6827:6832   */\n      dup2\n        /* \"#utility.yul\":6823:6836   */\n      add\n        /* \"#utility.yul\":6814:6836   */\n      swap1\n      pop\n        /* \"#utility.yul\":6790:6910   */\n      jump(tag_135)\n    tag_137:\n        /* \"#utility.yul\":6730:6916   */\n      pop\n      pop\n      jump\t// out\n        /* \"#utility.yul\":6922:7465   */\n    tag_58:\n        /* \"#utility.yul\":7023:7025   */\n      0x1f\n        /* \"#utility.yul\":7018:7021   */\n      dup3\n        /* \"#utility.yul\":7015:7026   */\n      gt\n        /* \"#utility.yul\":7012:7458   */\n      iszero\n      tag_140\n      jumpi\n        /* \"#utility.yul\":7057:7095   */\n      tag_141\n        /* \"#utility.yul\":7089:7094   */\n      dup2\n        /* \"#utility.yul\":7057:7095   */\n      tag_47\n      jump\t// in\n    tag_141:\n        /* \"#utility.yul\":7141:7170   */\n      tag_142\n        /* \"#utility.yul\":7159:7169   */\n      dup5\n        /* \"#utility.yul\":7141:7170   */\n      tag_48\n      jump\t// in\n    tag_142:\n        /* \"#utility.yul\":7131:7139   */\n      dup2\n        /* \"#utility.yul\":7127:7171   */\n      add\n        /* \"#utility.yul\":7324:7326   */\n      0x20\n        /* \"#utility.yul\":7312:7322   */\n      dup6\n        /* \"#utility.yul\":7309:7327   */\n      lt\n        /* \"#utility.yul\":7306:7355   */\n      iszero\n      tag_143\n      jumpi\n        /* \"#utility.yul\":7345:7353   */\n      dup2\n        /* \"#utility.yul\":7330:7353   */\n      swap1\n      pop\n        /* \"#utility.yul\":7306:7355   */\n    tag_143:\n        /* \"#utility.yul\":7368:7448   */\n      tag_144\n        /* \"#utility.yul\":7424:7446   */\n      tag_145\n        /* \"#utility.yul\":7442:7445   */\n      dup6\n        /* \"#utility.yul\":7424:7446   */\n      tag_48\n      jump\t// in\n    tag_145:\n        /* \"#utility.yul\":7414:7422   */\n      dup4\n        /* \"#utility.yul\":7410:7447   */\n      add\n        /* \"#utility.yul\":7397:7408   */\n      dup3\n        /* \"#utility.yul\":7368:7448   */\n      tag_57\n      jump\t// in\n    tag_144:\n        /* \"#utility.yul\":7027:7458   */\n      pop\n      pop\n        /* \"#utility.yul\":7012:7458   */\n    tag_140:\n        /* \"#utility.yul\":6922:7465   */\n      pop\n      pop\n      pop\n      jump\t// out\n        /* \"#utility.yul\":7471:7588   */\n    tag_59:\n        /* \"#utility.yul\":7525:7533   */\n      0x00\n        /* \"#utility.yul\":7575:7580   */\n      dup3\n        /* \"#utility.yul\":7569:7573   */\n      dup3\n        /* \"#utility.yul\":7565:7581   */\n      shr\n        /* \"#utility.yul\":7544:7581   */\n      swap1\n      pop\n        /* \"#utility.yul\":7471:7588   */\n      swap3\n      swap2\n      pop\n      pop\n      jump\t// out\n        /* \"#utility.yul\":7594:7763   */\n    tag_60:\n        /* \"#utility.yul\":7638:7644   */\n      0x00\n        /* \"#utility.yul\":7671:7722   */\n      tag_148\n        /* \"#utility.yul\":7719:7720   */\n      0x00\n        /* \"#utility.yul\":7715:7721   */\n      not\n        /* \"#utility.yul\":7707:7712   */\n      dup5\n        /* \"#utility.yul\":7704:7705   */\n      0x08\n        /* \"#utility.yul\":7700:7713   */\n      mul\n        /* \"#utility.yul\":7671:7722   */\n      tag_59\n      jump\t// in\n    tag_148:\n        /* \"#utility.yul\":7667:7723   */\n      not\n        /* \"#utility.yul\":7752:7756   */\n      dup1\n        /* \"#utility.yul\":7746:7750   */\n      dup4\n        /* \"#utility.yul\":7742:7757   */\n      and\n        /* \"#utility.yul\":7732:7757   */\n      swap2\n      pop\n        /* \"#utility.yul\":7645:7763   */\n      pop\n        /* \"#utility.yul\":7594:7763   */\n      swap3\n      swap2\n      pop\n      pop\n      jump\t// out\n        /* \"#utility.yul\":7768:8063   */\n    tag_61:\n        /* \"#utility.yul\":7844:7848   */\n      0x00\n        /* \"#utility.yul\":7990:8019   */\n      tag_150\n        /* \"#utility.yul\":8015:8018   */\n      dup4\n        /* \"#utility.yul\":8009:8013   */\n      dup4\n        /* \"#utility.yul\":7990:8019   */\n      tag_60\n      jump\t// in\n    tag_150:\n        /* \"#utility.yul\":7982:8019   */\n      swap2\n      pop\n        /* \"#utility.yul\":8052:8055   */\n      dup3\n        /* \"#utility.yul\":8049:8050   */\n      0x02\n        /* \"#utility.yul\":8045:8056   */\n      mul\n        /* \"#utility.yul\":8039:8043   */\n      dup3\n        /* \"#utility.yul\":8036:8057   */\n      or\n        /* \"#utility.yul\":8028:8057   */\n      swap1\n      pop\n        /* \"#utility.yul\":7768:8063   */\n      swap3\n      swap2\n      pop\n      pop\n      jump\t// out\n        /* \"#utility.yul\":8068:9471   */\n    tag_26:\n        /* \"#utility.yul\":8192:8236   */\n      tag_152\n        /* \"#utility.yul\":8232:8235   */\n      dup4\n        /* \"#utility.yul\":8227:8230   */\n      dup4\n        /* \"#utility.yul\":8192:8236   */\n      tag_45\n      jump\t// in\n    tag_152:\n        /* \"#utility.yul\":8301:8319   */\n      0xffffffffffffffff\n        /* \"#utility.yul\":8293:8299   */\n      dup2\n        /* \"#utility.yul\":8290:8320   */\n      gt\n        /* \"#utility.yul\":8287:8343   */\n      iszero\n      tag_153\n      jumpi\n        /* \"#utility.yul\":8323:8341   */\n      tag_154\n      tag_46\n      jump\t// in\n    tag_154:\n        /* \"#utility.yul\":8287:8343   */\n    tag_153:\n        /* \"#utility.yul\":8367:8405   */\n      tag_155\n        /* \"#utility.yul\":8399:8403   */\n      dup3\n        /* \"#utility.yul\":8393:8404   */\n      sload\n        /* \"#utility.yul\":8367:8405   */\n      tag_14\n      jump\t// in\n    tag_155:\n        /* \"#utility.yul\":8452:8519   */\n      tag_156\n        /* \"#utility.yul\":8512:8518   */\n      dup3\n        /* \"#utility.yul\":8504:8510   */\n      dup3\n        /* \"#utility.yul\":8498:8502   */\n      dup6\n        /* \"#utility.yul\":8452:8519   */\n      tag_58\n      jump\t// in\n    tag_156:\n        /* \"#utility.yul\":8546:8547   */\n      0x00\n        /* \"#utility.yul\":8575:8577   */\n      0x1f\n        /* \"#utility.yul\":8567:8573   */\n      dup4\n        /* \"#utility.yul\":8564:8578   */\n      gt\n        /* \"#utility.yul\":8592:8593   */\n      0x01\n        /* \"#utility.yul\":8587:9219   */\n      dup2\n      eq\n      tag_158\n      jumpi\n        /* \"#utility.yul\":9263:9264   */\n      0x00\n        /* \"#utility.yul\":9280:9286   */\n      dup5\n        /* \"#utility.yul\":9277:9361   */\n      iszero\n      tag_159\n      jumpi\n        /* \"#utility.yul\":9336:9345   */\n      dup3\n        /* \"#utility.yul\":9331:9334   */\n      dup8\n        /* \"#utility.yul\":9327:9346   */\n      add\n        /* \"#utility.yul\":9314:9347   */\n      calldataload\n        /* \"#utility.yul\":9305:9347   */\n      swap1\n      pop\n        /* \"#utility.yul\":9277:9361   */\n    tag_159:\n        /* \"#utility.yul\":9387:9454   */\n      tag_160\n        /* \"#utility.yul\":9447:9453   */\n      dup6\n        /* \"#utility.yul\":9440:9445   */\n      dup3\n        /* \"#utility.yul\":9387:9454   */\n      tag_61\n      jump\t// in\n    tag_160:\n        /* \"#utility.yul\":9381:9385   */\n      dup7\n        /* \"#utility.yul\":9374:9455   */\n      sstore\n        /* \"#utility.yul\":9236:9465   */\n      pop\n        /* \"#utility.yul\":8557:9465   */\n      jump(tag_157)\n        /* \"#utility.yul\":8587:9219   */\n    tag_158:\n        /* \"#utility.yul\":8639:8643   */\n      0x1f\n        /* \"#utility.yul\":8635:8644   */\n      not\n        /* \"#utility.yul\":8627:8633   */\n      dup5\n        /* \"#utility.yul\":8623:8645   */\n      and\n        /* \"#utility.yul\":8673:8710   */\n      tag_161\n        /* \"#utility.yul\":8705:8709   */\n      dup7\n        /* \"#utility.yul\":8673:8710   */\n      tag_47\n      jump\t// in\n    tag_161:\n        /* \"#utility.yul\":8732:8733   */\n      0x00\n        /* \"#utility.yul\":8746:8961   */\n    tag_162:\n        /* \"#utility.yul\":8760:8767   */\n      dup3\n        /* \"#utility.yul\":8757:8758   */\n      dup2\n        /* \"#utility.yul\":8754:8768   */\n      lt\n        /* \"#utility.yul\":8746:8961   */\n      iszero\n      tag_164\n      jumpi\n        /* \"#utility.yul\":8846:8855   */\n      dup5\n        /* \"#utility.yul\":8841:8844   */\n      dup10\n        /* \"#utility.yul\":8837:8856   */\n      add\n        /* \"#utility.yul\":8824:8857   */\n      calldataload\n        /* \"#utility.yul\":8816:8822   */\n      dup3\n        /* \"#utility.yul\":8809:8858   */\n      sstore\n        /* \"#utility.yul\":8897:8898   */\n      0x01\n        /* \"#utility.yul\":8889:8895   */\n      dup3\n        /* \"#utility.yul\":8885:8899   */\n      add\n        /* \"#utility.yul\":8875:8899   */\n      swap2\n      pop\n        /* \"#utility.yul\":8944:8946   */\n      0x20\n        /* \"#utility.yul\":8933:8942   */\n      dup6\n        /* \"#utility.yul\":8929:8947   */\n      add\n        /* \"#utility.yul\":8916:8947   */\n      swap5\n      pop\n        /* \"#utility.yul\":8783:8787   */\n      0x20\n        /* \"#utility.yul\":8780:8781   */\n      dup2\n        /* \"#utility.yul\":8776:8788   */\n      add\n        /* \"#utility.yul\":8771:8788   */\n      swap1\n      pop\n        /* \"#utility.yul\":8746:8961   */\n      jump(tag_162)\n    tag_164:\n        /* \"#utility.yul\":8989:8995   */\n      dup7\n        /* \"#utility.yul\":8980:8987   */\n      dup4\n        /* \"#utility.yul\":8977:8996   */\n      lt\n        /* \"#utility.yul\":8974:9160   */\n      iszero\n      tag_165\n      jumpi\n        /* \"#utility.yul\":9054:9063   */\n      dup5\n        /* \"#utility.yul\":9049:9052   */\n      dup10\n        /* \"#utility.yul\":9045:9064   */\n      add\n        /* \"#utility.yul\":9032:9065   */\n      calldataload\n        /* \"#utility.yul\":9097:9145   */\n      tag_166\n        /* \"#utility.yul\":9139:9143   */\n      0x1f\n        /* \"#utility.yul\":9131:9137   */\n      dup10\n        /* \"#utility.yul\":9127:9144   */\n      and\n        /* \"#utility.yul\":9116:9125   */\n      dup3\n        /* \"#utility.yul\":9097:9145   */\n      tag_60\n      jump\t// in\n    tag_166:\n        /* \"#utility.yul\":9089:9095   */\n      dup4\n        /* \"#utility.yul\":9082:9146   */\n      sstore\n        /* \"#utility.yul\":8997:9160   */\n      pop\n        /* \"#utility.yul\":8974:9160   */\n    tag_165:\n        /* \"#utility.yul\":9206:9207   */\n      0x01\n        /* \"#utility.yul\":9202:9203   */\n      0x02\n        /* \"#utility.yul\":9194:9200   */\n      dup9\n        /* \"#utility.yul\":9190:9204   */\n      mul\n        /* \"#utility.yul\":9186:9208   */\n      add\n        /* \"#utility.yul\":9180:9184   */\n      dup9\n        /* \"#utility.yul\":9173:9209   */\n      sstore\n        /* \"#utility.yul\":8594:9219   */\n      pop\n      pop\n      pop\n        /* \"#utility.yul\":8557:9465   */\n    tag_157:\n      pop\n        /* \"#utility.yul\":8167:9471   */\n      pop\n      pop\n      pop\n        /* \"#utility.yul\":8068:9471   */\n      pop\n      pop\n      pop\n      jump\t// out\n\n    auxdata: 0xa26469706673582212200256d26cf356479c73e6a2939f4d8ac857bcdc052484fb9dfdc74dcc824f7bee64736f6c634300081a0033\n}\n",
				"bytecode": {
					"linkReferences": {},
					"object": "6080604052348015600e575f80fd5b506106f08061001c5f395ff3fe608060405234801561000f575f80fd5b5060043610610034575f3560e01c806377ec2b5514610038578063ef46b77c14610058575b5f80fd5b610040610074565b60405161004f93929190610255565b60405180910390f35b610072600480360381019061006d919061032b565b610196565b005b5f805f018054610083906103e9565b80601f01602080910402602001604051908101604052809291908181526020018280546100af906103e9565b80156100fa5780601f106100d1576101008083540402835291602001916100fa565b820191905f5260205f20905b8154815290600101906020018083116100dd57829003601f168201915b50505050509080600101805461010f906103e9565b80601f016020809104026020016040519081016040528092919081815260200182805461013b906103e9565b80156101865780601f1061015d57610100808354040283529160200191610186565b820191905f5260205f20905b81548152906001019060200180831161016957829003601f168201915b5050505050908060020154905083565b84845f800191826101a89291906105ed565b5082825f60010191826101bc9291906105ed565b50805f600201819055505050505050565b5f81519050919050565b5f82825260208201905092915050565b8281835e5f83830152505050565b5f601f19601f8301169050919050565b5f61020f826101cd565b61021981856101d7565b93506102298185602086016101e7565b610232816101f5565b840191505092915050565b5f819050919050565b61024f8161023d565b82525050565b5f6060820190508181035f83015261026d8186610205565b905081810360208301526102818185610205565b90506102906040830184610246565b949350505050565b5f80fd5b5f80fd5b5f80fd5b5f80fd5b5f80fd5b5f8083601f8401126102c1576102c06102a0565b5b8235905067ffffffffffffffff8111156102de576102dd6102a4565b5b6020830191508360018202830111156102fa576102f96102a8565b5b9250929050565b61030a8161023d565b8114610314575f80fd5b50565b5f8135905061032581610301565b92915050565b5f805f805f6060868803121561034457610343610298565b5b5f86013567ffffffffffffffff8111156103615761036061029c565b5b61036d888289016102ac565b9550955050602086013567ffffffffffffffff8111156103905761038f61029c565b5b61039c888289016102ac565b935093505060406103af88828901610317565b9150509295509295909350565b7f4e487b71000000000000000000000000000000000000000000000000000000005f52602260045260245ffd5b5f600282049050600182168061040057607f821691505b602082108103610413576104126103bc565b5b50919050565b5f82905092915050565b7f4e487b71000000000000000000000000000000000000000000000000000000005f52604160045260245ffd5b5f819050815f5260205f209050919050565b5f6020601f8301049050919050565b5f82821b905092915050565b5f600883026104ac7fffffffffffffffffffffffffffffffffffffffffffffffffffffffffffffffff82610471565b6104b68683610471565b95508019841693508086168417925050509392505050565b5f819050919050565b5f6104f16104ec6104e78461023d565b6104ce565b61023d565b9050919050565b5f819050919050565b61050a836104d7565b61051e610516826104f8565b84845461047d565b825550505050565b5f90565b610532610526565b61053d818484610501565b505050565b5b81811015610560576105555f8261052a565b600181019050610543565b5050565b601f8211156105a55761057681610450565b61057f84610462565b8101602085101561058e578190505b6105a261059a85610462565b830182610542565b50505b505050565b5f82821c905092915050565b5f6105c55f19846008026105aa565b1980831691505092915050565b5f6105dd83836105b6565b9150826002028217905092915050565b6105f78383610419565b67ffffffffffffffff8111156106105761060f610423565b5b61061a82546103e9565b610625828285610564565b5f601f831160018114610652575f8415610640578287013590505b61064a85826105d2565b8655506106b1565b601f19841661066086610450565b5f5b8281101561068757848901358255600182019150602085019450602081019050610662565b868310156106a457848901356106a0601f8916826105b6565b8355505b6001600288020188555050505b5050505050505056fea26469706673582212200256d26cf356479c73e6a2939f4d8ac857bcdc052484fb9dfdc74dcc824f7bee64736f6c634300081a0033",
					"opcodes": "PUSH1 0x80 PUSH1 0x40 MSTORE CALLVALUE DUP1 ISZERO PUSH1 0xE JUMPI PUSH0 DUP1 REVERT JUMPDEST POP PUSH2 0x6F0 DUP1 PUSH2 0x1C PUSH0 CODECOPY PUSH0 RETURN INVALID PUSH1 0x80 PUSH1 0x40 MSTORE CALLVALUE DUP1 ISZERO PUSH2 0xF JUMPI PUSH0 DUP1 REVERT JUMPDEST POP PUSH1 0x4 CALLDATASIZE LT PUSH2 0x34 JUMPI PUSH0 CALLDATALOAD PUSH1 0xE0 SHR DUP1 PUSH4 0x77EC2B55 EQ PUSH2 0x38 JUMPI DUP1 PUSH4 0xEF46B77C EQ PUSH2 0x58 JUMPI JUMPDEST PUSH0 DUP1 REVERT JUMPDEST PUSH2 0x40 PUSH2 0x74 JUMP JUMPDEST PUSH1 0x40 MLOAD PUSH2 0x4F SWAP4 SWAP3 SWAP2 SWAP1 PUSH2 0x255 JUMP JUMPDEST PUSH1 0x40 MLOAD DUP1 SWAP2 SUB SWAP1 RETURN JUMPDEST PUSH2 0x72 PUSH1 0x4 DUP1 CALLDATASIZE SUB DUP2 ADD SWAP1 PUSH2 0x6D SWAP2 SWAP1 PUSH2 0x32B JUMP JUMPDEST PUSH2 0x196 JUMP JUMPDEST STOP JUMPDEST PUSH0 DUP1 PUSH0 ADD DUP1 SLOAD PUSH2 0x83 SWAP1 PUSH2 0x3E9 JUMP JUMPDEST DUP1 PUSH1 0x1F ADD PUSH1 0x20 DUP1 SWAP2 DIV MUL PUSH1 0x20 ADD PUSH1 0x40 MLOAD SWAP1 DUP2 ADD PUSH1 0x40 MSTORE DUP1 SWAP3 SWAP2 SWAP1 DUP2 DUP2 MSTORE PUSH1 0x20 ADD DUP3 DUP1 SLOAD PUSH2 0xAF SWAP1 PUSH2 0x3E9 JUMP JUMPDEST DUP1 ISZERO PUSH2 0xFA JUMPI DUP1 PUSH1 0x1F LT PUSH2 0xD1 JUMPI PUSH2 0x100 DUP1 DUP4 SLOAD DIV MUL DUP4 MSTORE SWAP2 PUSH1 0x20 ADD SWAP2 PUSH2 0xFA JUMP JUMPDEST DUP3 ADD SWAP2 SWAP1 PUSH0 MSTORE PUSH1 0x20 PUSH0 KECCAK256 SWAP1 JUMPDEST DUP2 SLOAD DUP2 MSTORE SWAP1 PUSH1 0x1 ADD SWAP1 PUSH1 0x20 ADD DUP1 DUP4 GT PUSH2 0xDD JUMPI DUP3 SWAP1 SUB PUSH1 0x1F AND DUP3 ADD SWAP2 JUMPDEST POP POP POP POP POP SWAP1 DUP1 PUSH1 0x1 ADD DUP1 SLOAD PUSH2 0x10F SWAP1 PUSH2 0x3E9 JUMP JUMPDEST DUP1 PUSH1 0x1F ADD PUSH1 0x20 DUP1 SWAP2 DIV MUL PUSH1 0x20 ADD PUSH1 0x40 MLOAD SWAP1 DUP2 ADD PUSH1 0x40 MSTORE DUP1 SWAP3 SWAP2 SWAP1 DUP2 DUP2 MSTORE PUSH1 0x20 ADD DUP3 DUP1 SLOAD PUSH2 0x13B SWAP1 PUSH2 0x3E9 JUMP JUMPDEST DUP1 ISZERO PUSH2 0x186 JUMPI DUP1 PUSH1 0x1F LT PUSH2 0x15D JUMPI PUSH2 0x100 DUP1 DUP4 SLOAD DIV MUL DUP4 MSTORE SWAP2 PUSH1 0x20 ADD SWAP2 PUSH2 0x186 JUMP JUMPDEST DUP3 ADD SWAP2 SWAP1 PUSH0 MSTORE PUSH1 0x20 PUSH0 KECCAK256 SWAP1 JUMPDEST DUP2 SLOAD DUP2 MSTORE SWAP1 PUSH1 0x1 ADD SWAP1 PUSH1 0x20 ADD DUP1 DUP4 GT PUSH2 0x169 JUMPI DUP3 SWAP1 SUB PUSH1 0x1F AND DUP3 ADD SWAP2 JUMPDEST POP POP POP POP POP SWAP1 DUP1 PUSH1 0x2 ADD SLOAD SWAP1 POP DUP4 JUMP JUMPDEST DUP5 DUP5 PUSH0 DUP1 ADD SWAP2 DUP3 PUSH2 0x1A8 SWAP3 SWAP2 SWAP1 PUSH2 0x5ED JUMP JUMPDEST POP DUP3 DUP3 PUSH0 PUSH1 0x1 ADD SWAP2 DUP3 PUSH2 0x1BC SWAP3 SWAP2 SWAP1 PUSH2 0x5ED JUMP JUMPDEST POP DUP1 PUSH0 PUSH1 0x2 ADD DUP2 SWAP1 SSTORE POP POP POP POP POP POP JUMP JUMPDEST PUSH0 DUP2 MLOAD SWAP1 POP SWAP2 SWAP1 POP JUMP JUMPDEST PUSH0 DUP3 DUP3 MSTORE PUSH1 0x20 DUP3 ADD SWAP1 POP SWAP3 SWAP2 POP POP JUMP JUMPDEST DUP3 DUP2 DUP4 MCOPY PUSH0 DUP4 DUP4 ADD MSTORE POP POP POP JUMP JUMPDEST PUSH0 PUSH1 0x1F NOT PUSH1 0x1F DUP4 ADD AND SWAP1 POP SWAP2 SWAP1 POP JUMP JUMPDEST PUSH0 PUSH2 0x20F DUP3 PUSH2 0x1CD JUMP JUMPDEST PUSH2 0x219 DUP2 DUP6 PUSH2 0x1D7 JUMP JUMPDEST SWAP4 POP PUSH2 0x229 DUP2 DUP6 PUSH1 0x20 DUP7 ADD PUSH2 0x1E7 JUMP JUMPDEST PUSH2 0x232 DUP2 PUSH2 0x1F5 JUMP JUMPDEST DUP5 ADD SWAP2 POP POP SWAP3 SWAP2 POP POP JUMP JUMPDEST PUSH0 DUP2 SWAP1 POP SWAP2 SWAP1 POP JUMP JUMPDEST PUSH2 0x24F DUP2 PUSH2 0x23D JUMP JUMPDEST DUP3 MSTORE POP POP JUMP JUMPDEST PUSH0 PUSH1 0x60 DUP3 ADD SWAP1 POP DUP2 DUP2 SUB PUSH0 DUP4 ADD MSTORE PUSH2 0x26D DUP2 DUP7 PUSH2 0x205 JUMP JUMPDEST SWAP1 POP DUP2 DUP2 SUB PUSH1 0x20 DUP4 ADD MSTORE PUSH2 0x281 DUP2 DUP6 PUSH2 0x205 JUMP JUMPDEST SWAP1 POP PUSH2 0x290 PUSH1 0x40 DUP4 ADD DUP5 PUSH2 0x246 JUMP JUMPDEST SWAP5 SWAP4 POP POP POP POP JUMP JUMPDEST PUSH0 DUP1 REVERT JUMPDEST PUSH0 DUP1 REVERT JUMPDEST PUSH0 DUP1 REVERT JUMPDEST PUSH0 DUP1 REVERT JUMPDEST PUSH0 DUP1 REVERT JUMPDEST PUSH0 DUP1 DUP4 PUSH1 0x1F DUP5 ADD SLT PUSH2 0x2C1 JUMPI PUSH2 0x2C0 PUSH2 0x2A0 JUMP JUMPDEST JUMPDEST DUP3 CALLDATALOAD SWAP1 POP PUSH8 0xFFFFFFFFFFFFFFFF DUP2 GT ISZERO PUSH2 0x2DE JUMPI PUSH2 0x2DD PUSH2 0x2A4 JUMP JUMPDEST JUMPDEST PUSH1 0x20 DUP4 ADD SWAP2 POP DUP4 PUSH1 0x1 DUP3 MUL DUP4 ADD GT ISZERO PUSH2 0x2FA JUMPI PUSH2 0x2F9 PUSH2 0x2A8 JUMP JUMPDEST JUMPDEST SWAP3 POP SWAP3 SWAP1 POP JUMP JUMPDEST PUSH2 0x30A DUP2 PUSH2 0x23D JUMP JUMPDEST DUP2 EQ PUSH2 0x314 JUMPI PUSH0 DUP1 REVERT JUMPDEST POP JUMP JUMPDEST PUSH0 DUP2 CALLDATALOAD SWAP1 POP PUSH2 0x325 DUP2 PUSH2 0x301 JUMP JUMPDEST SWAP3 SWAP2 POP POP JUMP JUMPDEST PUSH0 DUP1 PUSH0 DUP1 PUSH0 PUSH1 0x60 DUP7 DUP9 SUB SLT ISZERO PUSH2 0x344 JUMPI PUSH2 0x343 PUSH2 0x298 JUMP JUMPDEST JUMPDEST PUSH0 DUP7 ADD CALLDATALOAD PUSH8 0xFFFFFFFFFFFFFFFF DUP2 GT ISZERO PUSH2 0x361 JUMPI PUSH2 0x360 PUSH2 0x29C JUMP JUMPDEST JUMPDEST PUSH2 0x36D DUP9 DUP3 DUP10 ADD PUSH2 0x2AC JUMP JUMPDEST SWAP6 POP SWAP6 POP POP PUSH1 0x20 DUP7 ADD CALLDATALOAD PUSH8 0xFFFFFFFFFFFFFFFF DUP2 GT ISZERO PUSH2 0x390 JUMPI PUSH2 0x38F PUSH2 0x29C JUMP JUMPDEST JUMPDEST PUSH2 0x39C DUP9 DUP3 DUP10 ADD PUSH2 0x2AC JUMP JUMPDEST SWAP4 POP SWAP4 POP POP PUSH1 0x40 PUSH2 0x3AF DUP9 DUP3 DUP10 ADD PUSH2 0x317 JUMP JUMPDEST SWAP2 POP POP SWAP3 SWAP6 POP SWAP3 SWAP6 SWAP1 SWAP4 POP JUMP JUMPDEST PUSH32 0x4E487B7100000000000000000000000000000000000000000000000000000000 PUSH0 MSTORE PUSH1 0x22 PUSH1 0x4 MSTORE PUSH1 0x24 PUSH0 REVERT JUMPDEST PUSH0 PUSH1 0x2 DUP3 DIV SWAP1 POP PUSH1 0x1 DUP3 AND DUP1 PUSH2 0x400 JUMPI PUSH1 0x7F DUP3 AND SWAP2 POP JUMPDEST PUSH1 0x20 DUP3 LT DUP2 SUB PUSH2 0x413 JUMPI PUSH2 0x412 PUSH2 0x3BC JUMP JUMPDEST JUMPDEST POP SWAP2 SWAP1 POP JUMP JUMPDEST PUSH0 DUP3 SWAP1 POP SWAP3 SWAP2 POP POP JUMP JUMPDEST PUSH32 0x4E487B7100000000000000000000000000000000000000000000000000000000 PUSH0 MSTORE PUSH1 0x41 PUSH1 0x4 MSTORE PUSH1 0x24 PUSH0 REVERT JUMPDEST PUSH0 DUP2 SWAP1 POP DUP2 PUSH0 MSTORE PUSH1 0x20 PUSH0 KECCAK256 SWAP1 POP SWAP2 SWAP1 POP JUMP JUMPDEST PUSH0 PUSH1 0x20 PUSH1 0x1F DUP4 ADD DIV SWAP1 POP SWAP2 SWAP1 POP JUMP JUMPDEST PUSH0 DUP3 DUP3 SHL SWAP1 POP SWAP3 SWAP2 POP POP JUMP JUMPDEST PUSH0 PUSH1 0x8 DUP4 MUL PUSH2 0x4AC PUSH32 0xFFFFFFFFFFFFFFFFFFFFFFFFFFFFFFFFFFFFFFFFFFFFFFFFFFFFFFFFFFFFFFFF DUP3 PUSH2 0x471 JUMP JUMPDEST PUSH2 0x4B6 DUP7 DUP4 PUSH2 0x471 JUMP JUMPDEST SWAP6 POP DUP1 NOT DUP5 AND SWAP4 POP DUP1 DUP7 AND DUP5 OR SWAP3 POP POP POP SWAP4 SWAP3 POP POP POP JUMP JUMPDEST PUSH0 DUP2 SWAP1 POP SWAP2 SWAP1 POP JUMP JUMPDEST PUSH0 PUSH2 0x4F1 PUSH2 0x4EC PUSH2 0x4E7 DUP5 PUSH2 0x23D JUMP JUMPDEST PUSH2 0x4CE JUMP JUMPDEST PUSH2 0x23D JUMP JUMPDEST SWAP1 POP SWAP2 SWAP1 POP JUMP JUMPDEST PUSH0 DUP2 SWAP1 POP SWAP2 SWAP1 POP JUMP JUMPDEST PUSH2 0x50A DUP4 PUSH2 0x4D7 JUMP JUMPDEST PUSH2 0x51E PUSH2 0x516 DUP3 PUSH2 0x4F8 JUMP JUMPDEST DUP5 DUP5 SLOAD PUSH2 0x47D JUMP JUMPDEST DUP3 SSTORE POP POP POP POP JUMP JUMPDEST PUSH0 SWAP1 JUMP JUMPDEST PUSH2 0x532 PUSH2 0x526 JUMP JUMPDEST PUSH2 0x53D DUP2 DUP5 DUP5 PUSH2 0x501 JUMP JUMPDEST POP POP POP JUMP JUMPDEST JUMPDEST DUP2 DUP2 LT ISZERO PUSH2 0x560 JUMPI PUSH2 0x555 PUSH0 DUP3 PUSH2 0x52A JUMP JUMPDEST PUSH1 0x1 DUP2 ADD SWAP1 POP PUSH2 0x543 JUMP JUMPDEST POP POP JUMP JUMPDEST PUSH1 0x1F DUP3 GT ISZERO PUSH2 0x5A5 JUMPI PUSH2 0x576 DUP2 PUSH2 0x450 JUMP JUMPDEST PUSH2 0x57F DUP5 PUSH2 0x462 JUMP JUMPDEST DUP2 ADD PUSH1 0x20 DUP6 LT ISZERO PUSH2 0x58E JUMPI DUP2 SWAP1 POP JUMPDEST PUSH2 0x5A2 PUSH2 0x59A DUP6 PUSH2 0x462 JUMP JUMPDEST DUP4 ADD DUP3 PUSH2 0x542 JUMP JUMPDEST POP POP JUMPDEST POP POP POP JUMP JUMPDEST PUSH0 DUP3 DUP3 SHR SWAP1 POP SWAP3 SWAP2 POP POP JUMP JUMPDEST PUSH0 PUSH2 0x5C5 PUSH0 NOT DUP5 PUSH1 0x8 MUL PUSH2 0x5AA JUMP JUMPDEST NOT DUP1 DUP4 AND SWAP2 POP POP SWAP3 SWAP2 POP POP JUMP JUMPDEST PUSH0 PUSH2 0x5DD DUP4 DUP4 PUSH2 0x5B6 JUMP JUMPDEST SWAP2 POP DUP3 PUSH1 0x2 MUL DUP3 OR SWAP1 POP SWAP3 SWAP2 POP POP JUMP JUMPDEST PUSH2 0x5F7 DUP4 DUP4 PUSH2 0x419 JUMP JUMPDEST PUSH8 0xFFFFFFFFFFFFFFFF DUP2 GT ISZERO PUSH2 0x610 JUMPI PUSH2 0x60F PUSH2 0x423 JUMP JUMPDEST JUMPDEST PUSH2 0x61A DUP3 SLOAD PUSH2 0x3E9 JUMP JUMPDEST PUSH2 0x625 DUP3 DUP3 DUP6 PUSH2 0x564 JUMP JUMPDEST PUSH0 PUSH1 0x1F DUP4 GT PUSH1 0x1 DUP2 EQ PUSH2 0x652 JUMPI PUSH0 DUP5 ISZERO PUSH2 0x640 JUMPI DUP3 DUP8 ADD CALLDATALOAD SWAP1 POP JUMPDEST PUSH2 0x64A DUP6 DUP3 PUSH2 0x5D2 JUMP JUMPDEST DUP7 SSTORE POP PUSH2 0x6B1 JUMP JUMPDEST PUSH1 0x1F NOT DUP5 AND PUSH2 0x660 DUP7 PUSH2 0x450 JUMP JUMPDEST PUSH0 JUMPDEST DUP3 DUP2 LT ISZERO PUSH2 0x687 JUMPI DUP5 DUP10 ADD CALLDATALOAD DUP3 SSTORE PUSH1 0x1 DUP3 ADD SWAP2 POP PUSH1 0x20 DUP6 ADD SWAP5 POP PUSH1 0x20 DUP2 ADD SWAP1 POP PUSH2 0x662 JUMP JUMPDEST DUP7 DUP4 LT ISZERO PUSH2 0x6A4 JUMPI DUP5 DUP10 ADD CALLDATALOAD PUSH2 0x6A0 PUSH1 0x1F DUP10 AND DUP3 PUSH2 0x5B6 JUMP JUMPDEST DUP4 SSTORE POP JUMPDEST PUSH1 0x1 PUSH1 0x2 DUP9 MUL ADD DUP9 SSTORE POP POP POP JUMPDEST POP POP POP POP POP POP POP JUMP INVALID LOG2 PUSH5 0x6970667358 0x22 SLT KECCAK256 MUL JUMP 0xD2 PUSH13 0xF356479C73E6A2939F4D8AC857 0xBC 0xDC SDIV 0x24 DUP5 0xFB SWAP14 REVERT 0xC7 0x4D 0xCC DUP3 0x4F PUSH28 0xEE64736F6C634300081A003300000000000000000000000000000000 "
				},
				"gasEstimates": {
					"creation": {
						"codeDepositCost": "355200",
						"executionCost": "391",
						"totalCost": "355591"
					},
					"external": {
						"initial(string,string,uint256)": "infinite",
						"person()": "infinite"
					}
				},
				"methodIdentifiers": {
					"initial(string,string,uint256)": "ef46b77c",
					"person()": "77ec2b55"
				}
			},
			"storageLayout": {
				"storage": [
					{
						"astId": 11,
						"contract": "StructType.sol:StructType",
						"label": "person",
						"offset": 0,
						"slot": "0",
						"type": "t_struct(Person)8_storage"
					}
				],
				"types": {
					"t_string_storage": {
						"encoding": "bytes",
						"label": "string",
						"numberOfBytes": "32"
					},
					"t_struct(Person)8_storage": {
						"encoding": "inplace",
						"label": "struct StructType.Person",
						"members": [
							{
								"astId": 3,
								"contract": "StructType.sol:StructType",
								"label": "name",
								"offset": 0,
								"slot": "0",
								"type": "t_string_storage"
							},
							{
								"astId": 5,
								"contract": "StructType.sol:StructType",
								"label": "gender",
								"offset": 0,
								"slot": "1",
								"type": "t_string_storage"
							},
							{
								"astId": 7,
								"contract": "StructType.sol:StructType",
								"label": "age",
								"offset": 0,
								"slot": "2",
								"type": "t_uint256"
							}
						],
						"numberOfBytes": "96"
					},
					"t_uint256": {
						"encoding": "inplace",
						"label": "uint256",
						"numberOfBytes": "32"
					}
				}
			},
			"userdoc": {
				"kind": "user",
				"methods": {},
				"version": 1
			}
		}
	}
}