{
	"data": {
		"bytecode": {
			"linkReferences": {},
			"object": "608060405260405180604001604052806040518060400160405280600160ff168152602001600260ff1681525081526020016040518060400160405280600160ff168152602001600260ff168152508152505f906002610060929190610072565b5034801561006c575f80fd5b50610151565b826002800281019282156100b1579160200282015b828111156100b0578251829060026100a09291906100c2565b5091602001919060020190610087565b5b5090506100be9190610107565b5090565b82600281019282156100f6579160200282015b828111156100f5578251829060ff169055916020019190600101906100d5565b5b509050610103919061012a565b5090565b5b80821115610126575f818161011d9190610145565b50600201610108565b5090565b5b80821115610141575f815f90555060010161012b565b5090565b505f81556001015f9055565b61038d8061015e5f395ff3fe608060405234801561000f575f80fd5b5060043610610034575f3560e01c80630825531814610038578063ec5d52c114610054575b5f80fd5b610052600480360381019061004d91906101ab565b610072565b005b61005c6100a4565b6040516100699190610311565b60405180910390f35b805f80600281106100865761008561032a565b5b600202015f6002811061009c5761009b61032a565b5b018190555050565b6100ac610125565b5f600280602002604051908101604052809291905f905b8282101561011c57838260020201600280602002604051908101604052809291908260028015610108576020028201915b8154815260200190600101908083116100f4575b5050505050815260200190600101906100c3565b50505050905090565b60405180604001604052806002905b61013c610152565b8152602001906001900390816101345790505090565b6040518060400160405280600290602082028036833780820191505090505090565b5f80fd5b5f819050919050565b61018a81610178565b8114610194575f80fd5b50565b5f813590506101a581610181565b92915050565b5f602082840312156101c0576101bf610174565b5b5f6101cd84828501610197565b91505092915050565b5f60029050919050565b5f81905092915050565b5f819050919050565b5f60029050919050565b5f81905092915050565b5f819050919050565b61021981610178565b82525050565b5f61022a8383610210565b60208301905092915050565b5f602082019050919050565b61024b816101f3565b61025581846101fd565b925061026082610207565b805f5b83811015610290578151610277878261021f565b965061028283610236565b925050600181019050610263565b505050505050565b5f6102a38383610242565b60408301905092915050565b5f602082019050919050565b6102c4816101d6565b6102ce81846101e0565b92506102d9826101ea565b805f5b838110156103095781516102f08782610298565b96506102fb836102af565b9250506001810190506102dc565b505050505050565b5f6080820190506103245f8301846102bb565b92915050565b7f4e487b71000000000000000000000000000000000000000000000000000000005f52603260045260245ffdfea2646970667358221220a465909596612ba29520511758dbf1c8909b96d647f4e056fdf9a248e0b3254364736f6c634300081a0033",
			"opcodes": "PUSH1 0x80 PUSH1 0x40 MSTORE PUSH1 0x40 MLOAD DUP1 PUSH1 0x40 ADD PUSH1 0x40 MSTORE DUP1 PUSH1 0x40 MLOAD DUP1 PUSH1 0x40 ADD PUSH1 0x40 MSTORE DUP1 PUSH1 0x1 PUSH1 0xFF AND DUP2 MSTORE PUSH1 0x20 ADD PUSH1 0x2 PUSH1 0xFF AND DUP2 MSTORE POP DUP2 MSTORE PUSH1 0x20 ADD PUSH1 0x40 MLOAD DUP1 PUSH1 0x40 ADD PUSH1 0x40 MSTORE DUP1 PUSH1 0x1 PUSH1 0xFF AND DUP2 MSTORE PUSH1 0x20 ADD PUSH1 0x2 PUSH1 0xFF AND DUP2 MSTORE POP DUP2 MSTORE POP PUSH0 SWAP1 PUSH1 0x2 PUSH2 0x60 SWAP3 SWAP2 SWAP1 PUSH2 0x72 JUMP JUMPDEST POP CALLVALUE DUP1 ISZERO PUSH2 0x6C JUMPI PUSH0 DUP1 REVERT JUMPDEST POP PUSH2 0x151 JUMP JUMPDEST DUP3 PUSH1 0x2 DUP1 MUL DUP2 ADD SWAP3 DUP3 ISZERO PUSH2 0xB1 JUMPI SWAP2 PUSH1 0x20 MUL DUP3 ADD JUMPDEST DUP3 DUP2 GT ISZERO PUSH2 0xB0 JUMPI DUP3 MLOAD DUP3 SWAP1 PUSH1 0x2 PUSH2 0xA0 SWAP3 SWAP2 SWAP1 PUSH2 0xC2 JUMP JUMPDEST POP SWAP2 PUSH1 0x20 ADD SWAP2 SWAP1 PUSH1 0x2 ADD SWAP1 PUSH2 0x87 JUMP JUMPDEST JUMPDEST POP SWAP1 POP PUSH2 0xBE SWAP2 SWAP1 PUSH2 0x107 JUMP JUMPDEST POP SWAP1 JUMP JUMPDEST DUP3 PUSH1 0x2 DUP2 ADD SWAP3 DUP3 ISZERO PUSH2 0xF6 JUMPI SWAP2 PUSH1 0x20 MUL DUP3 ADD JUMPDEST DUP3 DUP2 GT ISZERO PUSH2 0xF5 JUMPI DUP3 MLOAD DUP3 SWAP1 PUSH1 0xFF AND SWAP1 SSTORE SWAP2 PUSH1 0x20 ADD SWAP2 SWAP1 PUSH1 0x1 ADD SWAP1 PUSH2 0xD5 JUMP JUMPDEST JUMPDEST POP SWAP1 POP PUSH2 0x103 SWAP2 SWAP1 PUSH2 0x12A JUMP JUMPDEST POP SWAP1 JUMP JUMPDEST JUMPDEST DUP1 DUP3 GT ISZERO PUSH2 0x126 JUMPI PUSH0 DUP2 DUP2 PUSH2 0x11D SWAP2 SWAP1 PUSH2 0x145 JUMP JUMPDEST POP PUSH1 0x2 ADD PUSH2 0x108 JUMP JUMPDEST POP SWAP1 JUMP JUMPDEST JUMPDEST DUP1 DUP3 GT ISZERO PUSH2 0x141 JUMPI PUSH0 DUP2 PUSH0 SWAP1 SSTORE POP PUSH1 0x1 ADD PUSH2 0x12B JUMP JUMPDEST POP SWAP1 JUMP JUMPDEST POP PUSH0 DUP2 SSTORE PUSH1 0x1 ADD PUSH0 SWAP1 SSTORE JUMP JUMPDEST PUSH2 0x38D DUP1 PUSH2 0x15E PUSH0 CODECOPY PUSH0 RETURN INVALID PUSH1 0x80 PUSH1 0x40 MSTORE CALLVALUE DUP1 ISZERO PUSH2 0xF JUMPI PUSH0 DUP1 REVERT JUMPDEST POP PUSH1 0x4 CALLDATASIZE LT PUSH2 0x34 JUMPI PUSH0 CALLDATALOAD PUSH1 0xE0 SHR DUP1 PUSH4 0x8255318 EQ PUSH2 0x38 JUMPI DUP1 PUSH4 0xEC5D52C1 EQ PUSH2 0x54 JUMPI JUMPDEST PUSH0 DUP1 REVERT JUMPDEST PUSH2 0x52 PUSH1 0x4 DUP1 CALLDATASIZE SUB DUP2 ADD SWAP1 PUSH2 0x4D SWAP2 SWAP1 PUSH2 0x1AB JUMP JUMPDEST PUSH2 0x72 JUMP JUMPDEST STOP JUMPDEST PUSH2 0x5C PUSH2 0xA4 JUMP JUMPDEST PUSH1 0x40 MLOAD PUSH2 0x69 SWAP2 SWAP1 PUSH2 0x311 JUMP JUMPDEST PUSH1 0x40 MLOAD DUP1 SWAP2 SUB SWAP1 RETURN JUMPDEST DUP1 PUSH0 DUP1 PUSH1 0x2 DUP2 LT PUSH2 0x86 JUMPI PUSH2 0x85 PUSH2 0x32A JUMP JUMPDEST JUMPDEST PUSH1 0x2 MUL ADD PUSH0 PUSH1 0x2 DUP2 LT PUSH2 0x9C JUMPI PUSH2 0x9B PUSH2 0x32A JUMP JUMPDEST JUMPDEST ADD DUP2 SWAP1 SSTORE POP POP JUMP JUMPDEST PUSH2 0xAC PUSH2 0x125 JUMP JUMPDEST PUSH0 PUSH1 0x2 DUP1 PUSH1 0x20 MUL PUSH1 0x40 MLOAD SWAP1 DUP2 ADD PUSH1 0x40 MSTORE DUP1 SWAP3 SWAP2 SWAP1 PUSH0 SWAP1 JUMPDEST DUP3 DUP3 LT ISZERO PUSH2 0x11C JUMPI DUP4 DUP3 PUSH1 0x2 MUL ADD PUSH1 0x2 DUP1 PUSH1 0x20 MUL PUSH1 0x40 MLOAD SWAP1 DUP2 ADD PUSH1 0x40 MSTORE DUP1 SWAP3 SWAP2 SWAP1 DUP3 PUSH1 0x2 DUP1 ISZERO PUSH2 0x108 JUMPI PUSH1 0x20 MUL DUP3 ADD SWAP2 JUMPDEST DUP2 SLOAD DUP2 MSTORE PUSH1 0x20 ADD SWAP1 PUSH1 0x1 ADD SWAP1 DUP1 DUP4 GT PUSH2 0xF4 JUMPI JUMPDEST POP POP POP POP POP DUP2 MSTORE PUSH1 0x20 ADD SWAP1 PUSH1 0x1 ADD SWAP1 PUSH2 0xC3 JUMP JUMPDEST POP POP POP POP SWAP1 POP SWAP1 JUMP JUMPDEST PUSH1 0x40 MLOAD DUP1 PUSH1 0x40 ADD PUSH1 0x40 MSTORE DUP1 PUSH1 0x2 SWAP1 JUMPDEST PUSH2 0x13C PUSH2 0x152 JUMP JUMPDEST DUP2 MSTORE PUSH1 0x20 ADD SWAP1 PUSH1 0x1 SWAP1 SUB SWAP1 DUP2 PUSH2 0x134 JUMPI SWAP1 POP POP SWAP1 JUMP JUMPDEST PUSH1 0x40 MLOAD DUP1 PUSH1 0x40 ADD PUSH1 0x40 MSTORE DUP1 PUSH1 0x2 SWAP1 PUSH1 0x20 DUP3 MUL DUP1 CALLDATASIZE DUP4 CALLDATACOPY DUP1 DUP3 ADD SWAP2 POP POP SWAP1 POP POP SWAP1 JUMP JUMPDEST PUSH0 DUP1 REVERT JUMPDEST PUSH0 DUP2 SWAP1 POP SWAP2 SWAP1 POP JUMP JUMPDEST PUSH2 0x18A DUP2 PUSH2 0x178 JUMP JUMPDEST DUP2 EQ PUSH2 0x194 JUMPI PUSH0 DUP1 REVERT JUMPDEST POP JUMP JUMPDEST PUSH0 DUP2 CALLDATALOAD SWAP1 POP PUSH2 0x1A5 DUP2 PUSH2 0x181 JUMP JUMPDEST SWAP3 SWAP2 POP POP JUMP JUMPDEST PUSH0 PUSH1 0x20 DUP3 DUP5 SUB SLT ISZERO PUSH2 0x1C0 JUMPI PUSH2 0x1BF PUSH2 0x174 JUMP JUMPDEST JUMPDEST PUSH0 PUSH2 0x1CD DUP5 DUP3 DUP6 ADD PUSH2 0x197 JUMP JUMPDEST SWAP2 POP POP SWAP3 SWAP2 POP POP JUMP JUMPDEST PUSH0 PUSH1 0x2 SWAP1 POP SWAP2 SWAP1 POP JUMP JUMPDEST PUSH0 DUP2 SWAP1 POP SWAP3 SWAP2 POP POP JUMP JUMPDEST PUSH0 DUP2 SWAP1 POP SWAP2 SWAP1 POP JUMP JUMPDEST PUSH0 PUSH1 0x2 SWAP1 POP SWAP2 SWAP1 POP JUMP JUMPDEST PUSH0 DUP2 SWAP1 POP SWAP3 SWAP2 POP POP JUMP JUMPDEST PUSH0 DUP2 SWAP1 POP SWAP2 SWAP1 POP JUMP JUMPDEST PUSH2 0x219 DUP2 PUSH2 0x178 JUMP JUMPDEST DUP3 MSTORE POP POP JUMP JUMPDEST PUSH0 PUSH2 0x22A DUP4 DUP4 PUSH2 0x210 JUMP JUMPDEST PUSH1 0x20 DUP4 ADD SWAP1 POP SWAP3 SWAP2 POP POP JUMP JUMPDEST PUSH0 PUSH1 0x20 DUP3 ADD SWAP1 POP SWAP2 SWAP1 POP JUMP JUMPDEST PUSH2 0x24B DUP2 PUSH2 0x1F3 JUMP JUMPDEST PUSH2 0x255 DUP2 DUP5 PUSH2 0x1FD JUMP JUMPDEST SWAP3 POP PUSH2 0x260 DUP3 PUSH2 0x207 JUMP JUMPDEST DUP1 PUSH0 JUMPDEST DUP4 DUP2 LT ISZERO PUSH2 0x290 JUMPI DUP2 MLOAD PUSH2 0x277 DUP8 DUP3 PUSH2 0x21F JUMP JUMPDEST SWAP7 POP PUSH2 0x282 DUP4 PUSH2 0x236 JUMP JUMPDEST SWAP3 POP POP PUSH1 0x1 DUP2 ADD SWAP1 POP PUSH2 0x263 JUMP JUMPDEST POP POP POP POP POP POP JUMP JUMPDEST PUSH0 PUSH2 0x2A3 DUP4 DUP4 PUSH2 0x242 JUMP JUMPDEST PUSH1 0x40 DUP4 ADD SWAP1 POP SWAP3 SWAP2 POP POP JUMP JUMPDEST PUSH0 PUSH1 0x20 DUP3 ADD SWAP1 POP SWAP2 SWAP1 POP JUMP JUMPDEST PUSH2 0x2C4 DUP2 PUSH2 0x1D6 JUMP JUMPDEST PUSH2 0x2CE DUP2 DUP5 PUSH2 0x1E0 JUMP JUMPDEST SWAP3 POP PUSH2 0x2D9 DUP3 PUSH2 0x1EA JUMP JUMPDEST DUP1 PUSH0 JUMPDEST DUP4 DUP2 LT ISZERO PUSH2 0x309 JUMPI DUP2 MLOAD PUSH2 0x2F0 DUP8 DUP3 PUSH2 0x298 JUMP JUMPDEST SWAP7 POP PUSH2 0x2FB DUP4 PUSH2 0x2AF JUMP JUMPDEST SWAP3 POP POP PUSH1 0x1 DUP2 ADD SWAP1 POP PUSH2 0x2DC JUMP JUMPDEST POP POP POP POP POP POP JUMP JUMPDEST PUSH0 PUSH1 0x80 DUP3 ADD SWAP1 POP PUSH2 0x324 PUSH0 DUP4 ADD DUP5 PUSH2 0x2BB JUMP JUMPDEST SWAP3 SWAP2 POP POP JUMP JUMPDEST PUSH32 0x4E487B7100000000000000000000000000000000000000000000000000000000 PUSH0 MSTORE PUSH1 0x32 PUSH1 0x4 MSTORE PUSH1 0x24 PUSH0 REVERT INVALID LOG2 PUSH5 0x6970667358 0x22 SLT KECCAK256 LOG4 PUSH6 0x909596612BA2 SWAP6 KECCAK256 MLOAD OR PC 0xDB CALL 0xC8 SWAP1 SWAP12 SWAP7 0xD6 SELFBALANCE DELEGATECALL 0xE0 JUMP REVERT 0xF9 LOG2 BASEFEE 0xE0 0xB3 0x25 NUMBER PUSH5 0x736F6C6343 STOP ADDMOD BYTE STOP CALLER "
		},
		"gasEstimates": {
			"creation": {
				"codeDepositCost": "181800",
				"executionCost": "infinite",
				"totalCost": "infinite"
			},
			"external": {
				"setArr(uint256)": "22557",
				"showArr()": "infinite"
			}
		},
		"methodIdentifiers": {
			"setArr(uint256)": "08255318",
			"showArr()": "ec5d52c1"
		}
	},
	"abi": [
		{
			"inputs": [
				{
					"internalType": "uint256",
					"name": "x",
					"type": "uint256"
				}
			],
			"name": "setArr",
			"outputs": [],
			"stateMutability": "nonpayable",
			"type": "function"
		},
		{
			"inputs": [],
			"name": "showArr",
			"outputs": [
				{
					"internalType": "uint256[2][2]",
					"name": "",
					"type": "uint256[2][2]"
				}
			],
			"stateMutability": "view",
			"type": "function"
		}
	]
}